:1000000000000320D1010000CD64000085640000E1
:10001000856400008564000085640000856400003C
:10002000856400008564000085640000CD640000E4
:10003000CD640000856400007160000075610000FF
:10004000CD640000CD640000CD640000CD640000EC
:10005000CD640000CD640000CD640000CD640000DC
:10006000CD640000CD640000CD640000CD640000CC
:10007000CD640000CD640000CD640000CD640000BC
:10008000CD640000CD640000CD640000CD640000AC
:10009000CD640000CD640000CD640000CD6400009C
:1000A000FD590000095A0000CD640000CD64000035
:1000B000CD640000CD640000CD640000ED6A000056
:1000C000CD640000057E0000CD640000317F00009B
:1000D000CD64000029800000CD640000CD640000E4
:1000E000CD640000CD640000CD640000CD6400004C
:1000F000CD640000CD640000CD640000CD6400003C
:10010000CD640000CD640000CD640000CD6400002B
:10011000CD640000AD6D0000CD640000CD64000032
:10012000CD640000CD640000CD640000CD6400000B
:10013000CD640000CD640000CD640000CD640000FB
:100140002D5D0000CD64000021810000CD64000021
:10015000CD640000CD640000CD640000CD640000DB
:10016000CD640000CD640000155A0000CD6400008D
:10017000CD640000CD640000CD640000CD640000BB
:10018000CD640000CD640000CD640000CD640000AB
:10019000CD640000CD64000019820000CD64000031
:1001A000CD640000CD640000CD640000CD6400008B
:1001B000CD640000CD640000CD640000CD6400007B
:1001C000CD640000CD640000CD640000CD6400006B
:1001D0005C4B4CF2205210B51A804DF628121A8052
:1001E00000BF00BF06F076F9574B4FF030621A603F
:1001F000564A9A60564ADA60564B4FF470021A60BB
:10020000554B564A1A60564B1A78110703D51A787F
:1002100042F008021A70534B5349AA221A70534AEB
:10022000534B8B4204D252F8040F43F8040BF8E707
:10023000504B514900228B4202D243F8042BFAE77B
:100240004E494F4A002352F8230041F8230001335E
:10025000742BF8D14B4B4C4A802103F8011B93427D
:10026000FBD14A4B454A1A60494B8A221A70A3F5C2
:10027000805324225A70A0221A709A799207FCD5D2
:100280009A79D406FCD4434A937903F00C03082BE3
:10029000FAD1414B60221A7002331A78802AFCD1BD
:1002A0003C4B01221A715D225A719A799006FCD555
:1002B0009979384A4906FBD5384B394919600021EC
:1002C000596020231370937903F00C030C2BFAD19F
:1002D000344B354A1A60354A354C136813F4807331
:1002E00003D123604FF4A8531360324B324A1A6093
:1002F00000225A60072243F8042C304AC3F80C2D20
:1003000062B606F071FA2368DA0705D52C4806F0C4
:10031000C9F92C4B2C4A1A602C4B1B785B0609D56B
:10032000284C294B22689A4204D1254806F0BAF994
:100330000023236009F006FB06F0D2F806F000F86F
:10034000FEE700BF0E20054030800440823F0400DD
:100350000100002B88ED00E0002008E0030000858C
:1003600002D0074000E00740D021FF1FE0AC0100B1
:100370003015FF1FD021FF1F90F5FF1F0010FF1F3A
:100380000000000000E400E064E400E008ED00E0AC
:10039000005006400040064001E007404480044011
:1003A0000000060204800440C010070010D0034083
:1003B00014D0034014E000E01FBF02000000202022
:1003C0000B3D32601CE00340A5C3945A00F0074087
:1003D000FFFFFFFFFFFFFFFFFFFFFFFFFFFFFFFF2D
:1003E000FFFFFFFFFFFFFFFFFFFFFFFFFFFFFFFF1D
:1003F000FFFFFFFFFFFFFFFFFFFFFFFFFFFFFFFF0D
:10040000FFFFFFFFFFFFFFFFFFFFFFFFDEF9FFFF23
:1004100010B5054C237833B9044B13B10448AFF33E
:1004200000800123237010BDD021FF1F00000000B9
:10043000E4AC0100084B10B51BB108490848AFF304
:1004400000800848036803B910BD074B002BFBD0A0
:10045000BDE81040184700BF00000000D421FF1F76
:10046000E4AC0100D021FF1F00000000406970478C
:1004700000207047704700BF4069C000704700BF50
:1004800010B5044605F0FCFB204610BD2DE9F04FE9
:10049000866985B005460C46002E00F07181A36880
:1004A000EA69002B40F366812746183257F8148B0F
:1004B00004F1340094F813900DF10706394609F160
:1004C0000109B446BE465EF8043F43445B7843B13D
:1004D00094F80DA083FA5AF3DBB209FB03F3C3F3DC
:1004E000072386450CF8013FEDD1DDF80880039B1A
:1004F00088EAD81C83EAD31E0CF0AA1C0EF0AA1EB0
:1005000088EA0C0883EA0E0388EACC1C83EACE1E34
:100510004CF6CC488CEA9C3A8EEA9E39434609EA6E
:1005200003030AEA08088CEA080C8EEA030E8CEA38
:10053000883C8EEA833E4FEA0E184FEA1C130EF0F9
:10054000F03E0CF00F3C08F0F03803F00F3343EAB4
:100550000E0348EA0C0E4FEA1E494FEA1E684FEAA6
:10056000132C02F811EC02F8153C4FEA1E2A4FEA50
:10057000134E1B0E02F816CC02F817EC02F812AC60
:1005800002F8139C02F8148C02F8183C94F81290AC
:10059000D4F8008009F101090DF1070CBE465EF8A0
:1005A000043F18F8033043B194F80CA083FA5AF3CF
:1005B000DBB209FB03F3C3F3072386450CF8013FC5
:1005C000EDD1DDF80880039B88EAD81C83EAD31EAE
:1005D0000CF0AA1C0EF0AA1E88EA0C0883EA0E038F
:1005E00088EACC1C83EACE1E4CF6CC488CEA9C3AB6
:1005F0008EEA9E39434609EA03030AEA08088CEAB0
:10060000080C8EEA030E8CEA883C8EEA833E4FEAA1
:100610000E184FEA1C130EF0F03E0CF00F3C08F0E1
:10062000F03803F00F3343EA0E0348EA0C0E02F8E9
:1006300009EC4FEA132C02F80D3C4FEA1E2A4FEA50
:100640001E494FEA1E684FEA134E1B0E02F80AAC11
:1006500002F80B9C02F80C8C02F80ECC02F80FEC9E
:1006600002F8103C94F814C0D4F800E00CF1010C2E
:1006700051F8043F73449B7843B194F80E8083FA99
:1006800058F3DBB20CFB03F3C3F30723884206F8ED
:10069000013FEDD1029B039E83EAD31186EAD61E69
:1006A0000EF0AA1E01F0AA114B4086EA0E0683EA5C
:1006B000C11186EACE164CF6CC4381EA913886EA1F
:1006C000963C9E460CEA0E0E08EA0303594086EA61
:1006D0000E0681EA833186EA8E3633014FEA111E17
:1006E0000EF00F3E01F00F3106F0F03603F0F0335C
:1006F0000B434EEA06064FEA132A4FEA13494FEA24
:1007000013684FEA162C4FEA164E310E02F8013CE0
:1007100002F8056C02F802AC02F8039C02F8048CA3
:1007200002F806CC02F807EC02F8081CA36894F85B
:100730000CC094F80DE094F80E90266894F80FB071
:1007400094F810A0617C94F91580013BCCEB0B0C64
:10075000CEEB0A0EC9EB0101B044002B02F11802E6
:1007600084F80CC084F80DE0A173C4F80080A36085
:100770003FF7A0AEA86905B0BDE8F04F02F0DCBDC0
:10078000D1F8048008EB4807FF00384609F006F965
:10079000E861384609F002F92862012005F0F8FE08
:1007A000EB692A6A00960746414602F041FCAF61B8
:1007B000384602F053FC72E6F0B591B000230568AC
:1007C0008DF800308DF801308DF802302E683A4AED
:1007D0008DF8043096428DF805308DF8063064D1DE
:1007E000827C0391012A044604918DF81A308DF819
:1007F0001B308DF81C30CDF808D01AD08DF8193088
:100800008DF818308DF817308DF816308DF81530BA
:100810008DF8143000228DF81D2007AB0FA943F886
:10082000042F9942FBD1AB69204602A9984711B029
:10083000F0BD224A1378013303F0070313F0010FD0
:1008400014BF8021002113709A0744BF41F040017A
:10085000C9B25B0748BF41F0200110310022C9B284
:100860000DF117030DF11A074FF4807EAAB19EFB1C
:10087000F2F2D2B2501CC0B200FB01152D1218705A
:10088000EEB205B1013E03F8036C00B11A700133FA
:100890009F4208D0DA78002AE9D11A7003F8032CB5
:1008A00001339F42F6D12568B4E70A4601AB694699
:1008B000B04711B0F0BD00BFC1080000EC21FF1F20
:1008C000F0B5857C1C785E789B788FB0012D8DE823
:1008D000060002928DF812408DF813608DF81430E6
:1008E0001BD000238DF811308DF810308DF80F30AB
:1008F0008DF80E308DF80D308DF80C3000228DF80B
:10090000152005AB0DA943F8042F8B42FBD10368DA
:1009100069469B6998470FB0F0BD1B4A13780133B5
:1009200003F0070313F0010F137014BF802200229D
:10093000990744BF42F04002D2B25B0748BF42F081
:1009400020021032D2B20DF10F030DF112074FF455
:10095000807EACB19EFBF4F4E4B2611CC9B201FB31
:1009600002252D121970EEB205B1013E03F8036C99
:1009700001B11C7001339F42C0D0DC78002CE9D15A
:100980001C7003F8034CF5E7EC21FF1FF0B5857CE4
:100990001C785E789B788FB0012D8DE8060002925E
:1009A0008DF812408DF813608DF8143020D000239C
:1009B0008DF811308DF810308DF80F308DF80E3025
:1009C0008DF80D308DF80C30032100238DF81510B3
:1009D00002EB4202194605AC0131082944F8043FF4
:1009E0001344F9D1036869469B6998470FB0F0BD7D
:1009F0001B490B78013303F0070313F0010F0B7051
:100A000014BF802100219D0744BF41F04001C9B2BD
:100A10005B0748BF41F020011031C9B20DF10F034F
:100A20000DF1120E4FF4807CACB19CFBF4F4E4B2F7
:100A3000651CEDB205FB011636121D70F7B206B14A
:100A4000013F03F8037C05B11C7001337345BBD033
:100A5000DC78002CE9D11C7003F8034CF5E700BFEB
:100A6000EC21FF1F2DE9F04F8BB00027069051F8C5
:100A70002730DBB20137FF2BBFB2F8D10B680797E5
:100A80004FEA1368C3F3072BC3F307494FF0FF3353
:100A9000C64600240593884658F8045F0698C5F3B7
:100AA00007274FEA241CC5F30746ECB2F9B2C5F399
:100AB00007650391E9B204915FFA8CF102910799FD
:100AC0000F2908AA4FEA14135FFA86FA0CD8059981
:100AD0008C4507DC0F2905D00131C9B28B42029148
:100AE00038BF0B4659B2059109A9009102998DF8BA
:100AF00020B08DF821908DF822E08DF824708DF8CB
:100B000025608DF8265002F01DFEFF2CDDF810E068
:100B1000DDF80CB0D146BFD106980BB0BDE8F08F20
:100B200038B54FF4FA6005F00DFE4FF47A7005F019
:100B300009FE294803F0FAF8D8B9284C03460C21DD
:100B40002748236006F0DCFF264805F031FB264DE0
:100B500026480C2104F064FF284603F031FA23688C
:100B600093B1012B20D0224B4FF400429A61DA61FD
:100B700038BD1A4C1F4801230C21236006F0C0FF2A
:100B8000184805F015FBE2E755222021284603F01E
:100B9000EBF90028E7D0EA8842F0040292B2284636
:100BA000242103F0E1F9DEE740F273122A212846FE
:100BB00003F0DAF90028D6D088222021284603F055
:100BC000D3F90028CFD0EA88284622F00402242155
:100BD00003F0CAF9C7E700BF6482FF1F8431FF1F1B
:100BE0001CA500006C17FF1F08EBFF1F0002FF1F72
:100BF00094E8FF1F0CA500002DE9F84F104C114F91
:100C0000114EDFF848B0DFF848A0DFF8489004F54F
:100C1000A0780025204602F0D7FF143402230C21CF
:100C2000CBF8003044454FF0080347F8045F46F81E
:100C3000045FCAF80030C9F80010EBD1BDE8F88FA6
:100C400034E9FF1FC0EAFF1F4031FF1F2CE8FF1FE0
:100C500018EBFF1F2082FF1F70B51F4B84B00024CC
:100C600053F8042F092A04F1010129DCCCB2102C1D
:100C7000F6D11A4D1A4E2B680093009B3168194A21
:100C80005B1A934211D92B680193019B3360FFF7E4
:100C9000B3FF0B2C09D82B680293134A134B02990C
:100CA000116000221A7004B070BDFFF7A5FF2B6819
:100CB0000393039A0D4B326001221A7004B070BD89
:100CC000064D074E2B680093009B3168054A5B1A5E
:100CD0009342DED9D7E700BFDC81FF1F40F1FF1F41
:100CE0007883FF1FE093040080E8FF1F74EAFF1F72
:100CF0002DE9F84FE64BE74A2DED028B03F140005A
:100D000053F8041F42F8041F9842F9D1DFF8C49346
:100D1000DFEDE18AB9F81830DFF8B48307EE903AD6
:100D2000DE4BF8EE677AD3E9006767EEA87A4C46A7
:100D300017EE900A08F074FA32463B4608F0C4FAFF
:100D40000022D74B08F0C0FA08F06EFDB9F81A304F
:100D5000C8F8000007EE903AF8EE677A08EE100A3D
:100D600067EEA87A09F1360517EE900A08F058FAEE
:100D700032463B4608F0A8FA0022C94B08F0A4FA14
:100D800008F052FDB9F81E20B9F81C30C8F804006C
:100D9000134407EE903AF8EEE77A67EEA87A17EE7A
:100DA000900A08F03DFA32463B4608F08DFA0022E0
:100DB000BB4B08F089FA08F037FDB9F82010B9F8F4
:100DC0002230B9F82420C8F808000B44134407EE79
:100DD000903AF8EEE77A67EEA87A17EE900A08F0F4
:100DE0001FFA32463B4608F06FFA0022AC4B08F07F
:100DF0006BFA08F019FDB9F828E0B9F82630B9F80F
:100E00002A1034F82C2FC8F80C0073440B441344F8
:100E100007EE903AF8EEE77A67EEA87A17EE900AB6
:100E200008F0FEF932463B4608F04EFA9C4B002291
:100E300008F04AFA08F0F8FC0023C8F8100034F86B
:100E4000022FA5421344FAD107EE903AFBEEC97A7D
:100E5000944C17EE900A08F0E3F932463B4608F04E
:100E600033FA00228E4B08F02FFA08F0DDFCC8F8A8
:100E70001400002035F8023FAC421844FAD107EEC6
:100E8000900AFBEEC97A884D17EE900A08F0C8F96F
:100E900032463B4608F018FA0022814B08F014FA5B
:100EA00008F0C2FCC8F81800002034F8023FA54240
:100EB0001844FAD107EE900AFBEEC97A7B4C17EE84
:100EC000900A08F0ADF932463B4608F0FDF90022E1
:100ED000734B08F0F9F908F0A7FCC8F81C000020D3
:100EE00035F8023FAC421844FAD107EE900AFBEE07
:100EF000C97A6F4D17EE900A08F092F932463B46D8
:100F000008F0E2F90022664B08F0DEF908F08CFCEC
:100F1000C8F82000002034F8023FA5421844FAD156
:100F200007EE900AFBEEC97A624C17EE900A08F0C1
:100F300077F932463B4608F0C7F90022584B08F0D3
:100F4000C3F908F071FCC8F82400002035F8023F0E
:100F5000AC421844FAD107EE900AFBEEC97A564D1E
:100F600017EE900A08F05CF932463B4608F0ACF9FF
:100F700000224B4B08F0A8F908F056FCC8F82800EE
:100F8000002034F8023FA5421844FAD107EE900A37
:100F9000FBEEC97A494C17EE900A08F041F9324647
:100FA0003B4608F091F900223D4B08F08DF908F01E
:100FB0003BFCC8F82C00002035F8023FAC42184436
:100FC000FAD107EE900AFBEEC97A3D4D17EE900A72
:100FD00008F026F932463B4608F076F90022304BFD
:100FE00008F072F908F020FCC8F83000002034F84E
:100FF000023FA5421844FAD107EE900AFBEEC97AE7
:10100000304C17EE900A08F00BF932463B4608F0D8
:101010005BF90022224B08F057F908F005FCC8F8EC
:101020003400002035F8023FAC421844FAD107EEF4
:10103000900AFBEEC97A17EE900A08F0F1F83246F2
:101040003B4608F041F90022154B08F03DF908F045
:10105000EBFB1D4AC8F83800002034F8023FA242DA
:101060001844FAD107EE900AFBEEC97A174CDFF864
:101070006890174DDFF864B0DFF864A017EE900AAF
:1010800008F0CEF832463B4608F01EF9044B29E042
:10109000DC81FF1F8083FF1F00008038C015FF1F09
:1010A00000408F400C84FF1F2084FF1F3C84FF1FE3
:1010B0006484FF1F9A84FF1FE684FF1F5085FF1F73
:1010C000E285FF1FAE86FF1FDE87FF1F34E9FF1F8B
:1010D000E081FF1FC883FF1FF882FF1F90E8FF1FFA
:1010E000A031FF1F264E274F002208F0EDF808F030
:1010F0009BFB0023C8F83C003360984601E095ED67
:10110000008A2046B8EEC80A02F066FD204602F0CA
:10111000A9FD10EE100A08F083F8E9E80201204664
:1011200002F0B0FD10EE100A08F07AF855F8042B22
:101130003368134407EE903AE7E80201B8EEE70A95
:101140001148336002F048FD0F4802F08BFDBDEE00
:10115000C00A0D488BED000A02F094FD08F1010869
:10116000BDEEC00AB8F1100F04F114048AED000AB4
:10117000C5D1BDEC028BBDE8F84FFFF76DBD00BFD8
:1011800088E8FF1F3881FF1F20E9FF1FF0B53049B5
:101190000B5C022B85B02ED02E4B53F82020002A5A
:1011A0000DDD2D4A2D4C12682D490392039A54F8F7
:1011B000204051F82010121B323191420BD30328EA
:1011C0000EDD284B1B680A2B274BCCBF01220022C7
:1011D0001A7005B0F0BD0022032843F82020F0DC8F
:1011E000204953F820200B689A42ECDD1F4C0A601E
:1011F00013462070E7E7184C184D23680093009BB6
:1012000055F820609B1BC72B05D8124B012453F8BF
:1012100020200C54C3E723680193154F019B57F816
:1012200020202468DFF838E00294991B521A094BF9
:10123000029C4EF820101D323A2A53F8202047F81D
:1012400020109CBF013243F8202045F82040A6E73B
:101250001CEBFF1F40E8FF1F40F1FF1F80EAFF1F4C
:10126000ECE7FF1F0CE9FF1F04EBFF1F3CE8FF1F2B
:101270002482FF1FFFFFFFFF2DE9F843284B53F89F
:1012800020908046484607F0B9FF264A4FEAC80337
:101290001A440D462449D2E900670B440446D3E9B9
:1012A00000011DA3D3E9002308F00EF832463B46A7
:1012B00007F058FE02460B462046294608F094FAED
:1012C00068B1B9F1640F0ADD184B13F80820022A3F
:1012D0001AD052B9022203F80820BDE8F883DFF8DB
:1012E0004C9019F80830012B01D0BDE8F883324644
:1012F0003B462046294608F063FA0028F5D0002333
:1013000009F80830BDE8F883012203F80820BDE899
:10131000F88300BFAFF30080000000606666024003
:10132000E081FF1FF882FF1F3881FF1F1CEBFF1FAA
:1013300010B40E4B0E4A53F820100E4C52F82030C9
:10134000245C0529C4BF023342F82030022C04BFBC
:10135000013342F82030B3F5967F04DD0129DCBF6C
:10136000023B42F820305DF8044B704740E8FF1F15
:101370004431FF1F1CEBFF1F2DE9F04F91B0FFF729
:10138000B7FCA54BA54A029319460023DFF8CC927F
:10139000DFF8CCB213609A46884622E0DBF8000002
:1013A00007F02CFF2246CDE900012B463046394696
:1013B00007F0D6FD00229A4B07F086FF02460B4647
:1013C000DDE9000107F0CEFD08F02EFACBF80000B1
:1013D0000AF1010A80F30800BAF1100F4BF8040B70
:1013E0001CD05046FFF748FF5046FFF7CFFE50464F
:1013F000FFF79EFF59F8040F07F000FFF8E80245D9
:1014000022462B4606460F4608F0EEF90028C5D1C5
:10141000DBF800000538CBF80000D9E7814A824BA1
:101420001768824A1B68D2F80090814A814DD2F831
:101430000080814A0B9312680592804A09934FF00D
:10144000000ACDF818A0CDF81CA0CDF820A0CDF84A
:1014500028A0CDF80CA05446CDF810A0D2F800B0CA
:101460000095BA46029F6C4B724903EBC80E04F11B
:1014700009030293009B1A68099B51F823309A4292
:1014800003DD01230B9409940A930099694B694D7C
:101490004A6953F82A30486A55F82910029D9A4241
:1014A00004F10503C8BF9A46089BC8BF01238842C0
:1014B000C8BFA946D7E90001079D0893C8BF012509
:1014C000DEE90023079508F08FF9059D524A069E34
:1014D000002802EBC50318BF0126D3E90023D7E992
:1014E0000A0118BFA046069608F07EF94A4A00286D
:1014F00004F1050602EBCB0308BF2E46D3E9002317
:10150000D7E912010596049E18BF0126049608F03B
:101510006BF9009B029D002803F1040304F1010410
:10152000009318BFAB46039B18BF0123042C039301
:1015300007F1080797D15746DDF810A0002B47D1D7
:101540000A9B13B1384B0B9A1A60089B0BB1354BB1
:101550001F60079B13B1354BC3F80090069B13B176
:10156000334BC3F80080BAF1000F02D0324B059A1A
:101570001A60334B0999334C5B5C022B04D0324B1D
:1015800053F82130082B02DD2368053323602F4FE9
:101590003B68DB0720D52E4E2E4D33680F9395E820
:1015A00006000F9B5B1A9A4224D923682A490A2B0A
:1015B000A8BF0A236FF009000A688342B8BF034638
:1015C0001A4482F3080223600A6011B0BDE8F08F6C
:1015D0001A4BC3F800B0B3E7384604F09BFF1C4E2B
:1015E0001C4D70B933680F9395E806000F9B5B1A8A
:1015F0009342DAD333680E9323680E9A2A60013B34
:10160000D4E733680D930D9B2B60962338466B60AF
:1016100004F086FFE6E700BFF882FF1F0CE9FF1F1A
:101620000000E03F18EBFF1F2CE8FF1F2082FF1F88
:1016300078EAFF1F4431FF1FC483FF1F30E8FF1FFC
:101640001CEBFF1F3081FF1F40E8FF1FF482FF1FCC
:1016500040F1FF1F7C83FF1F8CE8FF1FDC81FF1F11
:10166000CCE8FF1F2DE9F04F2DED028B154689B018
:10167000013A0D2A064689469DF8548070D8B0EE8E
:10168000408AF0EE608A684A684852F82520684926
:1016900000681344B3F5FA7FA8BF4FF4FA7323EA46
:1016A000E3731A0281FB024AB0F5FA7F4FEAE27255
:1016B000C2EBAA1AC0F29D805E4A03FB00F382FBD4
:1016C0000320DB17C3EB601007F098FD53EC182BD9
:1016D00007F0FAFD08F0A8F8DFF870B10028CBF8A1
:1016E000000038DDB6B2C6EB09099DF85030DFF8CE
:1016F0005881514F03931FFA89F95FFA8AFA00253E
:10170000B8F800304D490122009203EB432203EB6D
:10171000820303F55853193398B209FB00F406EB22
:1017200014445346039AA8F80000A4B207A802F094
:10173000A5F804EB4404DBF800209DF81CE09DF8BC
:101740001D009DF81E1007F804E03B190135AA4260
:1017500058709970D4DC09B0BDEC028BBDE8F08FF5
:10176000DFF8ECA0DAF80020D2074AD5344C354F28
:101770002368079307993B687A68CB1A9342EAD3A8
:10178000314A21681388069103EB432103EB81035F
:10179000B6B203F55853C6EB0909193398B21FFACC
:1017A00089F900FB09F306EB1346B3B2224C9DF80E
:1017B0005010069E8DF8101003EB43031C4410805C
:1017C000FF23214604A83E608DF812508DF8113099
:1017D00002F0B4F8B8F1000FBDD00023214604A8F0
:1017E0008DF812508DF810308DF8113002F0A6F8F7
:1017F000B1E700FB033381FB0320DB17C3EBA01031
:1018000062E75046039304F085FE0D4C039B0D4F99
:101810000028ADD022680592059A504687E80C0052
:1018200004F07EFEA4E700BFE081FF1FD015FF1F7C
:1018300041DDB320D34D62107498FF1F7082FF1FEB
:1018400040F1FF1FBC81FF1FD615FF1F2CEBFF1FB0
:10185000A482FF1FFFFFFFFF70B54B4D82B0002435
:10186000C1260194009420466FF031039FED420B96
:10187000022241F678212E60FFF7F4FE2323204652
:10188000019400939FED3E0B6FF03103032241F66C
:101890007821FFF7E7FE46232046019400939FED51
:1018A000380B6FF03103042241F67821FFF7DAFE9E
:1018B00069232046019400939FED310B6FF03103B3
:1018C000062241F67821FFF7CDFEB4232046C82535
:1018D000019400939FED2A0B6FF03103092241F62A
:1018E0007821FFF7BFFE2046019400956FF0310389
:1018F0009FED230B0C2241F67821FFF7B3FE204623
:10190000019400956FF031030E2241F678219FED8E
:101910001C0BFFF7A7FE1D4B1D4C1A681D4B1E4DDF
:10192000B2F5FA6FA8BF4FF4FA6222EAE27202EB54
:10193000820102EBC10284FB0214D217C2EB6424C1
:10194000C4F58074A4B2581C10F8012C04FB02F2F8
:10195000121200F8012C59789A7804FB01F104FB6B
:1019600002F20912121259709A7003339D4200F16B
:101970000300E9D102B070BD000000E051B8AE3FF5
:10198000000000A09999B93FD015FF1F88E8FF1FFC
:10199000E3D480417498FF1FDCE7FF1F0AB31B4AA2
:1019A0001B4B52F82020323A02EB8202520083FB9A
:1019B0000203D217C2EBE313092BA8BF092323EAC2
:1019C000E373144A52F82100834209DD124842F8B9
:1019D000213050F821209342C4BF013340F8213018
:1019E00070470A4A0A4B52F82020323A02EB420072
:1019F000C2EBC00283FB0203D217C2EBE313162B28
:101A0000A8BF162323EAE373DBE700BFE081FF1FD3
:101A10007D55783B3C15FF1F7C15FF1F2DE9F04FCE
:101A2000994D9A4E044687B02946681C10F8013C2F
:101A3000C3EBC30303EB43131B1200F8013C4A78CA
:101A40008B78C2EBC202C3EBC30302EB421203EB7F
:101A5000431312121B124A708B700331B14200F112
:101A60000300E3D1224600210120FFF797FF224621
:101A700001210220FFF792FF224602210320FFF7F7
:101A80008DFF224603210420FFF788FF2246042110
:101A90000620FFF783FF224605210720FFF77EFF80
:101AA000224606210820FFF779FF22460721092058
:101AB000FFF774FF224608210A20FFF76FFF744EDC
:101AC000224609210C20FFF769FF22460A210E2039
:101AD000FFF764FF3368032B00F3C78001336D48C1
:101AE000336003680F2B00F3B28001330360002CD6
:101AF00052D0694B0293DFF8A8A1DFF8A8B1002308
:101B000003935AF8043F002B3BDD039A4FEA820807
:101B100008EB020702EB4703029F019300243B46B8
:101B2000264657464FF0FA099A465AF8041B8DF894
:101B3000144001EB41014FF0FF33294405A88DF813
:101B400015308DF8169001F0F9FE019B5BF8082026
:101B50001A44514B53F82210002001EB4101962208
:101B60008DF814008DF81500294405A88DF816206D
:101B700001F0E4FE3A6801360E34B242E4B2D4DC3D
:101B8000BA46039B029A01332C32582B03930292DC
:101B9000B7D107B0BDE8F08FDFF80CA13E4B019341
:101BA0004FF0FF08D3465BF8042B002A45DDDDF833
:101BB00004A04FF000095746FA26DAF890178DF87E
:101BC000144001EB4101294405A88DF815808DF8DA
:101BD000166001F0B3FED7F864178DF8144001EBDE
:101BE0004101294405A88DF815808DF8166001F093
:101BF000A5FE5AF82C1B8DF8144001EB4101294435
:101C000005A88DF815808DF8166001F097FED7F8BD
:101C1000F41E8DF8144001EB4101294405A88DF80C
:101C200015808DF8166001F089FE5BF8042C09F12F
:101C300001094A45A7F12C07BFDC019B1434E4B22B
:101C40000433DC2C0193AED107B0BDE8F08F134A0A
:101C500002F1400152F8043F012BC4BF03F1FF33EE
:101C600013608A42F6D1012340E70D4A02F1400198
:101C700052F8043F012BC4BF03F1FF3313609142BC
:101C8000F6D101232BE700BF7498FF1FDCE7FF1F8D
:101C900014EBFF1FE882FF1F2022FF1F7815FF1F94
:101CA0003815FF1F7C15FF1F3C15FF1F2DE9F04F56
:101CB000044BDFF814A089B0984605930027012350
:101CC00018E000BF2022FF1F5CA50000E24A1B02B3
:101CD00082FB0324DB17C3EB2423962B00F3D8816C
:101CE000DC3740F674139F4208F1040800F0A98025
:101CF0005AF8043FD94A52F82330002BF0DBB3F5F1
:101D0000167FE3DDFF24D64BD8F80090D549D64D99
:101D100083FB0736FB17C3EB6606143EF6B24FF0A3
:101D2000010B32462346CDF800B007A801F0A6FD0E
:101D300009EB490305EB030EEA5C9DF81C1082FADF
:101D400051F2EA549DF81D209EF8013083FA52F3B7
:101D50008EF801309EF802109DF81E3081FA53F182
:101D6000D8F86497CDF800B0234632468EF80210BA
:101D700007A8BC4901F082FD09EB490305EB030EFE
:101D8000EA5C9DF81C1082FA51F2EA549DF81D207D
:101D90009EF8013083FA52F38EF801309EF802105B
:101DA0009DF81E3081FA53F1D8F89097CDF800B025
:101DB000234632468EF8021007A8AA4901F05EFDBC
:101DC00009EB490305EB030EEA5C9DF81C1082FA4F
:101DD00051F2EA549DF81D209EF8013083FA52F327
:101DE0008EF801309EF802C09DF81E308CFA53FC2C
:101DF000D8F8F49E9B49CDF800B02346324607A898
:101E00008EF802C001F03AFD09EB4903E918EA5CDB
:101E10009DF81C0082FA50F2EA549DF81D304A7871
:101E200082FA53F24A708B789DF81E2083FA52F39F
:101E30008B70DC3740F674139F4208F104087FF47E
:101E400057AF8A4B8A4A1B68B3F57A7FA8BF4FF415
:101E50007A7323EAE37303EB830103EBC10382FB91
:101E60000312DB17C3EB2223824A1268C3F12B0350
:101E7000934280F20781DFF804B27B4BABF158024A
:101E80000392039E0BF12C020492924606F12C0958
:101E900006F2BC7806F5F26C0BF5F26E0BF2BC772D
:101EA00000255AF8044B5BF8041B56F8040B04EBAE
:101EB000440401EB41011A5D5A541C4419446278F0
:101EC0004A70A47859F8042B8C7000EB400102EBA7
:101ED0004202585C985419441A4448785CF8044B00
:101EE000507058F8040B8978917004EB440400EBAF
:101EF00040001A5D1A541C441844627857F8041BB9
:101F000042705EF8042BA478847001EB410102EB6F
:101F10004202585C985419441A444878507001356C
:101F2000897891700B2DBCD1039ADDF810B02C3A52
:101F30000392514A5A45A4D1151FDDF814E000243C
:101F400005F12C0705F5F26655F8049F57F8040FC4
:101F50005EF8041B56F8042F09EB490903EB090846
:101F600013F809C00CEBCC0C0CEBCC0C4FEA2C2C6E
:101F700003F809C098F8019098F802C009EBC90964
:101F80000CEBCC0C09EBC9090CEBCC0C00EB4000C2
:101F90004FEA2C2C4FEA292988F8019088F802C0D2
:101FA00013F800C00CEBCC0C0CEBCC0C4FEA2C2C37
:101FB00003F800C0184401EB410190F8018090F84B
:101FC00002C008EBC8080CEBCC0C08EBC8080CEB03
:101FD000CC0C4FEA2C2C4FEA282880F8018080F89E
:101FE00002C0585C00EBC00000EBC0000012585467
:101FF000194402EB420291F801C088780CEBCC0C3A
:1020000000EBC0000CEBCC0C00EBC00000124FEA60
:102010002C2C81F801C08870995C01EBC10101EBA7
:10202000C101091299541A4401345078917800EB97
:10203000C00001EBC10100EBC00001EBC1010012C7
:1020400009120B2C507091707FF47EAF094B012266
:102050001A6009B014E000BF37800B6DE081FF1FEC
:10206000E9A28B2E7082FF1FA431FF1F88E8FF1F9B
:102070009F7478411822FF1F8429FF1FE825FF1F46
:10208000BDE8F08F034B01321A6009B0BDE8F08F54
:10209000DCB238E61822FF1F70B5FFF707FE074CC9
:1020A000074D084E29462046FF22033401F0B8FBB5
:1020B000B44205F10305F5D170BD00BF7498FF1F50
:1020C000A431FF1FDCE7FF1F2DE9F04F5B4E3368A3
:1020D000DB0785B068D55A4D5A4C2B68039394E8BA
:1020E0000600039B5B1A9A4275D9574B57489B7859
:1020F000022B00F08680554DDFF864B1DFF8509177
:10210000DFF8608105F1280AFF2755F8043B0A2B08
:102110001EDC0024642601E055F8043C8DF80170B3
:1021200004EB840204EB4202C3F10B0313440134B9
:1021300058F82310DBF800308DF8026001EB410104
:10214000494468468DF8003001F0F8FB582CE3D183
:10215000AA450BF1040BD8D13D493E4C481C10F860
:10216000013C03EB431203EB4203C3EB83031B125B
:1021700000F8013C4A788B7802EB421603EB4315DA
:1021800002EB460203EB4503C2EB8202C3EB83037F
:1021900012121B124A708B7003318C4200F1030043
:1021A000DDD105B0BDE8F08F304604F0B3F9244D21
:1021B000244C40B12B680193019B23603C233046A3
:1021C000636004F0ADF92B68039394E80600039B69
:1021D0005B1A934289D32B681C480293029B2360AD
:1021E00000F12801034653F8042B0A2ADCBF013210
:1021F00043F8042C9942F6D1134B9B78022B7FF4C1
:102200007AAF154E154D33882968154F03EB4322DD
:1022100003EB820303F5585319339BB203EB1324EA
:102220004A1CE4B20A2A47F821404FF0000408BFD4
:10223000224640F8214033802A605CE74031FF1F8E
:1022400040F1FF1F4498FF1F1CEBFF1F4C98FF1F1E
:102250007498FF1FDCE7FF1FD615FF1FC0EAFF1FA2
:10226000C082FF1F2022FF1F2DE9F04FBF4CC04A44
:10227000A368C048BF4DBE4EB3F5167FA8BF4FF44C
:10228000167323EAE37303EBC30380FB03101168A7
:10229000DB17C3EB20239942BCBF13601946A36927
:1022A0005068B3F5167FA8BF4FF4167323EAE373A3
:1022B00003EBC30385FB0375DB17C3EB25239842B0
:1022C000B8BF7360636AAB4D9068A94EB3F5167FD3
:1022D000A8BF4FF4167323EAE37303EBC30385FB34
:1022E0000375DB17C3EB25239842B8BFB360636B5C
:1022F000A04CD0689E4DB3F5167FA8BF4FF416735F
:1023000023EAE37303EBC30384FB0364DB17C3EB30
:102310002423984289B0B8BFEB60002900F01282F4
:10232000DFF858B2944C4FF0000AD846D14607AEB9
:1023300006ADFF27DBF86031009331462846019255
:102340008DF818908DF819708DF81A7001F0F6FA62
:10235000009B9DF81CE003EB4303E018E15C81FA6D
:102360005EF1E1549DF81D10437883FA51F34370F8
:1023700081789DF81E3081FA53F1D8F86031817070
:102380003146284600938DF818908DF819708DF815
:102390001A7001F0D3FA009B9DF81CE003EB430395
:1023A000E018E15C81FA5EF1E1549DF81D3041785E
:1023B00081FA53F1417083789DF81E1083FA51F32E
:1023C000019A837011680AF1010A5145ABF12C0B97
:1023D00008F12C08AEDC5368002B5ADDDFF89CA115
:1023E0004FF0000BD04607AE06AD4FF04009FF2777
:1023F000DAF8F43300933146284601928DF81890AC
:102400008DF819708DF81A7001F098FA009B9DF8FC
:102410001CE003EB4303E018E15C81FA5EF1E15458
:102420009DF81D10437883FA51F3437081789DF82D
:102430001E3081FA53F1D8F8F433817031462846C2
:1024400000938DF818908DF819708DF81A7001F0BE
:1024500075FA009B9DF81CE003EB4303E018E15C78
:1024600081FA5EF1E1549DF81D30417881FA53F113
:10247000417083789DF81E1083FA51F3019A83709E
:1024800051680BF1010B5945AAF12C0A08F12C08EF
:10249000AEDC9368002B5ADDDFF8E0804FF0000BD4
:1024A000C14607AE06AD4FF0800AFF27D8F8B43614
:1024B00000933146284601928DF818A08DF81970C6
:1024C0008DF81A7001F03AFA009B9DF81CE003EBBE
:1024D0004303E018E15C81FA5EF1E1549DF81D10C0
:1024E000437883FA51F3437081789DF81E3081FA66
:1024F00053F1D9F8B43681703146284600938DF8EF
:1025000018A08DF819708DF81A7001F017FA009B59
:102510009DF81CE003EB4303E018E15C81FA5EF1F7
:10252000E1549DF81D30417881FA53F14170837870
:102530009DF81E1083FA51F3019A837091680BF194
:10254000010B5945A8F12C0809F12C09AEDCD36820
:10255000002B66DDDFF824A04FF0000BD04607AE5D
:1025600006AD4FF0C209FF270AE000BFE081FF1F60
:10257000DCE7FF1F37800B6D7498FF1F2022FF1FC1
:10258000DAF8743900933146284601928DF8189094
:102590008DF819708DF81A7001F0D0F9009B9DF834
:1025A0001CE003EB4303E018E15C81FA5EF1E154C7
:1025B0009DF81D10437883FA51F3437081789DF89C
:1025C0001E3081FA53F1D8F87439817031462846AB
:1025D00000938DF818908DF819708DF81A7001F02D
:1025E000ADF9009B9DF81CE003EB4303E018E15CB0
:1025F00081FA5EF1E1549DF81D30417881FA53F182
:10260000417083789DF81E1083FA51F3019A83700C
:10261000D1680BF1010B5945AAF12C0A08F12C08DD
:10262000AEDC544F3B68DA076CD5534D534E2B68E4
:10263000049396E80600049B5B1A9A420CD82B6818
:1026400003934F4B039A326003F110011A68013A69
:1026500043F8042B8B42F9D14A4E3368DB0763D52C
:10266000494F2B68079397E80600079B5B1A9A422D
:102670001DD82B680693454E069B3B6006F5726796
:10268000A6F11C0531460B6851F8042D02EB4202FD
:1026900003EB4303A05CE054224423445078587079
:1026A00092789A70A942EED12C36B742E8D13849D7
:1026B000384C481C10F8013C03EB431203EB420377
:1026C000C3EB83031B1200F8013C4A788B7802EBC2
:1026D000421603EB431502EB460203EB4503C2EB44
:1026E0008202C3EB830312121B124A708B700331F8
:1026F0008C4200F10300DDD1052004F023F809B07D
:10270000BDE8F08F384603F005FF1B4D1B4E30BB74
:102710002B68049396E80600049B5B1A93428ED2C2
:10272000184E3368DB079BD4304603F0F3FE58B9EC
:10273000154F2B68079397E80600079B5B1A934297
:10274000B5D396E7124C46E62B680F4F0593059BD1
:102750003B600A2330467B6003F0E2FEE9E72B682A
:102760000293029B336028233846736003F0D8FE3F
:10277000CEE700BFC481FF1F40F1FF1F10E9FF1F1C
:10278000DCE7FF1F7CEAFF1F18E9FF1F3C22FF1F49
:102790007498FF1FDCE7FF1F70B55A4C2378612B3C
:1027A00021D0622B47D0662B56D06D2B00F0818054
:1027B0006F2B00F09A80732B2DD0742B69D0782B5F
:1027C00000F08F80792B4ED07A2B0BD14E4B607856
:1027D0001870A178E278597018469A7007F0A2F83C
:1027E0004A4B186070BD484B6078A178E278187049
:1027F000184659709A7007F095F8454A454B0146BE
:102800001160454803221A6003F022FD424803F09C
:10281000CFFC2378CCE73C4B61783E4AA578197011
:10282000E4785D70184604219C70116007F07AF816
:102830003A4B187070BD344B364A61781970A678DF
:10284000E5785E70184604219D70116007F06AF803
:10285000334A23781070ABE72E4B324A1968116067
:1028600000221A6070BD284B6078E278A178187059
:1028700018469A70597007F055F82B4B2B4C18607E
:1028800006F0BCFC00222A4B06F048FEC4E9000119
:1028900070BD1D4B61781F4AA5781970E4785D7092
:1028A000184604219C70116007F03CF8214B187009
:1028B00070BD154B6078A178E27818701846597091
:1028C0009A7007F02FF81C4B124A18600223194621
:1028D0001148136003F0BCFC0F4803F069FC237837
:1028E00066E70C4B01221A6070BD0E4C0A48216845
:1028F00003F0AEFC084803F05BFC064B22681A604C
:1029000070BD00BF2481FF1F8831FF1FC815FF1F46
:1029100038E8FF1F3415FF1F6C17FF1F1C98FF1F9F
:10292000CC15FF1F1C22FF1F0C81FF1FC015FF1FAE
:10293000000059403815FF1FC881FF1F38B5084CEB
:10294000251D14F8010B05F05FF9AC42F9D10548DB
:1029500003F02EFCFFF720FF034B00221A7038BD56
:102960002481FF1F6C17FF1F05EBFF1FF8B5124EE8
:10297000124D134F04F076F800B9F8BD3478002CEE
:10298000FBD104F07FF82B78C0B23BB13E280D4B51
:1029900009D01A78511CB8541970EBE73C28E9D1DA
:1029A00001232B70E6E7074B2C7019781C7001226D
:1029B0007C543270DEE700BF05EBFF1F84E8FF1F89
:1029C0002481FF1FA082FF1F2DE9F0472F4E33689F
:1029D000DB0786B049D52E4D2E4C2B68059394E825
:1029E0000600059B2C4E5B1A934236D23368DFF803
:1029F000B4902A4DDFF8B080582B04BF0023336019
:102A00000024012700E03368009703EB830203EB07
:102A100042032344C4EB042188FB010259F823A09C
:102A2000C917C1EB6202D2B2FF231D4902A80AEB0B
:102A30004A0A00F023FF013405EB0A039DF8080061
:102A40009DF809109DF80A2005F80A000B2C597012
:102A50009A70D8D106B0BDE8F0872A68336804922E
:102A6000049A226001333360C1E7304603F052FD1F
:102A7000074D084C0028B0D02B680393039B2360BC
:102A800032233046636003F04BFDA6E734E8FF1FB6
:102A900040F1FF1FEC82FF1FB881FF1F7498FF1FDA
:102AA0007082FF1F2022FF1FE9A28B2E0D4B1B6897
:102AB000013B052B14D8DFE803F006080B0D0F03CC
:102AC000FA20FEF7C9BEFFF7E7BA0020FEF7A6BF5F
:102AD000FFF7CABBFFF7F8BA4FF49670FEF7BCBE1B
:102AE000704700BFC881FF1F2DE9F0410C4CDFF893
:102AF00040800C4F0C4E0D4D82B0397832782B78D7
:102B00008DF8051001A8214603348DF806208DF8B4
:102B1000043000F013FF4445EFD102B0BDE8F0816E
:102B20007498FF1F3815FF1FCC15FF1F1C98FF1F3F
:102B3000DCE7FF1F0F4B1B68042B08D8DFE803F00E
:102B40000A14160308000C4B1B68012B10D07047A9
:102B5000FFF7CABF094B0A4900221A705A709A70CF
:102B600003338B42F9D17047FFF796BAFFF79EBF48
:102B7000FFF72ABF3415FF1F38E8FF1F7498FF1FA7
:102B8000DCE7FF1F0E4B10B50E4C1B682370FFF7E0
:102B9000EDFE0D4B1B780BB1FFF7D0FEFEF7ECFB03
:102BA000FFF7C8FF00227821064800F0A7FD217832
:102BB000044800F0CDFC0520BDE8104003F0C2BD84
:102BC000C815FF1F60EBFF1F05EBFF1F2DE9F04746
:102BD000DFF8B0E02A4FDEF80060BC46BA464FF09E
:102BE000000909F00105721C4FEA890851460023CB
:102BF00009E044F808002C33B3F5F26F02F101024A
:102C0000A1F12C0107D00CEB0304501E002DF0D0D5
:102C1000C1F86407EFE709F10109B9F10B0F06F1FB
:102C20002C060AF1040ADCD14FF0000C0CF001056F
:102C3000721CA7F5F26439463B4608E0C3F81C0F46
:102C40002C3BA34202F1010201F12C010BD0501EDA
:102C5000002DF3D02C3BA342C1F8B80702F10102CA
:102C600001F12C01F3D10CF1010CBCF10B0F06F1B9
:102C70002C06A7F10407D9D1CEF80060BDE8F08793
:102C80002022FF1F3498FF1F38B50F21304804F071
:102C900037FF304803F08CFA2F4801F01FF82F4817
:102CA00001F01CF84FF4FA7003F04CFDFDF738FF0B
:102CB00040F6354003F04EFE642003F043FD284803
:102CC000036813F001041FD0264C274927484FF40E
:102CD000F272002300F0D6FB0121204600F0FAFC3E
:102CE0004FF47A7003F02EFD214BE3604CF2503329
:102CF000A360FFF76BFF0F211E4804F001FF15488A
:102D0000BDE8384003F054BA03F004FC0028DBD0DF
:102D10001949164B08685C60FF2201255C619C60C4
:102D20009D741A735A739A73DA731A745A7460B171
:102D3000124A116801B18B6011491360084819608B
:102D400000229A6103F0ECFBBEE70B60F0E700BFE6
:102D50003CA500006C17FF1F3898FF1F6482FF1FFF
:102D6000F021FF1F60EBFF1F7498FF1FF421FF1F6E
:102D70000D3B00004CA5000070EBFF1F80EBFF1F18
:102D8000F0A400002DE9F0430F2185B07E487F4F6D
:102D90007F4CDFF8508200F095FF10217D4800F055
:102DA00091FF3A68C4F800800023637223612372A4
:102DB000E3600AB9E2E01A465369002BFBD1546183
:102DC0000026754D754B72486661A680E680A67236
:102DD000236001F093FA042005F1280233463146BE
:102DE0002E72EE60C5F8008068722A612E4600E0FF
:102DF000326942F823106A7A674801339A42F7DC55
:102E00003A68624B0AB9BBE01A465369002BFBD102
:102E10005561634EDFF8D0C1C6F8008000214FF441
:102E200080304FF0010E06F5A25286F809E00B46FD
:102E300032616961A980E980A9723172F160B64698
:102E4000C5F800C0A861E8612862686201E0DEF8A8
:102E5000102042F82310727A514801339A42F6DC6E
:102E60003A684A4B0AB98DE01A465369002BFBD1E8
:102E7000566141F23C4241F23D430027DFF86C814C
:102E800048494948B754F7543A4601233160C6F8D7
:102E900018044FF480617761B780F780B7724348B8
:102EA000DFF84C9105F04AFE404688E8300088F88B
:102EB000087088F80970C8F80C7088F8107002F073
:102EC000ABFE3B4A3B49404606F026FDDFF8248135
:102ED000C9F80C700123484689F8083089F8093090
:102EE00089E8300089F8107002F096FE304A3149C6
:102EF000314C484606F010FD404688E8600088F8EE
:102F0000087088F80970C8F80C7088F8107002F022
:102F100083FE274A2749404606F0FEFC274B284AF5
:102F20001A6028480A221A7200F046FE04F5A075BD
:102F30002046143400F040FEA542F9D1224800F0AA
:102F40003BFE224B224803F1400102680392039AA0
:102F500043F8042B8B421E4AF7D113680193019D5D
:102F6000136802931B4C1C4B029A1C491C48256099
:102F70001A60FDF777FD05B0BDE8F0833C601FE700
:102F8000186046E7186074E73898FF1F94F0FF1F39
:102F9000A882FF1F6482FF1F94E8FF1FD4AD0000CA
:102FA000C883FF1FACA50000CCA500000C98FF1F34
:102FB0003015FF1F8104000034E9FF1F08EBFF1FDD
:102FC000B8A500001081FF1F20E9FF1F80EAFF1F46
:102FD00040F1FF1F80E8FF1F7883FF1F88A50000D6
:102FE0007082FF1FE4A40000E0AD00002098FF1FE6
:102FF000CC81FF1F8C31FF1F08B5064A064B1279A2
:103000001A7003F07BFB054A054B106000221A7012
:1030100008BD00BF50EBFF1F1F80004034EBFF1FB7
:103020004CEBFF1F10B5044602F028FF204610BDF0
:10303000F0B4064F064E074D074C39809DF810102E
:1030400032602B602170F0BC704700BF3CEBFF1F6B
:1030500038EBFF1F48EBFF1F30EBFF1FF8B5A24B0B
:10306000A24E1C88306804EB4404E4002246002190
:1030700006F06AFF9E4B1868002800F00381224684
:10308000002106F061FF9B4B9B4F9C4DFF221A6075
:103090000121022003F02CFB01210E2003F028FB6C
:1030A0000121072003F024FB0121082003F020FB6D
:1030B0000121062003F01CFB0121142003F018FB62
:1030C0000121152003F014FB0520012103F010FB62
:1030D0008B4B8C4A1B788C49DFF858C203F0F00305
:1030E000102B4FF0080E4FF000030CBF95204A2024
:1030F00013603B600860C2F800E0A1F5DD210CBF61
:103100004FF0230E4FF0110E4FF06902CCF8002063
:103110007E482A60A1F5FC61C7F80CE0DFF808E200
:103120007B4A0CBF6725332505600A60DEF8002066
:10313000784DD371022191717748D1881060156163
:10314000D58B938021F4E06121F00701D360938255
:1031500093612F044FF001039360D18000F19580BB
:10316000B4F5004FA1B2C0F28A80958B6B4FD6F8B0
:1031700000C03B686A4EADB245F008059583002556
:103180000222DD719A71C3F800C0DA88D983D9822E
:103190001E616642DE60DE8B9D8222F4E0629D61EC
:1031A000012522F007029D809D603504DA8000F140
:1031B0008980B4F5004F5FDB9A8B5A4D92B242F092
:1031C00008029A832B684B4A1860022098710020ED
:1031D000D8711A61DA88988022F4E06222F007023E
:1031E000D86098829861D88BDA8001229A600204B4
:1031F0005AD4B4F5004F3CDB9E8B9EF804404A4AFB
:1032000046494848B6B246F008069E839E8B04F1B4
:103210008044B6B204F5043446F002069E830026CC
:10322000B123267023703B7903F1804303F5043307
:103230009E241E701C702B7903F1804303F5043328
:103240009F241E701C7002F035FE2A793748384DD5
:1032500053119B0003F1604302F1100403F5614335
:1032600002F01F02012101FA02F240F824501A6014
:10327000F8BDD983D982BFE7D983D9829CE7D183AE
:10328000D18272E732681A60FDE6B4F5007F28DA71
:10329000D38BA1B203F47E430B43D383D38A03F4CD
:1032A0007E430B43D38260E7B4F5007FA4DADA8B68
:1032B00002F47E420A43DA83DA8A02F47E42114340
:1032C000D98299E7B4F5007FBFF676AFDA8B02F4C6
:1032D0007E420A43DA83DA8A02F47E420A43DA82C1
:1032E0006AE7A1B241E700BF3CEBFF1F38EBFF1FCD
:1032F00048EBFF1FC8F00F4004800B4014800B40C8
:1033000030EBFF1F00800B4008800B4018800B4003
:1033100000030100C4F00F40D415FF1F58EBFF1F3E
:10332000C0F00F4050EBFF1F40EBFF1F0010FF1FCE
:10333000F92F00000C800B40F8B52C4C2378002BA3
:10334000FCD12B4A2B4B11681868814206D02A4BBE
:103350001A8802EB4202D20002F0FAFF274D03F076
:10336000CDF92B68C01AB0F5967FF8D324482549CB
:10337000254A282303600B60136872B610390A6867
:103380009342FCD221490A689342FCD31F48026849
:103390001E499342FBD81E4E1E4D1F4837792E7989
:1033A000174BDFF87CE0174A002505600D6001210E
:1033B00021701A4D28244FF48061CEF800101C6053
:1033C0006921D3F800E02D7919606FF47F6EA3F5C1
:1033D0002F23734414600824D2F800E011601F709A
:1033E0001E701D70046062B6F8BD00BF4CEBFF1F7D
:1033F00048EBFF1F38EBFF1F3CEBFF1F34EBFF1FB9
:103400000C800B4014800B4018800B4004800B4054
:1034100040EBFF1F58EBFF1F00800B4050EBFF1FDE
:10342000A09004402DE9F041DFF85480104D114C7C
:10343000114F124E4046002102F0BAFC2A462146A6
:10344000404606F069FA3846002102F0B1FC2A46EF
:103450002146384606F060FA3046002102F0A8FC0A
:103460002A4621463046BDE8F04106F055BA00BF75
:103470003015FF1F2530000058EBFF1F50EBFF1FDA
:1034800040EBFF1FF8B51E1E03680446CCBF02EBDD
:10349000420500250F469B68D8BF164698477A1903
:1034A000236862605B690A4A6661934201D12046E3
:1034B000F8BD204698470028F9D0064A064B5168C7
:1034C00093FBF0F0884238BF084650602046F8BDB4
:1034D0007104000060EBFF1F40420F00084B10B565
:1034E0001C685CB163680021184623B1626902EB75
:1034F000420206F029FDA468002CF3D110BD00BFE4
:1035000070EBFF1F70B40F4C2268531C8A4283B0CB
:10351000236013DB0C4D0D4A2968019101992D6838
:1035200000951668009D15604FF47A720025891B7E
:1035300002FB03F32560B3FBF1F3438003B070BCDF
:10354000704700BF74EBFF1F40F1FF1F7CEBFF1FB4
:103550002DE9F04F43682D4C83B006468946002B79
:103560004BD103F0CBF8F36820601BB14846B1683B
:1035700098478146264B1C680025002C36D073885E
:10358000A77C61686269632B236898BFA574D3F830
:1035900004808DF804508DF805508DF80650B9F16F
:1035A000000F1CD004F10B030DF1040E04F10E0CFE
:1035B00013F801BFBBF1000F0DD093F803A00AF17F
:1035C00001000BFB0000BAF1000F04D009FB00F072
:1035D000000C8EF8000063450EF1010EE8D1204684
:1035E00001ABC047A774A468002CC8D1304619218C
:1035F000FFF788FF03B0BDE8F08F03F07FF8226883
:103600007368801A9842AAD3ABE700BF78EBFF1F1C
:1036100070EBFF1F2DE9F04F43682C4C83B006463A
:103620008A469146002B49D103F068F8F368206080
:103630001BB14846B16898478146254B1C68002558
:10364000002C34D07388A77C6269632B236898BFF1
:10365000A574D3F800808DF804508DF805508DF8CE
:103660000650B9F1000F1AD004F10B0301A804F1C0
:103670000E0E13F801BFBBF1000F0CD093F803C07E
:103680000CF101010BFB0111BCF1000F03D009FB90
:1036900001F1090C0170734500F10100E9D12046E8
:1036A00001AB5146C047A774A468002CCAD130466C
:1036B0001921FFF727FF03B0BDE8F08F03F01EF8D4
:1036C00022687368801A9842ACD3ADE778EBFF1F8D
:1036D00070EBFF1F10B5044682B051B100231A46AB
:1036E00001A98DF804308DF805308DF80630FFF70C
:1036F00091FF2046FFF7F2FE02B010BD4AB151B172
:103700004268084B93FBF1F1914238BF114641608A
:10371000704709B941607047024B93FBF1F141607A
:10372000704700BF40420F0000207047044B00224A
:10373000FF204FF0FF31187099605A80DA607047AF
:1037400060EBFF1F2DE9F04F8B42099E52D396F894
:1037500000E01578777896F80280547892F802C0E5
:10376000C1EB030BC5EB0E0EC4EB070ACCEB08064E
:103770001FFA8BF24FEACE1E4FEACA1AF601B2B315
:103780000FFA82FB9EFBFBFE9AFBFBFA4FEA4E0E02
:103790004FEA4A0A96FBFBFB99424FEA4B0B1FFA92
:1037A0008EFE1FFA8AFA1FFA8BFB4FEA05254FEAB5
:1037B00004244FEA0C2218D801EB41070131C61945
:1037C00089B24FEA25294FEA24284FEA222C754472
:1037D00054445A448B4200F80790ADB286F80180F9
:1037E000A4B286F802C092B2E6D2BDE8F08F4FF0E4
:1037F000010BC7E78946357892F800E0747857786E
:1038000096F802C092F802801570194686F800E01A
:103810004B465470777082F802C086F802809FE7AA
:1038200022B3FF2A23D0F0B404780E78437895B2FF
:10383000A719D24306FB0576D2B204FB0264C4F397
:10384000072404704C7886781F1904FB057403FB69
:103850000243C3F3072343708B78F11803FB05156C
:1038600006FB0252F0BCC2F30722827070470B784D
:1038700003704B7843708B78837070472DE9F04369
:10388000141104EB440512F00F020D449DF81C6066
:1038900000D0E6B92C786978AA78FF2B12D0002BDB
:1038A00043D00133DBB21CB103FB0444C4F307244F
:1038B00019B103FB0111C1F307211AB103FB022265
:1038C000C2F30722047041708270BDE8F0830F2CB0
:1038D0002E7895F80190AF7800D0E91C120182F0A3
:1038E000FF056C1C91F800C091F801E091F802808E
:1038F00004FB06F6511C04FB09F504FB07F4C4F3B2
:103900000724C6F3072701FB08F201FB0CF6C5F3F9
:10391000072501FB0EFE04EB222207EB262605EB12
:103920002E21F4B2C9B2D2B2B7E71A4619461C46E4
:10393000047041708270BDE8F08300BFF0B4047879
:1039400046788278E00000F0F80000EB800303EB9B
:10395000031303442506C3F307235FD404F0400593
:1039600005F0FF0704F02004002D46D104F0FF000D
:10397000002C6CD05533DDB2AB243B46FF2E1CD05F
:10398000002E79D01CB106FB0444C4F307241DB1FA
:1039900006FB0555C5F307251BB106FB0333C3F32F
:1039A0000723F043C0B200FB0000C0F3072004442B
:1039B00005440344E4B2EDB2DBB2FF2A18D012FB97
:1039C00002F0003218BF012202EB102212F0FF02B7
:1039D00056D01CB102FB0444C4F307241DB102FB02
:1039E0000555C5F307251BB102FB0333C3F30723BA
:1039F0000C704D708B70F0BC704704F0FF075CBB1F
:103A000000EBC00400EB440000EBC0000412563B86
:103A1000C4F1AB04DDB2E4B23B46AFE704F04007CB
:103A200007F0FF05E7B904F0200707F0FF04002FB7
:103A300036D100EBC00300EB430000EBC000C0F345
:103A40000720C0F1AB055530EDB2C3B296E7DC43B9
:103A5000E4B21D46034691E70024DD43EDB28DE755
:103A600004F0200404F0FF0594B903F15504E4B216
:103A7000C3F1AB03DBB281E7FF231D461C469CE785
:103A80001546144613460C704D708B70F0BC704791
:103A9000A3F15604E4B20025C3F15503DBB26DE790
:103AA000D8431C46C3B269E7F0B561B301F1FF3EEC
:103AB0001FFA8EFE0EEB4E0E00220EF1060E86440D
:103AC000C31C1546144613F8037C13F8020C13F8B4
:103AD000016C033373453C4405443244F3D104EB99
:103AE000840402EB8202C5EBC500C4F31713C2EBDA
:103AF0000212C5EBC004120A03EB142401EB81018E
:103B000010190844F0BD0C460A46F7E72DE9F043CA
:103B1000254B1C6885B0074688469CB1DFF8949019
:103B20007D2507E0606981B23046FFF7BDFFA468DC
:103B3000054444B194E848001B694B45F2D0204647
:103B40009847F0E77D2505FB07F52D0A174B4545FE
:103B50001B7810D223B3164A012152F833208DF876
:103B60000C109DF80C101378384623EA01031370EB
:103B700005B0BDE8F08308FB07F7B7FBF5F0C7B267
:103B800073B10B4A012152F833208DF80C109DF8C7
:103B90000C10137838460B43137005B0BDE8F08362
:103BA000384605B0BDE8F08370EBFF1F84EBFF1FC4
:103BB0005CAF00006D040000002200210160426043
:103BC0008260C2600261704700230022026043608D
:103BD0008360C36003617047026862B9D0ED017A07
:103BE00080ED020A77EE807A012380ED030AC0EDB2
:103BF000017A03607047D0ED027AB4EEE70AF1EE85
:103C000010FA2BD4D0ED037AB4EEE70AF1EE10FAF5
:103C1000C8BF80ED030A90ED016A531C30EE066ABE
:103C2000012B80ED016A036017D907EE903AF8EE98
:103C3000677A07EE102AC6EE276AB8EE477A36EEA4
:103C4000C00A90ED046A67EE807A67EE807AC7EE6C
:103C5000876A76EE267AC0ED047A704780ED020A14
:103C6000D9E700BF036843B107EE903A90ED017ABF
:103C7000F8EE677A87EE270A70479FED010A7047D2
:103C80000000C07F08B5036813B99FED0D0A08BD99
:103C900007EE903A90ED047AF8EE677AC7EE276A5D
:103CA00016EE900A05F0BCFA41EC100B05F022F874
:103CB00051EC100B05F0E0FD00EE100A08BD00BF4E
:103CC0000000C07F30B464250124002245800471C7
:103CD00001704271826030BC704700BF00780221E1
:103CE00002F006BD30B5104D82682B6883B000939A
:103CF000009B9A4203D90379184603B030BD0446AD
:103D0000007802F0E7FC23799842F5D02A68019206
:103D10006188019A83F001030A4418460121237146
:103D2000A260617103B030BD40F1FF1F10B50446C1
:103D3000FFF7D8FF20B9637903B16071184610BD51
:103D40000023184610BD00BFF8B50021054601F05C
:103D500035FF002800F0D08041F23C43EB5C072B9C
:103D600000F2CA80DFE803F0C9D0D7DEE5ECF30447
:103D7000D5F81C74C5F8380405F587643B1D224648
:103D800007F5827705F23C4133F8026B42F8046F85
:103D90009F42F9D1D5F8207405F5C7623B1D07F5A0
:103DA000827733F8026B42F8046F9F42F9D1D5F85D
:103DB000247405F638023B1D07F5827733F8026B51
:103DC00042F8046F9F42F9D1D5F8287405F63822DD
:103DD0003B1D07F5827733F8026B42F8046F9F4270
:103DE000F9D1D5F82C7405F638423B1D07F58277DA
:103DF00033F8026B42F8046F9F42F9D1D5F8307462
:103E000005F638623B1D07F5827733F8026B42F8FE
:103E1000046F9F42F9D1D5F8347405F581523B1DEA
:103E2000183207F5827733F8026B42F8046F9F422D
:103E3000F9D105F59152031D183200F5827033F85F
:103E4000026B42F8046F8342F9D1D5F8180480B1AF
:103E500005F5886200F5006732F9043C30F9026B21
:103E600003FB06F3DB13874222F8043C02F1040251
:103E7000F2D105F5A2500430384E04F041FE05F2AF
:103E8000164705F1160054F8041F21FB01F1B1FAA1
:103E900081F336F81320B1FBF2F31A445308B1FB57
:103EA000F3F10B445B0820F8023FB842EBD141F23A
:103EB0003D430122EA54D5F81C0401F03BFED5F83D
:103EC000200401F037FED5F8240401F033FED5F8C4
:103ED000280401F02FFE41F23C430422EA5405F588
:103EE00086610EC9D5F82C04C5F81C04C5F8201449
:103EF000C5F82424C5F82834F8BD41F23C4301221A
:103F0000C5F81C04EA54F8BD41F23C430222C5F84E
:103F10002004EA54F8BD41F23C430322C5F82404CE
:103F2000EA54F8BD41F23C430422C5F82804EA549F
:103F3000F8BD41F23C430522C5F82C04EA54F8BD13
:103F400041F23C430622C5F83004EA54F8BD41F280
:103F50003C430722C5F83404EA54F8BDE4AD000040
:103F60000020704700207047F8B5144C037A2429CC
:103F700008BFC2805B0001250E462046C1F3072121
:103F8000174684F83B3084F85E5084F85D5001F0A9
:103F90003FFBF1B2204601F03BFBC7F3072120466F
:103FA00001F036FBF9B2204601F032FB29462046EB
:103FB00001F09AFCB0FA80F04009F8BD8816FF1FA6
:103FC00070B5012604460671344801F035FB052022
:103FD00002F0B8FB204644F260023021FFF7C4FF34
:103FE0000546002858D06C2226212046FFF7BCFF4A
:103FF0004FF4F97228212046FFF7B6FF40F62272EF
:104000002C212046FFF7B0FF44F246423C212046D7
:10401000FFF7AAFF40F2371224212046FFF7A4FF42
:1040200044F2FF0230212046FFF79EFF7322022157
:104030002046FFF799FF4FF4C87002F083FB41F66A
:104040001D522E212046FFF78FFF042211462046E5
:10405000FFF78AFF4FF4987206212046FFF784FF8E
:1040600010220A212046FFF77FFF00220E21204662
:10407000FFF77AFF43F63C4210212046FFF774FF1A
:1040800047F67F7222212046FFF76EFF3622242159
:104090002046FFF769FF6672284670BD8816FF1F2D
:1040A00010B5044619B1012911D0002010BD5522C8
:1040B0002021FFF759FF0028F7D0E28842F00402E0
:1040C000204692B22421BDE81040FFF74DBF40F2D8
:1040D00073122A21FFF748FF0028E6D0882220210A
:1040E0002046FFF741FF0028DFD0E288204622F07B
:1040F00004022421BDE81040FFF736BF38B505465D
:10410000F1B1802903799ABFC1F1800444EA042403
:10411000002433B9224628462221BDE83840FFF763
:1041200023BFC288002322F0100203712421FFF76D
:104130001BFF224628462221BDE83840FFF714BF66
:104140000123037147F67F722221FFF70DFFEA88F2
:1041500042F01002284692B22421BDE83840FFF711
:1041600003BF00BF9FED057ADFED057AE0EE077A29
:10417000FCEEE77A17EE901AFFF7C0BF000001438C
:10418000EE7CFF3E024A0349034805F0C5BB00BF71
:104190003015FF1F2530000088EBFF1F38B5074D95
:1041A000074C08482A46214605F0B6FB2A46214618
:1041B0000548BDE8384005F0AFBB00BF3015FF1F14
:1041C0002530000090EBFF1F98EBFF1F1A4A1B4B96
:1041D00011681B48096970B499421279027008D2BB
:1041E000184A12782AB3184A0121116003F5807425
:1041F00002E01C46A3F58073144A154912680D6845
:10420000AAB1A5B1134E3088402810D841000A4405
:104210004030294402320231308033F9040B22F855
:10422000020F9C4233F9020C21F8020FF5D870BC42
:10423000704703F58074DFE7ACEDFF1FA4ECFF1FB0
:104240001F800040A4EDFF1F08E200E0B4EDFF1F57
:10425000A8EDFF1FA0EBFF1FF8B5064601F016FC06
:104260000446E8B101F012FC054600283AD072B6C7
:104270001F4B1A887F2A19D8002C31D01D490A6893
:1042800042B162B6204601F055FC2846BDE8F84030
:1042900001F050BC18480C601A80056062B6F8BD89
:1042A000054672B6124B1A887F2AE5D9114A12497F
:1042B0001768146000220C681A800D6062B63946D7
:1042C000304601F061FC384601F034FC30462146AE
:1042D000012201F059FC2046BDE8F84001F02ABC5B
:1042E00062B6F8BD204601F025FC2C46BFE700BFB2
:1042F000A0EBFF1FB4EDFF1FA8EDFF1FF8B5284C82
:10430000284E294F294D2046012101F051FD00F092
:104310002BF9274B274A28484FF4806119602368FE
:1043200000211A60998022791E6102F1804240F2D8
:104330000116DE809F6102F504324FF48076062775
:10434000DE82DE839F8302268C27D9609E609E8258
:10435000117017702B68194E43F0124343F001039C
:104360002B600368164D43F01043036001F0C6FC58
:104370002279144B144C187053119B0003F16043C5
:10438000174602F1100003F5614302F01F020121FC
:10439000377001FA02F245F820401A60F8BD00BFFC
:1043A000ACEDFF1FA4EBFF1F00FEFFFF80F00240FB
:1043B00014B00440A2F0024000F002401B80004014
:1043C0000010FF1FA4EDFF1FCD410000024A03496A
:1043D000034805F0A1BA00BF3015FF1F25300000CB
:1043E000ACEDFF1F024A0349034805F095BA00BF30
:1043F0003015FF1F25300000B8EDFF1F024A0349AA
:10440000034805F089BA00BF3015FF1F25300000B2
:10441000C0EDFF1F024A0349034805F07DBA00BF03
:104420003015FF1F25300000C8EDFF1F2DE9F843B0
:104430004FF00008064600F1180547464146304651
:10444000002F4FD001F0BAFBF0B12C68B4F5803FDB
:1044500007F1040100F1040E07F5827C27D05EF815
:10446000042B34FB02F334FB12F903F30F0209F3BC
:104470000F03C2EA03430A6893FA12F341F8043BBC
:104480008C45ECD801F056FB08F10108B8F1040F97
:1044900005F10405D2D1002F40D030463946002224
:1044A00001F072FB3846BDE8F84301F043BB07F169
:1044B0000C0100F10C0451F8083C54F8082C93FA54
:1044C00012F341F8083C54F8042C51F8043C93FAD8
:1044D00012F38C4541F8043C04F1080401F1080191
:1044E000E9D8CFE701F076FB07460028CCD0286852
:1044F000B0F5803FC8D0391D07F582740B6830FBDA
:1045000003F230FB13F302F30F0203F30F03C2EACB
:10451000034341F8043B8C42F0D8B5E7BDE8F8838B
:10452000024A0349034805F0F7B900BF3015FF1FE1
:1045300025300000D0EDFF1F024A0349034805F073
:10454000EBB900BF3015FF1F25300000D8EDFF1F6D
:10455000024A0349034805F0DFB900BF3015FF1FC9
:1045600025300000E0EDFF1F284B29491A68294833
:1045700042F400421A600A6842F002020A601A68B5
:1045800042F002021A600368002B3EDB224B1B68DC
:10459000002B3ADB214A4FF0804313601368002B55
:1045A000FCDBF0B51E4C1F48DFF8A8E01E491F4B8E
:1045B0001F4A204F204E214D4FF2FE0CC4F800C080
:1045C000002404600120CEF80000DFF88CE0C1F880
:1045D00000E04FF480311960194B1360DFF87CE084
:1045E000184A3A603460286000F18E40CEF800002E
:1045F000154CB9671548164946F8503C4FF4C0634E
:104600002A61236003600B60F0BD70473C8004406A
:104610004080044000F0024080F0024000F102407F
:1046200004F1024060F0024008F002400CF0024049
:1046300010F0024014F00240E0F0024084F002402A
:104640001B1F0100001F1F1F08B004400CB00440D6
:1046500018B0044004F002400100000788F0024056
:10466000024A0349034805F057B900BF3015FF1F40
:1046700025300000E8EDFF1F024A0349034805F01A
:104680004BB900BF3015FF1F25300000F0EDFF1FB4
:10469000024A0349034805F03FB900BF3015FF1F28
:1046A00025300000F8EDFF1F024A0349034805F0DA
:1046B00033B900BF3015FF1F2530000000EEFF1F8B
:1046C000024A0349034805F027B900BF3015FF1F10
:1046D0002530000008EEFF1F024A0349034805F099
:1046E0001BB900BF3015FF1F2530000010EEFF1F63
:1046F00010B4047F4160022CC26003D05DF8044B0B
:1047000001F054BC83685DF8044B1847F0B4464B85
:10471000464A986B5C6B01791170454922790A70A1
:104720001A6B00790870002A46D05968C9688A4215
:104730003ED82168CC8B240402F1FF3065D4C0F34D
:104740000E00C883C88B80B2C882996B0968C88B79
:10475000000452D4C2F30E00C883C88B002480B278
:1047600012F1FF32C88218BF01221C63596B2E4818
:1047700009680D6800F12C04A54236D00068C468B1
:1047800014F0804F0C680D6815BF2488247802351A
:10479000013544F000440D604463996B254B097961
:1047A0001970214912B14A6B12791A70F0BC704726
:1047B000521A1A630122D9E7D86B196805681E4C92
:1047C0000A63CC62CC682D681C4E24F08044032719
:1047D000B542CC6083F82D701FD1037F4260022B5D
:1047E000C2601ED0F0BC01F0E1BB016890F82C0063
:1047F000CC6840F000404863CFE7CC8BC2F30800A0
:1048000004F47E442043C883A7E7CC8BC0F30800A0
:1048100004F47E442043C88394E72B461146F0BC41
:1048200018478368F0BC1847D815FF1F1F80004049
:104830001C8000401B80004000000FFFF14600007C
:1048400000207047704700BF064B074ADA6202211A
:10485000002259609A7083F8242083F8302083F86E
:104860003220704718EEFF1FC4AE00002049214AD5
:104870000B6843F080030B6011461368DB07FCD420
:104880000B689B07F9D41C4B30B44FF08072184D65
:10489000186000E0A2B12968184B154C0B40013A92
:1048A000002BF7D062B1012B0AD1236813F0800FDF
:1048B00023680FD043F001132360032030BC7047FE
:1048C0000B4A136843F4702343F001031360012083
:1048D00030BC704713F48030236804D043F00113D8
:1048E00023600520F4E743F001032360F0E700BFF5
:1048F00030100B4024100B400C100B4001000E0038
:1049000070B50D4D0D480E4E00232B60FFF7AEFF26
:1049100040F2E73403463268520701D507480BB12D
:10492000184670BD2B60FFF7A1FF013C0346F2D192
:10493000002808BF052070BD08100B400000DB0CEC
:1049400024100B40F8B5384B1A780AB10320F8BD93
:104950005B78064603B94902344D354C354B364831
:104960004FF6FF774FF481322F6021601A60FFF716
:104970007DFF0028EBD1314B31491B681C3406F117
:10498000400206F510702B68284F43F0200613F400
:10499000E00F2E603ED123681E05FCD50B6842F85F
:1049A000403C0B6842F83C3C0B6842F8383C0B68D2
:1049B00042F8343C0B6842F8303C0B6842F82C3C1F
:1049C0000B6842F8283C0B6842F8243C0B6842F81C
:1049D000203C0B6842F81C3C0B6842F8183C0B6802
:1049E00042F8143C0B6842F8103C0B6842F80C3C4F
:1049F0000B6842F8083C0B6842F8043C40328242A3
:104A0000C1D1002009490B68084A9B07FBD50D4B13
:104A10001360F8BD43F4E00343F020033B60FFF76D
:104A20006FFF0120EEE700BF6CEEFF1F30100B4060
:104A300008100B4004100B4010003A1110100B40EE
:104A400020100B4022000001F8B52B4B1A780AB158
:104A50000320F8BD5B78044603B94902274D284876
:104A60002A68284B2A604FF48132016026481A6078
:104A7000FFF7FCFE0028ECD1244B254E1B6829468D
:104A800004F500770B681D4AD806FBD52B6813F494
:104A9000E00F1AD104F1400254F8043B3360A24203
:104AA000FAD10B68DFF854E043F010030B600B6899
:104AB00013F4E00013D19742E4D110490B680F4A78
:104AC0009B07FBD5134B1360F8BD136843F4E00359
:104AD00043F010031360FFF713FF0120EDE7DEF84A
:104AE000003043F4E00343F01003CEF80030FFF74A
:104AF00007FF0120E1E700BF6CEEFF1F30100B4005
:104B000008100B4004100B4000003A1810100B4026
:104B100020100B401200000110B50121007801F0B7
:104B2000D3FD114A1378C3B11049CB7A002418463B
:104B3000147093B1DA0703D50D4AC869106018469E
:104B40009C0703D50B4B0A6AC87A1A60420705D442
:104B5000030702D5084B8A6A1A6010BD074B4A6AE0
:104B6000C87A1A60F4E700BF80EEFF1FD815FF1F58
:104B700000E100E004E100E00CE100E008E100E019
:104B8000234B1A781AB10078002101F09DBD70B452
:104B9000204A2149D47A096801251D70002C26D0AD
:104BA00072B6D47AE607234606D51C4DD3682E6824
:104BB0003340D3612B602346A50706D5184D1469F1
:104BC0002E68D37A344014622C605C0706D5154DEC
:104BD00054692E68D37A344054622C601B0705D583
:104BE000114C936925682B409362236062B6136869
:104BF000DA688A4207D00D4C1C600D4AD96041F03A
:104C000080441C611A600078002170BC01F05CBD1A
:104C100080EEFF1FD815FF1F7CEEFF1F80E100E034
:104C200084E100E088E100E08CE100E001403F0029
:104C300000003F80F0B41248124A036882B0164662
:104C40000093009F4FF00045FF24136843F48063F6
:104C50001360D5625463D36A002BFCDAB36BDBB20A
:104C6000FF2B09D003680193019BDB1B8B42ECD324
:104C7000002002B0F0BC7047012002B0F0BC7047C9
:104C800040F1FF1F00C00240F8B50D464FF4967189
:104C900016460446FFF7CEFF284B1A684FF0004037
:104CA00042F4806245F040011A60D8621A465963A6
:104CB000D36A002BFCDA214918204FF000470A681C
:104CC00026FA00F342F48062DBB20A60CF624B63E3
:104CD000CB6A002BFCDA083810F1080FEFD155B37E
:104CE000082D0CBF8721FF21144B1A684FF000409C
:104CF00042F480621A60D8621A465963D36A002B64
:104D0000FCDA0E4A002716464FF00045FF211368D3
:104D100043F480631360D5625163D36A002BFCDADD
:104D2000B36BD8B21B06607000D4F8BD0137B7F57D
:104D3000807FECD1F8BD9521D6E700BF00C00240CE
:104D4000F0B41549154A0B6882B016460093009FCF
:104D50004FF00045FF24136843F480631360D5626D
:104D60005463D36A002BFCDAB36BDBB2FF2B4370C6
:104D70000AD10B680193019BDB1BB3F5967FEAD93F
:104D8000002002B0F0BC7047A3F1FE00B0FA80F042
:104D9000400902B0F0BC704740F1FF1F00C0024064
:104DA000F8B58378032B0E46044618BF4E0215460D
:104DB000FFF7E6FE324611212046FFF765FF18B9DE
:104DC0002046FFF7BDFF20B92046FFF7A5FE0020D3
:104DD000F8BD204B2049214A1A608E4659631A4675
:104DE00059631E46596305F5FD70A91C05F5FE774C
:104DF000D36A13F0F00FFBD0C6F834E0B36B01F8C0
:104E0000013C1B1201F8023C02318F42F0D105F542
:104E10000075A8420DD20F4A1646D36A13F0F00F60
:104E2000FBD0B36B191200F8021BA84200F8013C3A
:104E3000F3D3084B0949084A196019465A63CB6AEB
:104E4000044A13F0F00FFAD02046936BFFF764FE8C
:104E50000120F8BD00C00240FFFF009000041F8049
:104E6000F0B4314E33684FF0004743F48063336051
:104E70003D46F762344671633346511C02F2012706
:104E8000E26A002AFCDA1A6811F8016C42F48062C6
:104E90001A60DD625E63E26A002AFCDA1A6811F8C1
:104EA000026B42F480628F421A60DD625E63E7D17A
:104EB0001D49CA6A1C4B002AFBDA1A684FF00045EC
:104EC00042F48062FF241A601946DD625C63CB6A9B
:104ED000154A002BFBDA13684FF0004543F480635A
:104EE000FF2413601146D5625463CB6A0E4A002B2F
:104EF000FBDA13684FF0004543F48063FF2413602E
:104F00001146D5625463CB6A074A002BFBDA936BD8
:104F1000DBB203F01F024370A2F10500B0FA80F08B
:104F20004009F0BC704700BF00C0024070B50446A5
:104F300071B18378032B0D4618BF4D021646FFF75B
:104F40001FFE2A4618212046FFF79EFE054620B187
:104F50002046FFF7E1FD002070BD3246FE212046CD
:104F6000FFF77EFF0028F3D04FF416712046FFF7BD
:104F700061FE0028ECD02A460D212046FFF784FE72
:104F80000028E5D10B4B1A684FF0004542F48062CF
:104F9000FF201A601946DD625863CB6A054A002B70
:104FA000FBDA936B13F0FF0FD2D12046FFF7B4FD6D
:104FB000012070BD00C00240014B024A1A607047D8
:104FC0007CEEFF1F0320003838B590F90530002B28
:104FD00003DBBDE8384000F079B9044601210069DF
:104FE00000F0B4F9F8B1257D104B13EB45151AD03C
:104FF000A3790F4A012B9CBFA369EB61E369126897
:105000006B831B0CAB8232B105F1160105F1180060
:1050100090472B8B6B82637903F07F036371BDE84C
:10502000384000F053B9002038BD00BF90EEFF1F9C
:1050300084EEFF1F10B500F1080204460121006A4A
:1050400000F02CFA50B1E3693BB96379A268E261E0
:1050500063F07F036371012010BD012010BD00BF0C
:10506000F8B5837913B182698A4201D20020F8BD74
:10507000022B0F4605461AD007B32B6AE9681C7C41
:105080004A1E04F109037C1EDA40DC40A24211D919
:10509000EB69AB6005F1080606E0A968286A00F034
:1050A000C5F9013C0028E1D03246002CF5D1EF6073
:1050B0000120F8BD0029EBD0A41AEBE7AF60EF6048
:1050C0000120F8BD2DE9F04F8B46817985B001298B
:1050D0000746019205D001233B71002005B0BDE8D1
:1050E000F08F42799107F6D5530708D5FC68B96966
:1050F0008C4200F0B480FFF7B3FF0028EBD0019B97
:10510000FC68002B4AD0DFF8A491DFF8A4A1DDF8F9
:105110000480386A0679013E06EA542616F0FF0636
:10512000C4F3080443D1002C41D1B968002973D1DC
:10513000FA69002A00F08380BA60C4F50075ADB248
:1051400045453AD9057C4169023AAA400E441644C5
:105150001FFA88F51CB9F868BA6990424FD23046F8
:10516000012100F0F3F80028B5D04C4404EB050E03
:1051700074450DD00BF1FF31621E0EF1FF3611F8B0
:10518000010F02F8010F9642F9D1C4EB0E04A344BB
:10519000FC68B8EB05082C44FC60BAD1BB69A3429B
:1051A00062D27A79BC6142F080027A7165E0C4F51E
:1051B0000075ADB24545BA68C4D8017C4069023A71
:1051C0008A400644B5F5007F1644C3D1DAF80020C2
:1051D000964204BF4FF0FF32CAF800202F4A1068F1
:1051E0000278FE2A314633D05A46FFF79FFE002848
:1051F0003FF471AF0BF5007B4FF40075C8E700F08A
:1052000065F800283FF467AF2549CAF800600A78BE
:1052100042F001020A70A8E703AA00F007F900288B
:105220003FF45CAF386A1F4B90F82050039A4FF65A
:10523000F871102D18BF19468A42FFF47DAF384629
:10524000FFF7F8FE00283FF446AF386ABA6874E703
:105250005846FFF7F9FBB0FA80F04009C7E7019B19
:10526000002B7FF450AF08E00F4B7A791B6823B115
:10527000019B13B142F080027A71120709D5BB7904
:10528000002B3FF428AF3846FFF79EFE00283FF47E
:1052900022AF019805B0BDE8F08F00BF8CEEFF1F74
:1052A00090F0FF1FF8FFFF0F84EEFF1F90EEFF1F2F
:1052B0001816FF1F00B583B002AB012203F8011DD1
:1052C0001946FFF7FFFE03B05DF804FB70B51A4CFA
:1052D00023780BB9012070BD184D194B2868196847
:1052E0000378FE2B17D0174AFFF720FE88B1164E21
:1052F000316819B900232370012070BD2868037834
:10530000FE2B0FD00F4AFFF711FE10B100233360C0
:10531000F0E7002070BD0B48FFF796FBB0FA80F075
:105320004009E3E70748FFF78FFBB0FA80F0400938
:105330000028EBD1EDE700BF90F0FF1F8CEEFF1FC0
:105340001816FF1F90EEFF1F88EEFF1F70B5124D5D
:105350002B6883420E4611D00446FFF7B7FF08B909
:10536000002070BD0D4B18680378FE2B0CD00C4A42
:105370002146FFF715FD0028F2D02C60094B197863
:1053800031431970012070BD21460548FFF7DAFA54
:10539000B0FA80F04009EEE71816FF1F8CEEFF1FF1
:1053A00090EEFF1F90F0FF1FF8B590F82030C46911
:1053B000102B1A4B05460E4617461B6816D004EBF9
:1053C000D1149C4216D106F07F06154A42F8267089
:1053D0001449287E0A78012842F001020A7018D97F
:1053E000A968114A0B4413600120F8BD04EB112495
:1053F0009C4208D000212046FFF7A8FF50B195F845
:105400002030102B07D1F6B2054A234622F8167039
:10541000DEE70120F8BD2346D5E700BF1816FF1FC1
:1054200090EEFF1F90F0FF1F88EEFF1FC36801334F
:105430008B4218D370B590F82030102B154B0446D2
:1054400016460D46C0691B680FD000EBD11098427C
:105450000FD105F07F01104B53F8213023F070433A
:105460003360012070BD0020704700EB112098428E
:1054700007D00021FFF76AFF50B194F82030102BBD
:10548000E7D1E9B2044B33F811303360012070BD2D
:10549000002070BD1816FF1F90EEFF1F2DE9F04F82
:1054A000176883B06FB301374FF0000AC36803F188
:1054B000010813B38B46064691463C46002505E09D
:1054C0001C461F46F3680135AB4216D9A04538BFCC
:1054D0000224214601AA304638BF2746FFF7A6FF1F
:1054E000631CD91B48B1019A002AE9D18B4510D021
:1054F0001C46F3680135AB42E8D8002003B0BDE894
:10550000F08FA1F1010ABAFA8AFA07684FEA5A1A2B
:10551000CCE7012CF1D9F36801339C42EDD86FF050
:10552000704221463046FFF73FFF0028E5D0A742F2
:1055300014D2013C012CE0D9F36801339C42DCD841
:10554000621C21463046FFF72FFF0028D5D0A74226
:1055500004F1FF3402D0012CEED1CEE7D9F80010CF
:1055600059B10129C9D9F36801339942C5D83A46DE
:105570003046FFF719FF0028BFD0C9F80070BAF114
:10558000000F01D0013737600120B7E790F83920CC
:1055900090F83800101A704790F8383090F8392099
:1055A0009A4205D95A1C034480F83820187E704767
:1055B0004FF0FF30704700BF90F8383090F8392036
:1055C0009A4286BF1B18187E4FF0FF30704700BF0D
:1055D000704700BF38B50546B0F85E0090B195F849
:1055E0005D301446C3F1210294420CD805F13B0012
:1055F0001844224600F0ACFE95F85D30234485F84F
:105600005D30204638BD012014462871EEE700BF0A
:10561000B0F85E306BB190F85D30202B07D8C2181F
:10562000013380F85D30012082F83B107047012380
:1056300003710020704700BF0023426980F83830B2
:1056400080F8393080F85C3080F85D3080F85E306A
:1056500080F85F3006CA30B40D68046943662A4397
:1056600083660A60A370426990F861301649146835
:1056700013441D7A5B7B01EBC5051B026D6803F4C7
:10568000E06343F064032B6090F8623013449D7C28
:10569000DB7D01EBC5011B02496803F4E06343F0C5
:1056A00064030B6021685368194205D003692C22FA
:1056B0005A70036904229A71036920225A7103699E
:1056C00080229A7030BC70475CAF000038B5026928
:1056D000D478E4B2E106054624D51023D3706306DE
:1056E0001FD504F0040404F0FF03002C5AD04249F3
:1056F0006A6E00230B7085F85D30002A66D09047F3
:1057000095F85D30002B61D02B69D0229A702B69FF
:1057100095F83B201A712B69012285F85C20022242
:10572000DA7038BD04F0400303F0FF00002BD8D13D
:105730009379DBB203F0600160294ED0937803F0D7
:10574000100303F0FF01B3B114F0010437D195F851
:105750005C3095F85D1099424BD9591C2B4485F863
:105760005C1093F83B3013712B69D0229A702B692F
:105770000222DA70D5E785F86010937943F02003B0
:1057800093712B6995F839101A791F29D2B2C6D8AE
:10579000194800780028C2D06818013185F83910FE
:1057A0000276BCE72A6985F83930C02393702B69EB
:1057B000114A1979012111700222DA70B1E7C02370
:1057C00093702B691A790222DA70AAE7012200236A
:1057D00085F85D2085F83B3096E703F0DF03937191
:1057E000AB6E23B185F8380095F8390098472A69DF
:1057F000A4E71471B8E700BF91F0FF1F2DE9F0474F
:10580000374FDFF8E0903B68026982B006460093AC
:10581000DDF8008000214FF49675D3789B065BD5A8
:105820003B680193019BC8EB03030F2BF5D949B1EA
:10583000102BF2D000209070336980229A7002B051
:10584000BDE8F087726996F8613013440521187A33
:1058500000F04EFF726996F861301344012193F80D
:1058600012A0504600F044FF09240021504600F0E9
:105870002BFF2B46013BFDD10121504600F024FFB8
:105880002B46013BFDD1013CEFD1706996F86110C8
:1058900001444FF416720C7A4B7B09EBC4011B02D6
:1058A000496803F4E06343F064030B6096F86230E8
:1058B0000344997CDB7D09EBC1011B02496803F4B9
:1058C000E06343F064030B60013AFDD13269D378A1
:1058D0009B064FF00101A3D4012002B0BDE8F08780
:1058E00040F1FF1F5CAF0000F0B503691222DA70CF
:1058F0000269937803F0200385B004460D46002B1F
:105900005ED0B42393703C4922690B680093009EDB
:1059100005E00B680193019B9B1B042B42D8D378B5
:1059200003F0200303F0FF00002BF2D094F85D3069
:10593000002B31D04FF0000E4FF0020C04EB0E03A1
:1059400093F83B3013710B680393039F206907E0C2
:105950009B060DD50B680293029BDB1B052B28D8F9
:10596000C378DBB203F0020202F0FF06002AEFD098
:1059700080F803C02669F378DBB2DF0632462DD407
:105980009F062BD5DB0731D40EF1010E94F85D3064
:105990005FFA8EFE7345D1D800201DBB002384F82A
:1059A0005E3004E09070236980229A70042005B074
:1059B000F0BD86702369802204209A7005B0F0BD86
:1059C00003F0FF06FFF71AFF10B9042005B0F0BD81
:1059D000236984F85F60B0229A7094E78023B370E3
:1059E0000420DAE726698023B370D7E7BEF1000F01
:1059F0000CBF02200320F6E740F1FF1F0148FFF72C
:105A000065BE00BF8816FF1F0148FFF75FBE00BFDD
:105A1000F416FF1F0148FFF759BE00BF1C16FF1FF9
:105A2000B1F5607FF0B428BF4FF4607172B6134ACD
:105A3000134C144B10600022228003F1700443F8D1
:105A4000042FA342FBD1B1B10F4E002301275D0902
:105A500003F01F0456F8252007FA04F4013322430B
:105A60008B4246F82520F2D10023438001338B423C
:105A700000F58270F9D162B6F0BC70479CF0FF1F50
:105A800016F1FF1FA0F0FF1FA4F0FF1FF0B472B6C5
:105A9000234F244E3C8806F1700306EB84009842A5
:105AA00012D256F8241099B9021D06F17305631C31
:105AB000AD1A03EB950503E052F8041B41B901331D
:105AC000AB421C461046F7D162B60020F0BC7047CE
:105AD000B1FA81F34FF00042DA4021EA020101609D
