:1000000000800020BD010000F1570000A95700004A
:10001000A9570000A9570000A9570000A9570000E0
:10002000A9570000A9570000A9570000F157000088
:10003000F1570000A9570000797600007D76000096
:10004000F1570000F1570000F1570000F157000090
:10005000F1570000F1570000F1570000F157000080
:10006000F1570000F1570000F1570000F157000070
:10007000F1570000F1570000F1570000F157000060
:10008000F1570000F1570000F1570000F157000050
:10009000F1570000F1570000F1570000F157000040
:1000A0007D86000089860000F1570000F1570000AE
:1000B000F1570000F1570000F1570000F157000020
:1000C000F1570000F1570000F1570000F157000010
:1000D000F1570000F1570000F1570000F157000000
:1000E000F1570000F1570000F1570000F1570000F0
:1000F000F157000079630000F1570000F15700004C
:10010000F1570000F1570000F1570000F1570000CF
:10011000F1570000F1570000F1570000F1570000BF
:10012000F1570000F1570000F1570000F1570000AF
:10013000F1570000F1570000F1570000F15700009F
:10014000F1570000F1570000F1570000F15700008F
:10015000F1570000F1570000F1570000F15700007F
:10016000F15700003D660000F1570000F157000014
:10017000F1570000F1570000F1570000F15700005F
:10018000F1570000F1570000F1570000F15700004F
:10019000F1570000F1570000F1570000F15700003F
:1001A000F1570000F1570000F1570000F15700002F
:1001B000F1570000F15700000D520000564B4CF271
:1001C000205210B51A804DF628121A8000BF00BFC9
:1001D00005F012FB514B4FF010621A60504A9A60C2
:1001E000504ADA60504A136813F4807304D14F49BF
:1001F0000B604FF4A85313604D4B1A78110703D5C9
:100200001A7842F008021A704A4B4B492A221A7097
:100210004A4A4B4B8B4204D252F8040F43F8040B6A
:10022000F8E7484B484900228B4202D243F8042B9E
:10023000FAE74649464A002352F8230041F82300D2
:1002400001336F2BF8D1434B434A802103F8011B44
:100250009342FBD1414B3D4A1A60414B8A221A70AE
:10026000A3F5805324225A70A0221A709A7992071B
:10027000FCD59A79D406FCD43A4A937903F00C035E
:10028000082B384BF9D105221A7143225A719A79F9
:100290009006FCD5334A9179324B4906FBD5324A58
:1002A0004FF0817111600521516020221A709A79F6
:1002B00002F00C020C2AFAD12C4B2D4A1A602D4B5D
:1002C0002D4A1A6000225A60072243F8042C2B4A58
:1002D000C3F80C2D62B605F0B1FC144B1B68DA07AD
:1002E00005D5274805F018FC264B274A1A60274BEE
:1002F0001B785B0609D5234C234B22689A4204D114
:100300001F4805F009FC0023236009F0EBFA05F013
:1003100079FA05F0A7F9FEE70E2005403080044089
:10032000823F04000100002B10D0034014D0034092
:1003300002D0074000E0074048A3FF1F6CE6010021
:100340002095FF1F48A3FF1FB4F4FF1F0090FF1F5D
:100350000000000000E400E05FE400E008ED00E0E1
:1003600000500640004006404480044004800440A1
:10037000C010050014E000E03F190100000020203B
:10038000C69970601CE00340A5C3945A00F0074072
:10039000FFFFFFFFFFFFFFFFFFFFFFFFFFFFFFFF6D
:1003A000FFFFFFFFFFFFFFFFFFFFFFFFFFFFFFFF5D
:1003B000FFFFFFFFFFFFFFFFFFFFFFFFFFFFFFFF4D
:1003C000FFFFFFFFFFFFFFFFFFFFFFFFFFFFFFFF3D
:1003D000FFFFFFFFFFFFFFFFFFFFFFFFFFFFFFFF2D
:1003E000FFFFFFFFFFFFFFFFFFFFFFFFFFFFFFFF1D
:1003F000FFFFFFFFFFFFFFFFFFFFFFFFFFFFFFFF0D
:10040000FFFFFFFFFFFFFFFFFFFFFFFFDEF9FFFF23
:1004100010B5054C237833B9044B13B10448AFF33E
:1004200000800123237010BD48A3FF1F00000000BF
:1004300068E60100084B10B51BB108490848AFF346
:1004400000800848036803B910BD074B002BFBD0A0
:10045000BDE81040184700BF000000004CA3FF1F7C
:1004600068E6010048A3FF1F00000000002070475D
:10047000F8B51E1E03680446CCBF02EB42050025FA
:100480000F469B68D8BF164698477A192368626062
:100490005B690A4A6661934201D12046F8BD204655
:1004A00098470028F9D0064A064B516893FBF0F0B4
:1004B000884238BF084650602046F8BD6D040000F1
:1004C00064A3FF1F40420F00084B10B51C685CB1CD
:1004D00063680021184623B1626902EB420209F009
:1004E00067FDA468002CF3D110BD00BF74A3FF1FEB
:1004F00070B4104C25686E1C8D4283B0266016DBEC
:100500000D4D0E492B680093009A2D680B680195DC
:10051000019D0D60D31A4FF000014FF47A7208BFAD
:10052000012302FB06F22160B2FBF3F3438003B028
:1005300070BC704778A3FF1FACF2FF1F80A3FF1FA2
:100540002DE9F04F43682D4C83B006468946002BB9
:100550004BD105F0FFFAF36820601BB14846B16843
:1005600098478146264B1C680025002C36D073889E
:10057000A77C61686269632B236898BFA574D3F870
:1005800004808DF804508DF805508DF80650B9F1AF
:10059000000F1CD004F10B030DF1040E04F10E0C3E
:1005A00013F801BFBBF1000F0DD093F803A00AF1BF
:1005B00001000BFB0000BAF1000F04D009FB00F0B2
:1005C000000C8EF8000063450EF1010EE8D12046C4
:1005D00001ABC047A774A468002CC8D130461921CC
:1005E000FFF786FF03B0BDE8F08F05F0B3FA22688D
:1005F0007368801A9842AAD3ABE700BF7CA3FF1FA1
:1006000074A3FF1F2DE9F04F43682C4C83B00646BE
:100610008A469146002B49D105F09CFAF368206088
:100620001BB14846B16898478146254B1C68002598
:10063000002C34D07388A77C6269632B236898BF31
:10064000A574D3F800808DF804508DF805508DF80E
:100650000650B9F1000F1AD004F10B0301A804F100
:100660000E0E13F801BFBBF1000F0CD093F803C0BE
:100670000CF101010BFB0111BCF1000F03D009FBD0
:1006800001F1090C0170734500F10100E9D1204628
:1006900001AB5146C047A774A468002CCAD13046AC
:1006A0001921FFF725FF03B0BDE8F08F05F052FADE
:1006B00022687368801A9842ACD3ADE77CA3FF1F11
:1006C00074A3FF1F10B5044682B051B100231A462F
:1006D00001A98DF804308DF805308DF80630FFF74C
:1006E00091FF2046FFF7F0FE02B010BD4AB151B1B4
:1006F0004268084B93FBF1F1914238BF11464160CB
:10070000704709B941607047024B93FBF1F14160BA
:10071000704700BF40420F0000207047044B00228A
:10072000FF204FF0FF31187099605A80DA607047EF
:1007300064A3FF1F2DE9F04F8B42099E52D396F818
:1007400000E01578777896F80280547892F802C025
:10075000C1EB030BC5EB0E0EC4EB070ACCEB08068E
:100760001FFA8BF24FEACE1E4FEACA1AF601B2B355
:100770000FFA82FB9EFBFBFE9AFBFBFA4FEA4E0E42
:100780004FEA4A0A96FBFBFB99424FEA4B0B1FFAD2
:100790008EFE1FFA8AFA1FFA8BFB4FEA05254FEAF5
:1007A00004244FEA0C2218D801EB41070131C61985
:1007B00089B24FEA25294FEA24284FEA222C7544B2
:1007C00054445A448B4200F80790ADB286F8018039
:1007D000A4B286F802C092B2E6D2BDE8F08F4FF024
:1007E000010BC7E78946357892F800E074785778AE
:1007F00096F802C092F802801570194686F800E05B
:100800004B465470777082F802C086F802809FE7EA
:1008100022B3FF2A23D0F0B404780E78437895B23F
:10082000A719D24306FB0576D2B204FB0264C4F3D7
:10083000072404704C7886781F1904FB057403FBA9
:100840000243C3F3072343708B78F11803FB0515AC
:1008500006FB0252F0BCC2F30722827070470B788D
:1008600003704B7843708B78837070472DE9F043A9
:10087000141104EB440512F00F020D449DF81C60A6
:1008800000D0E6B92C786978AA78FF2B12D0002B1B
:1008900043D00133DBB21CB103FB0444C4F307248F
:1008A00019B103FB0111C1F307211AB103FB0222A5
:1008B000C2F30722047041708270BDE8F0830F2CF0
:1008C0002E7895F80190AF7800D0E91C120182F0E3
:1008D000FF056C1C91F800C091F801E091F80280CE
:1008E00004FB06F6511C04FB09F504FB07F4C4F3F2
:1008F0000724C6F3072701FB08F201FB0CF6C5F33A
:10090000072501FB0EFE04EB222207EB262605EB52
:100910002E21F4B2C9B2D2B2B7E71A4619461C4624
:10092000047041708270BDE8F08300BFF0B40478B9
:1009300046788278E00000F0F80000EB800303EBDB
:10094000031303442506C3F307235FD404F04005D3
:1009500005F0FF0704F02004002D46D104F0FF004D
:10096000002C6CD05533DDB2AB243B46FF2E1CD09F
:10097000002E79D01CB106FB0444C4F307241DB13A
:1009800006FB0555C5F307251BB106FB0333C3F36F
:100990000723F043C0B200FB0000C0F3072004446B
:1009A00005440344E4B2EDB2DBB2FF2A18D012FBD7
:1009B00002F0003218BF012202EB102212F0FF02F7
:1009C00056D01CB102FB0444C4F307241DB102FB42
:1009D0000555C5F307251BB102FB0333C3F30723FA
:1009E0000C704D708B70F0BC704704F0FF075CBB5F
:1009F00000EBC00400EB440000EBC0000412563BC7
:100A0000C4F1AB04DDB2E4B23B46AFE704F040070B
:100A100007F0FF05E7B904F0200707F0FF04002FF7
:100A200036D100EBC00300EB430000EBC000C0F385
:100A30000720C0F1AB055530EDB2C3B296E7DC43F9
:100A4000E4B21D46034691E70024DD43EDB28DE795
:100A500004F0200404F0FF0594B903F15504E4B256
:100A6000C3F1AB03DBB281E7FF231D461C469CE7C5
:100A70001546144613460C704D708B70F0BC7047D1
:100A8000A3F15604E4B20025C3F15503DBB26DE7D0
:100A9000D8431C46C3B269E740697047F0B561B3FB
:100AA00001F1FF3E1FFA8EFE0EEB4E0E00220EF1FC
:100AB000060E8644C31C1546144613F8037C13F82F
:100AC000020C13F8016C033373453C440544324473
:100AD000F3D104EB840402EB8202C5EBC500C4F33E
:100AE0001713C2EB0212C5EBC004120A03EB142465
:100AF00001EB810110190844F0BD0C460A46F7E7E6
:100B00002DE9F043254B1C6885B0074688469CB10B
:100B1000DFF894907D2507E0606981B23046FFF7E9
:100B2000BDFFA468054444B194E848001B694B45E7
:100B3000F2D020469847F0E77D2505FB07F52D0A02
:100B4000174B45451B7810D223B3164A012152F8A2
:100B500033208DF80C109DF80C101378384623EADA
:100B60000103137005B0BDE8F08308FB07F7B7FB7E
:100B7000F5F0C7B273B10B4A012152F833208DF85A
:100B80000C109DF80C10137838460B43137005B009
:100B9000BDE8F083384605B0BDE8F08374A3FF1FBD
:100BA00088A3FF1F34E80000990A0000704700BFC7
:100BB0004069C000704700BF2DE9F04F854B864863
:100BC000864E874D8BB019460593162401230DE000
:100BD000162BA8BF162351F8042B9342C8BF41F827
:100BE000043C804B8B4210D050F8043F56F8233021
:100BF000323B04FB03F385FB0372DB17C3EB2223B9
:100C00000133002BE4DC0123E5E7774B0493774CB9
:100C1000704BDFF8ECA103930027039A52F8043BD2
:100C20000392002B75DDDDF810B00023D946029346
:100C30004FF001089AF80020CDF80080DBF89057BB
:100C40006B493A44D2B2FF2309A8FFF70FFE05EB28
:100C500045059AF80020CDF8008060199DF8241011
:100C600061559DF825309DF82660D9F8645743708A
:100C70003A448670D2B25E49FF2309A8FFF7F6FD19
:100C800005EB45059AF80020CDF8008060199DF825
:100C900024109DF825309DF826E05BF82C6B6155FB
:100CA0003A44437080F802E0D2B25149FF2309A8C8
:100CB000FFF7DCFD06EB46069AF80020D9F8F45E53
:100CC0009DF82410CDF80080A019A1559DF825307D
:100CD0009DF8266043703A44867005EB450544490B
:100CE000D2B2FF2309A8FFF7C1FD039A9DF8246043
:100CF00066556319029D52F8042C9DF825009DF855
:100D0000261058700135AA420295A9F12C09997054
:100D100090DC049B1437FFB20433DC2F04937FF480
:100D20007CAF344E3368DB073CD5334D334C2B68F6
:100D3000099394E80600099B5B1A9A420FD82B6826
:100D40000893089B059A236052F8043B012BC4BF0B
:100D500003F1FF3342F8043C224B9A42F4D1234979
:100D6000481C01F6583410F8013CC3EBC30303EBF5
:100D700043131B1200F8013C4A788B78C2EBC20285
:100D8000C3EBC30302EB421203EB431312121B1219
:100D90004A708B7003318C4200F10300E3D10BB039
:100DA000BDE8F08F304604F047FD134D134C40B1C1
:100DB0002B680793079B236032233046636004F05F
:100DC00041FD2B68099394E80600099B5B1A934246
:100DD000C5D3B4E7FCD6FF1FE4DC000070D6FF1FCC
:100DE00037800B6D28D7FF1FD4A3FF1FA4B3FF1FAD
:100DF00028D7FF1F18EDFF1FACF2FF1FE4ECFF1F09
:100E000029EDFF1F2DE9F04FDFF880B2DFF880A257
:100E1000DFF8809285B0D846002501230EE0904A85
:100E2000B2EB032F11DBFF3540F6F5239D4209F1AC
:100E3000040908F1040877D05AF8043F5BF823301E
:100E4000002BF0DBB3F5167FE9DD864BD8F80010F8
:100E5000D9F8646783FB0534EA17C2EB64041329ED
:100E6000E4B25DDD40F2DC538B42A8BF0B46143B7D
:100E70007D4A1B0282FB03121A44DB17C3EBA22339
:100E8000DBB27A4F7A4906EB46060122009203A8AC
:100E90002246FFF7EBFCB919BB5D9DF80C2083FAE5
:100EA00052F3BB559DF80D204B7883FA52F34B70EB
:100EB0008A789DF80E3082FA53F2D8F800008A70D2
:100EC0001328D9F890672DDD40F2DC538342A8BF88
:100ED0000346143B644A1B0282FB03121A44DB17CD
:100EE000C3EBA223DBB206EB4606012122460091AA
:100EF00003A85F49FFF7BAFCB919BB5D9DF80C2048
:100F000083FA52F3BB559DF80D304A7882FA53F2BA
:100F10004A708B789DF80E2083FA52F38B7082E72B
:100F20000023AEE70023DEE7524B534A196840F234
:100F30002D538B42A8BF0B4623EAE37303EB8301D7
:100F400003EBC10382FB0312DB17C3EB62234B4AA3
:100F50001268C3F12B0393427BDA494F4348494C53
:100F6000A7F6C865A7F2647AA7F12C09CC46A5F1CB
:100F70002C0E05F12C085CF8046B57F8043B55F86F
:100F8000041B5EF8042B06EB460B03EB430304EB58
:100F90000B0614F80BB000F803B0034496F801B048
:100FA00083F801B001EB410102EB420204EB010BBB
:100FB000B6789E70615C815483189BF801109BF891
:100FC00002205970A8459A70D5D1CA4545464F466A
:100FD000CAD12D4C04F12C0554F8041F01EB41013A
:100FE0004618425CE36A02EBC20202EBC202121232
:100FF00042547178B27801EBC10102EBC20201EBFD
:10100000C10102EBC20203EB430309121212717019
:10101000B270C25C02EBC20202EBC2021212C254F4
:101020000344A54259789A7801EBC10102EBC20250
:1010300001EBC10102EBC2024FEA21214FEA222259
:1010400059709A70C8D10D4B01221A6005B0BDE8E5
:10105000F08F0A4B01321A6005B0BDE8F08F00BF77
:101060007E620100E9A28B2EC33501B1A4B3FF1F3C
:1010700028D7FF1F78EDFF1F6300D9627CD8FF1FC0
:10108000C8B2FF1F68CAFF1F34ABFF1F70D6FF1F17
:101090000CDF0000D4A3FF1F2DE9F04F804BDFF8D9
:1010A00018B2DFF818A289B0984605935F4600266B
:1010B00001230FE07B4AB2EB032F12DBFF3640F631
:1010C000F5239E4208F1040807F1040700F0F880B8
:1010D0005AF8043F5BF82330002BEFDBB3F5167FA3
:1010E000E8DD714B3A68D8F8009083FB0635F317BA
:1010F000C3EB6505132AEDB240F3CA8040F2DC531E
:101100009A42A8BF1A46143A684B120283FB021394
:101110001344D217C2EBA323DBB2654C654909EB3C
:1011200049090122009207A82A46FFF79FFB04EB1A
:10113000090114F809309DF81C2083FA52F304F8D1
:1011400009309DF81D304A7882FA53F24A708B7844
:101150009DF81E2083FA52F33A688B70132AD8F850
:10116000649740F39B8040F2DC539A42A8BF1A4632
:10117000143A4E4B120283FB02131344D217C2EBF4
:10118000A323DBB209EB49090122009249492A460F
:1011900007A8FFF76BFB04EB090114F809309DF871
:1011A0001C2083FA52F304F809309DF81D304A7868
:1011B00082FA53F24A708B789DF81E2083FA52F31C
:1011C0003A688B70132AD8F8909765DD40F2DC53AB
:1011D0009A42A8BF1A46143A344B120283FB0213F8
:1011E0001344D217C2EBA323DBB209EB4909012256
:1011F000009230492A4607A8FFF738FB04EB0901A3
:1012000014F809309DF81C2083FA52F304F80930D1
:101210009DF81D304A7882FA53F24A708B789DF817
:101220001E2083FA52F33A688B70132AD8F8F49E82
:1012300030DD40F2DC539A42A8BF1A46143A1B4BE9
:10124000120283FB02131344D217C2EBA323DBB2B7
:1012500009EB490901212A46009107A81549FFF722
:1012600005FB04EB090114F809309DF81C2083FAF2
:1012700052F304F809309DF81D304A7882FA53F28F
:101280004A708B789DF81E2083FA52F38B7015E715
:10129000002342E70023DBE70023A6E7002371E7F2
:1012A000D4A3FF1F7E620100E9A28B2EC33501B1DA
:1012B000A4B3FF1F28D7FF1F70D6FF1F0CDF00004D
:1012C000884B894A196840F22D538B42A8BF0B46C0
:1012D00023EAE37303EB830103EBC10382FB0312F5
:1012E000DB17C3EB6223814A1268C3F12B039342DD
:1012F00080F2F180DFF800B27D4BABF1580203922F
:10130000039E0BF12C020492924606F12C0906F280
:10131000BC7806F5F26C0BF5F26E0BF2BC7700258B
:101320005AF8044B5BF8041B56F8040B04EB440416
:1013300001EB41011A5D5A541C44194462784A7009
:10134000A47859F8042B8C7000EB400102EB4202A8
:10135000585C985419441A4448785CF8044B50700F
:1013600058F8040B8978917004EB440400EB4000BA
:101370001A5D1A541C441844627857F8041B4270D2
:101380005EF8042BA478847001EB410102EB420269
:10139000585C985419441A4448785070013589783B
:1013A00091700B2DBCD1039ADDF810B02C3A03924A
:1013B000504A9345A4D1141FDDF814E004F12C0722
:1013C00004F5F26654F8049F57F8040F5EF8041B06
:1013D00056F8042F09EB490903EB090813F809C073
:1013E0000CEB4C0C0CEB0C1C4FEA2C2C03F809C03A
:1013F00098F8019098F802C009EB49090CEB4C0CE5
:1014000009EB09190CEB0C1C00EB40004FEA2C2CEB
:101410004FEA292988F8019088F802C013F800C023
:101420000CEB4C0C0CEB0C1C4FEA2C2C03F800C002
:10143000184401EB410190F8018090F802C008EBDC
:1014400048080CEB4C0C08EB08180CEB0C1C4FEA92
:101450002C2C4FEA282880F8018080F802C0585CC4
:1014600000EB400000EB001000125854194402EB4E
:10147000420291F801C088780CEB4C0C00EB400064
:101480000CEB0C1C00EB001000124FEA2C2C81F826
:1014900001C08870995C01EB410101EB0111091257
:1014A00099541A44013D5078917800EB400001EBCB
:1014B000410100EB001001EB01114FEA20204FEA3F
:1014C0002121507091707FF47DAF084B01221A608A
:1014D00009B0BDE8F08F054B01321A6009B0BDE8D4
:1014E000F08F00BF78EDFF1F6300D962D0A3FF1F0C
:1014F000A4B3FF1F38ABFF1F9CA7FF1F2DE9F04FC0
:1015000089B00023734A049305921A460123724955
:1015100051F8222051F82330134403EBD3735B10AE
:10152000323BB3F5167FA8BF4FF4167323EAE3737B
:101530006A4A03EB430382FB0312DB17C3EB22234C
:10154000674A1360002B4FD0049B664FDFF8ACB1A5
:10155000654E4FEAE309A9F11E0900235FFA89F9F4
:1015600003934FF0010A00254FF02C083B88CDF87B
:1015700000A003EB432203EB820202F5585219321A
:1015800092B202EB1223DBB203EB830103EB4101C6
:1015900005EB212108FB01F13A805BF8014053493A
:1015A00004EB44044A46FF2307A8FFF75FF931190B
:1015B000335D9DF81C2083FA52F333559DF81D309E
:1015C0004A7882FA53F24A708B789DF81E2083FA8B
:1015D00052F30B35582D8B70C8D1414B039A1B68C1
:1015E000013293420392BEDC059A08320592049AB6
:1015F00040F204639A4206D0049B0599DC330493BD
:1016000011E90C0083E73A4B3A4A1B68DFF8F08097
:10161000B3F5FA6FA8BF4FF4FA6323EAE37303EB61
:10162000830103EBC10382FB0312DB17C3EB6223CD
:10163000D8F80020C3F12A0393422ADA0026DFF803
:10164000BCE02949B4462425012400202F1D00E0D8
:1016500001340EEB0003092E5A59DB5902EB42020A
:1016600003EB430311F8029001F8039001EB020928
:101670000B4499F801A083F801A099F802A083F81F
:1016800002A000F12C000AD0582CE1D10136043D13
:10169000DAE7531CC8F8003009B0BDE8F08F582CC9
:1016A00001F802C089F801C089F802C0D0D1124AFD
:1016B000002002F1200152F8043F0133582B08BFEB
:1016C000034691421360F6D10123C8F8003009B0F7
:1016D000BDE8F08F94DE000070D6FF1F37800B6DE1
:1016E00074B3FF1F0096FF1FA4B3FF1F28D7FF1F6F
:1016F00078EDFF1FE3D48041E096FF1FD4A3FF1FC6
:10170000F8D6FF1F2DE9F04F87B000239D4ADFF880
:1017100094B2DFF88CA29C4D9C4C029303921E461F
:101720004FF02C09039A9A4952F8043F0392DAF8D1
:101730000020B3F57A7F3244A8BF4FF47A73572A5A
:10174000C8BF583A09FB02F223EAE3731B0281FB8C
:101750000301AF58DB170122C3EB21230092029A49
:10176000CBF800301E3B07EB4707C2F3071823EA0C
:10177000E3734246DBB2874905A8FFF777F8E11922
:10178000E35D9DF8142083FA52F3E3559DF815208C
:101790004B7883FA52F34B708A789DF8163082FAB0
:1017A00053F2DAF804308A703344572BC8BF583BE1
:1017B00009FB03F39BF80020EF581E3A07EB47079D
:1017C000012122EAE273009142467249DBB205A888
:1017D000FFF74CF8E119E35D9DF8142083FA52F30A
:1017E000E3559DF815204B7883FA52F34B708A78B5
:1017F0009DF8163082FA53F2DAF808308A703344D2
:10180000572BC8BF583B09FB03F39BF80020EF5848
:101810001E3A07EB4707012122EAE2730091424694
:101820005C49DBB205A8FFF721F8E119E35D9DF8FB
:10183000142083FA52F3E3559DF815204B7883FA70
:1018400052F34B708A789DF8163082FA53F2DAF828
:101850000C308A703344572BC8BF583B09FB03F345
:101860009BF80020EF581E3A07EB4707012122EAB8
:10187000E273009142464749DBB205A8FEF7F6FF46
:10188000E119E35D9DF8142083FA52F3E3559DF8C6
:1018900015304A7882FA53F24A708B789DF81620F8
:1018A00083FA52F38B70029B0136DC33102E0293C5
:1018B0007FF438AF384B394A1968DFF8EC8040F2D2
:1018C0002D538B42A8BF0B4623EAE37303EB83013E
:1018D00003EBC10382FB0312DB17C3EB6223D8F8CF
:1018E0000020C3F12B03934228DA0027BC462426AC
:1018F0000120002106F1040E00E001306B18092FD1
:101900009A5953F80E3002EB420203EB430314F8EA
:10191000029004F8039004EB0209234499F801A013
:1019200083F801A099F802A083F802A001F12C012C
:101930000AD05828E1D10137043ED9E7531CC8F832
:10194000003007B0BDE8F08F582804F802C089F8CD
:1019500001C089F802C0D0D1114A002002F1100163
:1019600052F8043B0133582B14BF42F8043C42F8B0
:10197000040C9142F4D10123C8F8003007B0BDE84F
:10198000F08F00BF6CD6FF1FD4A3FF1FA4B3FF1FAF
:101990009F74784128D7FF1F78EDFF1F6300D9623D
:1019A0009896FF1F7CEDFF1F48D6FF1F2DE9F04FD3
:1019B00089B07E4F7E4B04937E4C03974FF0000A14
:1019C0000123059715E07C4A1B0282FB0327DB17E6
:1019D000C3EB2727502F48DC039A0AF1DC0A40F6B4
:1019E00074132C329A45039241D0049A52F8043F62
:1019F0000492724A52F82330002BEDDBB3F5167FC8
:101A0000E1DDFF276E4B039E83FB0A384FEAEA7342
:101A1000C3EB6808A8F114085FFA88F806F5726B42
:101A20004FF0010975696749CDF800903B46424681
:101A300007A8FEF71BFF05EB4503E118E25C9DF8E4
:101A40001C0082FA50F2E2549DF81D304A7882FA66
:101A500053F24A708B789DF81E2083FA52F306F5F4
:101A6000F2765E458B70DDD1B6E7FFB2CAE7564B22
:101A7000564A1B68DFF85C91059FB3F5FA6FA8BF63
:101A80004FF4FA6323EAE37303EB830103EBC1032F
:101A900082FB0312DB17C3EB6223D9F80020C3F1EA
:101AA0002A03934225DB0132424CC9F80020651C11
:101AB00004F6583615F8013CC3EB031203EB02138E
:101AC0001B1205F8013C6278A378C2EB0210C3EB4D
:101AD000031102EB001203EB011312121B126270CE
:101AE000A3700334A64205F10305E3D109B0BDE8B4
:101AF000F08FDFF8E4C003970CF572685CF82C3CBB
:101B0000ACF1040EACF12C06654600205EF8047DB5
:101B100055F8042D56F8041F07EB470A02EB420262
:101B200014F80AB004F802B0A24422449AF801B0B2
:101B300082F801B09AF802A082F802A001EB4102FB
:101B400003EB430314F802A004F803A02244234447
:101B500092F801A083F801A0013092789A700528CC
:101B60000B46D3D10CF12C0CE045C7D1039F18488C
:101B70007A6902EB4202A118A35C03EBC30303EBF7
:101B8000C3031B12A3544A788B7802EBC20203EB07
:101B9000C30302EBC20203EBC3032C3712121B1266
:101BA000B8424A708B70E3D101227DE7D4A3FF1FB6
:101BB0000CDF0000A4B3FF1F37800B6D70D6FF1F32
:101BC000E9A28B2E28D7FF1F78EDFF1FE3D48041B9
:101BD000F4B2FF1FF4D6FF1F00A4FF1F10B5044688
:101BE00003F0BEFA204610BD2DE9F04F866985B09E
:101BF00005460C46002E00F07181A368EA69002BAF
:101C000040F366812746183257F8148B04F13400EC
:101C100094F813900DF10706394609F10109B4460D
:101C2000BE465EF8043F43445B7843B194F80DA090
:101C300083FA5AF3DBB209FB03F3C3F307238645A8
:101C40000CF8013FEDD1DDF80880039B88EAD81C31
:101C500083EAD31E0CF0AA1C0EF0AA1E88EA0C0818
:101C600083EA0E0388EACC1C83EACE1E4CF6CC48ED
:101C70008CEA9C3A8EEA9E39434609EA03030AEA53
:101C800008088CEA080C8EEA030E8CEA883C8EEA7F
:101C9000833E4FEA0E184FEA1C130EF0F03E0CF094
:101CA0000F3C08F0F03803F00F3343EA0E0348EA24
:101CB0000C0E4FEA1E494FEA1E684FEA132C02F839
:101CC00011EC02F8153C4FEA1E2A4FEA134E1B0E88
:101CD00002F816CC02F817EC02F812AC02F8139CCA
:101CE00002F8148C02F8183C94F81290D4F8008092
:101CF00009F101090DF1070CBE465EF8043F18F822
:101D0000033043B194F80CA083FA5AF3DBB209FB19
:101D100003F3C3F3072386450CF8013FEDD1DDF84B
:101D20000880039B88EAD81C83EAD31E0CF0AA1C07
:101D30000EF0AA1E88EA0C0883EA0E0388EACC1C7F
:101D400083EACE1E4CF6CC488CEA9C3A8EEA9E3949
:101D5000434609EA03030AEA08088CEA080C8EEAFB
:101D6000030E8CEA883C8EEA833E4FEA0E184FEA57
:101D70001C130EF0F03E0CF00F3C08F0F03803F0AE
:101D80000F3343EA0E0348EA0C0E02F809EC4FEA5F
:101D9000132C02F80D3C4FEA1E2A4FEA1E494FEA67
:101DA0001E684FEA134E1B0E02F80AAC02F80B9C99
:101DB00002F80C8C02F80ECC02F80FEC02F8103C82
:101DC00094F814C0D4F800E00CF1010C51F8043F71
:101DD00073449B7843B194F80E8083FA58F3DBB2D6
:101DE0000CFB03F3C3F30723884206F8013FEDD150
:101DF000029B039E83EAD31186EAD61E0EF0AA1E2A
:101E000001F0AA114B4086EA0E0683EAC11186EA68
:101E1000CE164CF6CC4381EA913886EA963C9E4633
:101E20000CEA0E0E08EA0303594086EA0E0681EA20
:101E3000833186EA8E3633014FEA111E0EF00F3ED3
:101E400001F00F3106F0F03603F0F0330B434EEAA9
:101E500006064FEA132A4FEA13494FEA13684FEA7E
:101E6000162C4FEA164E310E02F8013C02F8056CB2
:101E700002F802AC02F8039C02F8048C02F806CCCB
:101E800002F807EC02F8081CA36894F80CC094F858
:101E90000DE094F80E90266894F80FB094F810A016
:101EA000617C94F91580013BCCEB0B0CCEEB0A0E58
:101EB000C9EB0101B044002B02F1180284F80CC0F8
:101EC00084F80DE0A173C4F80080A3603FF7A0AED2
:101ED000A86905B0BDE8F04F02F03EBBD1F8048020
:101EE00008EB4807FF00384607F028FDE861384650
:101EF00007F024FD2862012003F0C6FCEB692A6A82
:101F000000960746414602F0A3F9AF61384602F059
:101F1000B5F972E6F0B591B0002305688DF8003090
:101F20008DF801308DF802302E683A4A8DF8043071
:101F300096428DF805308DF8063064D1827C03918D
:101F4000012A044604918DF81A308DF81B308DF863
:101F50001C30CDF808D01AD08DF819308DF8183013
:101F60008DF817308DF816308DF815308DF8143047
:101F700000228DF81D2007AB0FA943F8042F9942CA
:101F8000FBD1AB69204602A9984711B0F0BD224AA7
:101F90001378013303F0070313F0010F14BF8021FE
:101FA000002113709A0744BF41F04001C9B25B079A
:101FB00048BF41F0200110310022C9B20DF11703D2
:101FC0000DF11A074FF4807EAAB19EFBF2F2D2B255
:101FD000501CC0B200FB01152D121870EEB205B1F5
:101FE000013E03F8036C00B11A7001339F4208D020
:101FF000DA78002AE9D11A7003F8032C01339F42E2
:10200000F6D12568B4E70A4601AB6946B04711B07E
:10201000F0BD00BFF520000089A3FF1FF0B5857C4F
:102020001C785E789B788FB0012D8DE806000292B7
:102030008DF812408DF813608DF8143020D00023F5
:102040008DF811308DF810308DF80F308DF80E307E
:102050008DF80D308DF80C30032100238DF815100C
:1020600002EB4202194605AC0131082944F8043F4D
:102070001344F9D1036869469B6998470FB0F0BDD6
:102080001B490B78013303F0070313F0010F0B70AA
:1020900014BF802100219D0744BF41F04001C9B217
:1020A0005B0748BF41F020011031C9B20DF10F03A9
:1020B0000DF1120E4FF4807CACB19CFBF4F4E4B251
:1020C000651CEDB205FB011636121D70F7B206B1A4
:1020D000013F03F8037C05B11C7001337345BBD08D
:1020E000DC78002CE9D11C7003F8034CF5E700BF45
:1020F00089A3FF1FF0B5857C1C785E789B788FB034
:10210000012D8DE8060002928DF812408DF81360C3
:102110008DF814301BD000238DF811308DF810305D
:102120008DF80F308DF80E308DF80D308DF80C30A5
:1021300000228DF8152005AB0DA943F8042F8B4222
:10214000FBD1036869469B6998470FB0F0BD1B4AF5
:102150001378013303F0070313F0010F137014BF5A
:1021600080220022990744BF42F04002D2B25B07AE
:1021700048BF42F020021032D2B20DF10F030DF130
:1021800012074FF4807EACB19EFBF4F4E4B2611C04
:10219000C9B201FB02252D121970EEB205B1013E44
:1021A00003F8036C01B11C7001339F42C0D0DC788E
:1021B000002CE9D11C7003F8034CF5E789A3FF1F3D
:1021C0002DE9F04F8BB00027069051F82730DBB295
:1021D0000137FF2BBFB2F8D10B6807974FEA13689E
:1021E000C3F3072BC3F307494FF0FF33C646002460
:1021F0000593884658F8045F0698C5F307274FEA09
:10220000241CC5F30746ECB2F9B2C5F30765039188
:10221000E9B204915FFA8CF1029107990F2908AA9B
:102220004FEA14135FFA86FA0CD805998C4507DC3F
:102230000F2905D00131C9B28B42029138BF0B463C
:1022400059B2059109A9009102998DF820B08DF835
:1022500021908DF822E08DF824708DF825608DF89E
:102260002650FEF767FAFF2CDDF810E0DDF80CB021
:10227000D146BFD106980BB0BDE8F08F10B50E4C1B
:102280000E480C2102F042FE204602F047FB204699
:102290005522202102F016FB38B1E28842F00402F8
:1022A00092B22046242102F00DFB054B4FF4004270
:1022B0009A61DA6110BD00BF04F0FF1F0082FF1FAA
:1022C00088EDFF1F2DE9F84F104C114F114EDFF82C
:1022D00048B0DFF848A0DFF8489004F5A078002562
:1022E000204601F021FF143402230C21CBF80030EA
:1022F00044454FF0080347F8045F46F8045FCAF806
:102300000030C9F80010EBD1BDE8F88F24EEFF1FB4
:10231000B4EFFF1FF0B2FF1F1CEDFF1F10F0FF1FF7
:10232000B0D6FF1F70B51F4B84B0002453F8042FA4
:10233000092A04F1010129DCCCB2102CF6D11A4D86
:102340001A4E2B680093009B3168194A5B1A93421E
:1023500011D92B680193019B3360FFF7B3FF0B2C5E
:1023600009D82B680293134A134B0299116000227B
:102370001A7004B070BDFFF7A5FF2B680393039A92
:102380000D4B326001221A7004B070BD064D074E2D
:102390002B680093009B3168054A5B1A9342DED993
:1023A000D7E700BF6CD6FF1FACF2FF1F14EDFF1F75
:1023B000E09304006CEDFF1F68EFFF1F2DE9F84F5D
:1023C000D04BD14A03F1400053F8041F42F8041FD8
:1023D0009842F9D1CD4CCE4B208BCE4DD3E900891C
:1023E00007F00CF84FF0625107F060F806F0D4FBEC
:1023F00042464B4606F024FC0022C74B06F020FC68
:1024000006F0CEFEC34B8346C3F800B0608B06F0E7
:10241000F5FF4FF0625107F049F806F0BDFB424668
:102420004B4606F00DFC0022BB4B06F009FC06F003
:10243000B7FEE28BA38BB7494860D01806F0DEFFE9
:102440004FF0625107F032F806F0A6FB42464B46C9
:1024500006F0F6FB0022B04B06F0F2FB06F0A0FE01
:10246000638C218CA28CA860C818104406F0C6FFAB
:102470004FF0625107F01AF806F08EFB42464B46C9
:1024800006F0DEFB0022A44B06F0DAFB06F088FE25
:10249000A04B2546D860E28C238D618D35F82C0F3A
:1024A00013440B44184406F0A9FF4FF0625106F0A4
:1024B000FDFF06F071FB42464B4606F0C1FB964B12
:1024C000002206F0BDFB06F06BFE924B363418611D
:1024D000002035F8023FAC421844FAD106F08EFFD6
:1024E0004FF0625106F0E2FF06F056FB42464B46C3
:1024F00006F0A6FB0022884B884E06F0A1FB06F0F2
:102500004FFE844A0023506134F8022FA642134440
:10251000FAD1184606F072FF4FF0625106F0C6FF7E
:1025200006F03AFB42464B4606F08AFB00227A4B05
:102530007B4D06F085FB06F033FE764A0023906162
:1025400036F8022FB5421344FAD1184606F056FF6A
:102550004FF0625106F0AAFF06F01EFB42464B46C2
:1025600006F06EFB00226C4B6E4C06F069FB06F029
:1025700017FE684A0023D06135F8022FAC4213449D
:10258000FAD1184606F03AFF4FF0625106F08EFF7E
:1025900006F002FB42464B4606F052FB00225E4B21
:1025A000614D06F04DFB06F0FBFD5A4A0023106218
:1025B00034F8022FA5421344FAD1184606F01EFF44
:1025C0004FF0625106F072FF06F0E6FA42464B46C3
:1025D00006F036FB0022504B544C06F031FB06F05F
:1025E000DFFD4C4A0023506235F8022FAC42134401
:1025F000FAD1184606F002FF4FF0625106F056FF7E
:1026000006F0CAFA42464B4606F01AFB0022424B3D
:10261000474D06F015FB06F0C3FD3E4A00239062CD
:1026200034F8022FA5421344FAD1184606F0E6FE0C
:102630004FF0625106F03AFF06F0AEFA42464B46C2
:1026400006F0FEFA0022344B3A4C06F0F9FA06F096
:10265000A7FD304A0023D06235F8022FAC42134464
:10266000FAD1184606F0CAFE4FF0625106F01EFF7E
:1026700006F092FA42464B4606F0E2FA0022264B5A
:102680002D4D06F0DDFA06F08BFD224A0023106383
:1026900034F8022FA5421344FAD1184606F0AEFED4
:1026A0004FF0625106F002FF06F076FA42464B46C2
:1026B00006F0C6FA0022184B204C06F0C1FA06F0CC
:1026C0006FFD144A0023506335F8022FAC421344C7
:1026D000FAD1184606F092FE4FF0625106F0E6FE7F
:1026E00006F05AFA42464B4606F0AAFA00220A4B76
:1026F00006F0A6FA06F054FD064B114A9863002036
:1027000020E000BF6CD6FF1F38D8FF1F84D8FF1F02
:10271000C896FF1F70D6FF1F00408F40C8D8FF1F0C
:10272000DCD8FF1FF8D8FF1F20D9FF1F56D9FF1F85
:10273000A2D9FF1F0CDAFF1F9EDAFF1F6ADBFF1F03
:102740009ADCFF1F34F8023FA2421844FAD106F087
:1027500055FE4FF0625106F0A9FE06F01DFA424602
:102760004B4606F06DFA0022264B274E274D284C8B
:10277000DFF8ACA0274FDFF8AC9006F061FA06F066
:102780000FFD0022E8633260904601E0D5F800B00A
:10279000584606F037FE0146204601F0CDFC2046A3
:1027A00001F014FD06F0F8F9EAE90201204601F013
:1027B0001DFD06F0F1F9326855F8043B134433600F
:1027C000E7E90201184606F01DFE0146124801F035
:1027D000B3FC114801F0FAFC07F02EF8C9F800002C
:1027E0000D4801F003FD07F027F808F101080B4B35
:1027F000B8F1100F04F114041860C7D1BDE8F84F08
:10280000FFF790BD00408F4078EDFF1F70D6FF1F8F
:1028100024EEFF1FC0D5FF1F10EEFF1FA0B3FF1F48
:1028200098D7FF1F84EDFF1FF0B530490B5C022BDA
:1028300085B02ED02E4B53F82020002A0DDD2D4AD6
:102840002D4C12682D490392039A54F8204051F8F8
:102850002010121B323191420BD303280EDD284B7E
:102860001B680A2B274BCCBF012200221A7005B02F
:10287000F0BD0022032843F82020F0DC204953F863
:1028800020200B689A42ECDD1F4C0A601346207032
:10289000E7E7184C184D23680093009B55F820601B
:1028A0009B1BC72B05D8124B012453F820200C5436
:1028B000C3E723680193154F019B57F82020246834
:1028C000DFF838E00294991B521A094B029C4EF82B
:1028D00020101D323A2A53F8202047F820109CBFC0
:1028E000013243F8202045F82040A6E714F0FF1FEE
:1028F0002CEDFF1FACF2FF1F74EFFF1F34B3FF1F5F
:1029000000EEFF1FF8EFFF1F28EDFF1FB4D6FF1FDB
:102910002DE9F843284B53F820908046484606F0AE
:1029200029F9264A4FEAC8031A440D462449D2E938
:1029300000670B440446D3E900011DA3D3E900233B
:1029400006F07EF932463B4605F0C8FF02460B46CC
:102950002046294606F004FC68B1B9F1C80F0ADD2B
:10296000184B13F80820022A1AD052B9022203F891
:102970000820BDE8F883DFF84C9019F80830012BE7
:1029800001D0BDE8F88332463B462046294606F092
:10299000D3FB0028F5D0002309F80830BDE8F88300
:1029A000012203F80820BDE8F88300BFAFF30080E0
:1029B000000000606666024070D6FF1FA0D7FF1FB0
:1029C000C8D5FF1F14F0FF1F10B40E4B0E4A53F86A
:1029D00020100E4C52F82030245C0529C4BF02336D
:1029E00042F82030022C04BF013342F82030B3F506
:1029F000967F04DD0129DCBF023B42F8203010BC89
:102A0000704700BF2CEDFF1FF4B2FF1F14F0FF1F33
:102A10002DE9F04F93B0FFF7D1FCA64BDFF8D8B209
:102A2000DFF8D8A2A44D00241C601EE0286806F040
:102A3000A1F83246CDE900013B464046494605F043
:102A40004BFF00229D4B06F0FBF802460B46DDE9EA
:102A5000000105F043FF06F0A3FB01342860102CB1
:102A600080F3080045F8040B20D02046FFF750FF04
:102A70002046FFF7D9FE2046FFF7A6FF5BF8040FBC
:102A800006F078F8FAE9026732463B468046894606
:102A900006F066FB0028C9D1286801340538286093
:102AA000102C80F3080045F8040BDED1844A854BD6
:102AB000D2F800B0844ADFF84882D2F80090834A06
:102AC0001B6812680292824A824D12680692824AFC
:102AD0000D934FF0000A1268CDF81CA0CDF820A08D
:102AE000CDF824A0CDF830A0CDF810A05446CDF8F4
:102AF00014A00A920B9346460095DA46029B754A4B
:102B000002EBC30E04F1090303930B9B326858F8E0
:102B100023309A4204F1050B03DD01230D940B943D
:102B20000C93726958F82A30706A58F82910009D81
:102B3000039F9A42C8BFDA46099BC8BF0123884257
:102B4000C8BFB946D5E90001089F0993C8BF01274E
:102B5000DEE90023089706F003FB069F5D4A009517
:102B6000002802EBC703D5E90A01029D18BF2546DC
:102B7000D3E900230295079D18BF0125079506F0AC
:102B8000EFFA0A9D534A0099002802EBC503BE469E
:102B9000D3E9002318BFDE46059FCDF818E018BF23
:102BA0000127D1E91201059706F0DAFA039F002800
:102BB0002B4618BF3B460A93049B18BF012304937E
:102BC000009B01340833042C06F10406009395D1D0
:102BD000049BD346DDF814A0002B48D10C9B13B105
:102BE000384B0D9A1A60099B13B1354BC3F800B0EE
:102BF000089B13B1344BC3F80090079B13B1334BC0
:102C0000029A1A60BAF1000F02D0314B069A1A608C
:102C1000324B0B99324C5B5C022B04D0314B53F896
:102C20002130082B02DD2368053323602E4F3B68DB
:102C3000DB0720D52D4E2E4D3368119395E8060005
:102C4000119B5B1A9A4224D923682A490A2BA8BFF0
:102C50000A236FF009000A688342B8BF03461A448A
:102C600082F3080223600A6013B0BDE8F08F1A4BAC
:102C70000A9A1A60B2E7384602F0DEFD1B4E1C4D80
:102C800070B93368119395E80600119B5B1A934263
:102C9000DAD3336810932368109A2A60013BD4E793
:102CA00033680F930F9B2B60962338466B6002F0BE
:102CB000C9FDE6E700EEFF1FC0EDFF1F0000E03F8B
:102CC00010F0FF1F1CEDFF1FB0D6FF1F6CEFFF1FA2
:102CD00080D8FF1FA0D7FF1F20EDFF1F14F0FF1F9C
:102CE000C0D5FF1F2CEDFF1F98D7FF1FACF2FF1FB1
:102CF0005CD7FF1F80EDFF1F6CD6FF1F98D7FF1F0B
:102D0000F4B2FF1F2DE9F04F531E89B00D2B15466D
:102D1000064689469DF858806BD86B4A6B4B106805
:102D200053F82530149A6A491344B3F5FA7FA8BFC3
:102D30004FF4FA7323EAE3731A0281FB024AB0F5F7
:102D4000FA7F4FEAE272C2EBAA1AC0F29B80614A94
:102D500003FB00F382FB0320DB17C3EB601005F0DD
:102D600009FFDDE9122305F06BFF06F019FADFF821
:102D700080B10028CBF8000038DDB6B2C6EB0909F7
:102D80009DF85430DFF86081534F03931FFA89F99F
:102D90005FFA8AFA0025B8F8003050490122009203
:102DA00003EB432203EB820303F55853193398B224
:102DB00009FB00F406EB14445346039AA8F80000FC
:102DC000A4B207A8FDF752FD04EB4404DBF8002091
:102DD0009DF81CE09DF81D009DF81E1007F804E00A
:102DE0003B190135AA4258709970D4DC09B0BDE88E
:102DF000F08FDFF800A1DAF80030DB074AD5384C55
:102E0000384F2368079397E80600079B5B1A9342A5
:102E1000ECD3354A21681388069103EB432103EB79
:102E20008103B6B203F55853C6EB0909193398B2BA
:102E30001FFA89F900FB09F306EB1346B3B22B4CDA
:102E40009DF85410069E8DF8101003EB43031C44AC
:102E50001080FF23214604A83E608DF812508DF8A3
:102E60001130FDF763FDB8F1000FBFD000232146FC
:102E700004A88DF812508DF810308DF81130FDF740
:102E800055FDB3E700FB033381FB0320DB17C3EBE6
:102E9000A01064E7504602F0CFFC114C114F40B92E
:102EA0002368079307993B687A68CB1A93429DD3AE
:102EB000AFE723680593059B3B60149B7B605046FE
:102EC00002F0C0FCECE700BFD496FF1F70D6FF1FD6
:102ED00041DDB320D34D6210A4B3FF1F28D7FF1FDD
:102EE000ACF2FF1F54D6FF1F0096FF1F68CAFF1FDA
:102EF00024F0FF1F68D7FF1F2DE9F0414CA1D1E955
:102F0000000186B04E4B00246FF031054FF0C10E2A
:102F100049A7D7E90067CDE900010494039420464E
:102F200002950222C3F800E04FF47271FFF7EAFE47
:102F30002323204604940295039303224FF47271D5
:102F4000CDE90067FFF7DEFE462320460494029594
:102F5000039304224FF47271CDE90067FFF7D2FEAC
:102F60006923204604940295039306224FF472715C
:102F7000CDE90067FFF7C6FEB4230393204604940F
:102F8000029509224FF472714FF0C808CDE900672D
:102F9000FFF7B8FE2046049402950C224FF472719C
:102FA000CDE90067CDF80C80FFF7ACFE2046049415
:102FB00002950E224FF47271CDF80C80CDE90067B6
:102FC000FFF7A0FE1F4B204C1968204B41F28832BE
:102FD0008A42A8BF0A4622EAE27202EB820102EBB1
:102FE000C10284FB02141444D217C2EB2434C4F58A
:102FF0008074A4B2581C03F6583510F8012C04FB59
:1030000002F2121200F8012C59789A7804FB01F1AF
:1030100004FB02F20912121259709A7003339D4296
:1030200000F10300E9D106B0BDE8F081AFF3008004
:10303000000000E051B8AE3F000000A09999B93FF0
:10304000D496FF1F78EDFF1F1F5BACD1A4B3FF1F09
:103050002DE9F04F93B0CDE908231C9C444D0A950F
:10306000A4F108030B93CDE90C0104F120030F93A5
:1030700000230E930E9805F07DFD02460B46DDE918
:103080000C0105F029FC0B46024605F0D9FDCDE9FF
:1030900006010023DDF83C809946484605F06AFDAC
:1030A00002460B46DDE9080105F016FC02460B4618
:1030B00005F0C6FD00222F4B05F0C2FDDDE9062319
:1030C00005F00CFC05F0E6FACDE902011D9805F0CB
:1030D00051FD4FEA89030B9E1E9F059382468B4646
:1030E000F6E90223DDE9020105F0F6FB05460C4690
:1030F000284621460022002306F032F8002834D06A
:103100002846214652465B4606F00CF898B9B04571
:1031100007F10107E4D109F10109B9F10B0FBCD1A5
:103120000E9B0A9A01332C32162B0E930A92A1D1D0
:1031300013B0BDE8F08F0A9B05993A785C580E49A8
:103140000E4D0123009311A8FF23FDF78FFB0B4BBE
:103150009DF844009DF845109DF8462004EB44047A
:103160002344285559709A70D1E704F10044C7E709
:10317000D4A3FF1F0000084028D7FF1FFCBEFF1F7D
:103180002DE9F04F604E336889B0DB07039074D5AA
:103190005E4D5F4C2B68079394E80600079B5B1A13
:1031A0009A4240F282805B485B4B5C4A1B68D35C6E
:1031B000022B00F08C80574FDFF87481DFF874A188
:1031C000574E07F1280B57F8043B0A2B26DC002446
:1031D0000125B94601E059F8043C009504EB84014F
:1031E000C3F10A0204EB410313444E495AF8237019
:1031F00098F80020FF2304A807EB4707FDF736FBEC
:103200000134F3199DF810009DF811109DF812205B
:10321000F055582C59709A70DDD14F46BB4508F1D6
:103220000408D0D1039B2BB33D4C651C04F65836E3
:1032300015F8013C03EB431203EB4203C3EB83039A
:103240001B1205F8013C6278A37802EB421003EBF5
:10325000431102EB400203EB4103C2EB8202C3EBDA
:10326000830312121B126270A3700334A64205F18D
:103270000305DDD109B0BDE8F08F304602F0DCFA7D
:10328000224D234C40B12B680593059B23603C23C2
:103290003046636002F0D6FA2B68079394E8060084
:1032A000079B5B1A9342FFF47EAF2B681948069385
:1032B000069B236000F12801034653F8042B0A2AD9
:1032C000DCBF013243F8042C9942F6D16CE7164D6D
:1032D000164C2B882168164E03EB432203EB820326
:1032E00003F5585319339BB203EB1322D2B246F8BD
:1032F00021204A1C00260A2A08BF324640F82160D5
:103300002B80226057E700BF04EEFF1FACF2FF1FC7
:1033100070EDFF1FECECFF1F1CEDFF1F14F0FF1FF3
:10332000FCBEFF1F28D7FF1F0096FF1FFCEFFF1FEB
:103330006CD7FF1FD4A3FF1F0120FFF721BF00BFE1
:103340000020FFF71DBF00BF2DE9F04F764B774AF5
:103350001B68D35C8BB0022B059000F09D807448F5
:10336000744E7549DFF800A201238DE84900002260
:10337000724B0020FFF76CFE714B724A0493049964
:10338000A1F5727901F5727801F5F26701F2BC7B63
:103390008C4659F8044B5CF8043B57F8041B58F86A
:1033A000040B04EB440403EB43031AF80460D65403
:1033B0000AEB040E13449EF801509EF802405D7023
:1033C00000EB400001EB41019C7002EB000E531832
:1033D0005F4516548EF801508EF8024056545D70C9
:1033E0009C70D6D1049B58492C338B420493C6D190
:1033F000564E3368DB077AD5554C564D23680993F2
:1034000095E80600099B5B1A9A421AD8236808932C
:10341000474C089B2B6004F12805F4E80267002262
:103420004D4B3046394605F07DFE3DA3D3E90023E0
:1034300028B13046394605F051FA44E90201A54267
:10344000EBD1059B2BB33F4C651C04F6583615F8A1
:10345000013C03EB8302C2EB021203EB42031B129B
:1034600005F8013C6278A37802EB820003EB83014C
:10347000C0EB0010C1EB011102EB400203EB410372
:1034800012121B126270A3700334A64205F10305E9
:10349000DDD10BB0BDE8F08F304F314D3B88314C62
:1034A00029782268234EDFF8C49003EB432003EB16
:1034B000800303F5585319339BB203EB1320C0B2BA
:1034C000C0EB0010283101EBA01119483B80042A01
:1034D000CBB200EBC207B3544FF0000802F1010277
:1034E00008BF00222B70C7E90089226039E7304607
:1034F00002F0A2F9164C174D40B92368099395E8DC
:103500000600099B5B1A934280D29AE723680793CF
:10351000079B2B60022330466B6002F093F9ECE7C7
:10352000000000A09999D93F1CEDFF1F14F0FF1F68
:103530005896FF1F4CD6FF1F000026400000164083
:103540009CA7FF1FFCBEFF1F64ABFF1FDCECFF1F2F
:10355000ACF2FF1F54CAFF1F000030400096FF1F4F
:1035600070EFFF1F20D8FF1F68CAFF1F0000E03F59
:103570000120FFF7E9BE00BF0020FFF7E5BE00BF56
:10358000F0B57A4B83B05D789978DA781C788DF84D
:10359000045001A88DF805108DF8062006F092F968
:1035A00022460346054672497248613C02F004F81F
:1035B000192C21D8DFE804F0252B312020202020F1
:1035C000202020200D203743204A505620202076EE
:1035D0007A22694B694C002D00F0B28002221A60F9
:1035E00025600E21664803F0ABFE2168614802F0B9
:1035F00031F8604801F0C8FF03B0F0BD614B1D60B9
:10360000FAE7614A5C4B156003221A60F4E75A4AF4
:103610005E4B042111601D70EEE700355C4B18BF56
:1036200001251D70E8E75B4C5248216802F012F852
:10363000504801F0A9FF504B22681A60DCE7002DCA
:1036400078D0544A4C4B12681A60D5E70035524B7B
:1036500018BF01251D70CFE7474A504B0421116068
:103660001D70C9E74E4E0024962D34602BDCDFF828
:1036700048E1A5F16403DBB225467246012103E06F
:1036800044B9013114295ED052F8040B9842F7D1A5
:1036900042F8045C132961D0106842F8040C1560EC
:1036A0000124EEE7344B01221A60A5E73D4B3E4C66
:1036B0001D60284605F05EFA00223C4B05F0EAFB4F
:1036C000C4E9000198E73A4905F1380001F14C07D7
:1036D000C0B23D460C460B4653F8042F904209D029
:1036E000AB42F9D1002351F8042F002A32D0013324
:1036F000132BF8D132682346002053F8041F31B34E
:103700009F4202F101024FF00100F6D1326054F8FD
:10371000042F2849174801F04FFFA742F7D1154859
:1037200001F032FF3168134801F094FF114801F0B5
:103730002BFF61E7104B174A196811601D605BE7AA
:1037400001221A604DE71A4C04F14C07D2E7002819
:10375000DDD0DBE7184A42F82300CBE7144C002306
:1037600004F14C07CEF84830C4E700BF5CCAFF1F25
:1037700030DE00000498FF1FE096FF1FD896FF1F61
:103780004CDE0000D096FF1F24EDFF1FDC96FF1FCC
:10379000B4EFFF1F8096FF1F01F0FF1FD8ECFF1F43
:1037A0005096FF1F64EFFF1FC896FF1F000059408F
:1037B0000096FF1F5CDE00000496FF1FF8B5124E56
:1037C000124D134F02F056FD00B9F8BD3478002CAD
:1037D000FBD102F05FFD2B78C0B23BB13E280D4B10
:1037E00009D01A78511CB8541970EBE73C28E9D17C
:1037F00001232B70E6E7074B2C7019781C7001220F
:103800007C543270DEE700BF00F0FF1FE0ECFF1FCA
:103810005CCAFF1F58D7FF1F10B5054CFFF7CEFF3E
:1038200023781BB1FFF7ACFE0023237010BD00BF4F
:1038300000F0FF1F2DE9F047DFF8F880DFF8F8907F
:10384000D8F80030FF2B49D013B9D9F8003093BB1A
:10385000304B314D1B78314A314C52F82330314EC8
:1038600098472A78304B53F82230984798F800A0B0
:1038700004F6583725463146284652460335FCF7AC
:10388000C7FFBD4206F10306F5D1D8F80030274D39
:10389000C3F1FF03DEB22946204632460334FCF76B
:1038A000B7FFBC4205F10305F5D1D8F80030C9F8DF
:1038B0000030BDE8F0871E4916480B88164D03EB13
:1038C000432203EB820202F55852193292B202EB04
:1038D0001223C3F381130A800370BCE7D9F80030C8
:1038E000FF2B15D012490C4D0B8803EB432203EB41
:1038F000820303F5585319339BB203EB1322D2B260
:10390000C2EBC20212120B802A70024B1B78A2E794
:10391000014DFAE764D7FF1FB4A3FF1F8896FF1F6E
:1039200068CAFF1FFCBEFF1FA896FF1FA4B3FF1F9E
:103930000096FF1F80EDFF1F94D7FF1F2DE9F04F6A
:10394000B74B1B788FB0002B00F08C80B54E3368DE
:10395000DB0740F1A680B44DB44C2B680D930D9B52
:10396000B34822886188A0FB0303C2EB93139BB288
:10397000994277D8AF48296803880C9103EB43211B
:1039800003EB8103AC4AAD4D1268A94E03F55853C1
:1039900019339BB203EB1321C9B2D2B202FB01F27D
:1039A00012120C9955F82250A54A0380A6FB011368
:1039B0009B0952F825802380002758F82730DBB276
:1039C0000137FF2BBFB2F8D1D8F8003007974FF07E
:1039D000FF324FEA13690692C3F3072BC3F3074A7A
:1039E0000024CE4658F8045F9648C5F30727C5F370
:1039F0000746F9B24FEA241C0491F1B205915FFA2F
:103A00008CF103910799ECB20F29C5F3076509AA58
:103A10004FEA14135FFA85F90CD806998C4507DC38
:103A20000F2905D00131C9B28B42039138BF0B4633
:103A300059B206910AA9009103998DF824B08DF826
:103A400025A08DF826E08DF828708DF829608DF876
:103A50002A50FCF76FFEFF2CDDF810B0DDF814A043
:103A6000CE46BFD1784B1B68013B082B16D8DFE848
:103A700003F041547A8DA1B405672E00734C744D48
:103A8000FDF73CFD04F6583629462046FF22033454
:103A9000FCF7BEFEB44205F10305F5D10FB0BDE859
:103AA000F08F304601F0C8FE5F4D002840F0A9803D
:103AB0005E4C2B680D930D9A5D4823886188A0FBAE
:103AC0000202C3EB92139BB29942CBD852E75F4CF0
:103AD0005F4DFDF797F904F6583629462046FF2238
:103AE0000334FCF795FEB44205F10305F5D10FB0A0
:103AF000BDE8F08F554C564DFDF7CEFA04F658361A
:103B000029462046FF220334FCF782FEB44205F129
:103B10000305F5D10FB0BDE8F08F4C4C4C4DFDF7CF
:103B20004BF804F6583629462046FF220334FCF7AA
:103B30006FFEA64205F10305F5D10FB0BDE8F08F89
:103B4000424C434DFDF7DEFD04F65836294620462B
:103B5000FF220334FCF75CFEB44205F10305F5D106
:103B60000FB0BDE8F08F394C394DFDF71FFF04F65B
:103B7000583629462046FF220334FCF749FEA64268
:103B800005F10305F5D10FB0BDE8F08F01202F4CF2
:103B9000304DFFF7F5FA04F6583629462046FF2245
:103BA0000334FCF735FEB44205F10305F5D10FB03F
:103BB000BDE8F08F254C264DFFF79EF904F65836E8
:103BC00029462046FF220334FCF722FEB44205F1C9
:103BD0000305F5D10FB0BDE8F08F01201B4C1D4D42
:103BE000FFF7B2FB04F6583629462046FF2203347D
:103BF000FCF70EFEB44205F10305F5D10FB0BDE8A8
:103C0000F08F2B680B930A4A0B9B084CA2FB0323F3
:103C10009B090A2230462380628001F013FE48E7A8
:103C200001F0FF1FB8A3FF1FACF2FF1F08EEFF1F3C
:103C3000D34D62100096FF1F5096FF1F0496FF1F82
:103C400074DD000028D7FF1FD896FF1F68CAFF1F2A
:103C5000A4B3FF1FFCBEFF1F2DE9F0410D4CDFF8A0
:103C600040800D4F0D4E82B004F6583598F8001084
:103C70003A7833788DF8051001A8214603348DF881
:103C800006208DF80430FCF751FEAC42EED102B0B4
:103C9000BDE8F08168CAFF1FDC96FF1FD8ECFF1F4C
:103CA0008496FF1F2DE9F047DFF8B0E02A4FDEF8D9
:103CB0000060BC46BA464FF0000909F00105721CCD
:103CC0004FEA89085146002309E044F808002C33E4
:103CD000B3F5F26F02F10102A1F12C0107D00CEB58
:103CE0000304501E002DF0D0C1F86407EFE709F17E
:103CF0000109B9F10B0F06F12C060AF1040ADCD117
:103D00004FF0000C0CF00105721CA7F5F264394667
:103D10003B4608E0C3F81C0F2C3BA34202F1010212
:103D200001F12C010BD0501E002DF3D02C3BA342EF
:103D3000C1F8B80702F1010201F12C01F3D10CF135
:103D4000010CBCF10B0F06F12C06A7F10407D9D129
:103D5000CEF80060BDE8F087D4A3FF1F0CEEFF1F74
:103D60000D4B1B68042B15D8DFE803F00907051479
:103D70000300FFF771BFFFF7E1BDFFF75BBD074B26
:103D8000002203F658311A705A709A7003338B422E
:103D9000F9D17047704700BFE096FF1F68CAFF1F48
:103DA00010B50B4B0B4C1B682370FFF735FDFEF76E
:103DB0002FFEFFF7D5FF204640F2DC510022FCF732
:103DC00095FC21782046BDE81040FCF7B9BB00BF48
:103DD000D096FF1F64A3FF1F2DE9F0437B4F7C4C5F
:103DE0003A68DFF83C82C4F80080002385B0637233
:103DF00023612372E3600AB9E2E01A465369002B9B
:103E0000FBD154610026734D734B71486661A680E7
:103E1000E680A672236000F003FF042005F128026B
:103E2000334631462E72EE60C5F8008068722A6112
:103E30002E4600E0326942F823106A7A6548013361
:103E40009A42F7DC3A68614B0AB9BBE01A465369FB
:103E5000002BFBD15561614EDFF8C8C1C6F8008068
:103E600000214FF480304FF0010E06F5A25286F883
:103E700009E00B4632616961A980E980A97231725B
:103E8000F160B646C5F800C0A861E86128626862C2
:103E900001E0DEF8102042F82310727A4F48013317
:103EA0009A42F6DC3A68494B0AB98DE01A465369E2
:103EB000002BFBD1566141F23C4241F23D430027C9
:103EC000DFF8648146494748B754F7543A4601231E
:103ED0003160C6F818044FF480617761B780F780CD
:103EE000B7724148DFF8449104F078F8404688E81A
:103EF000300088F8087088F80970C8F80C7088F8E5
:103F0000107001F0F9F8394A3949404604F042F995
:103F1000DFF81C81C9F80C700123484689F8083085
:103F200089F8093089E8300089F8107001F0E4F868
:103F30002E4A2F492F4C484604F02CF9404688E879
:103F4000600088F8087088F80970C8F80C7088F864
:103F5000107001F0D1F8254A2549404604F01AF9BD
:103F6000254B264A1A6026480A221A7200F0D4F815
:103F700004F5A0752046143400F0CEF8A542F9D11E
:103F8000204800F0C9F8204B204803F140010268A6
:103F90000392039A43F8042B8B421C4AF7D113680F
:103FA0000193019D13680293194C1A4B029A1A4906
:103FB0001A4825601A60FEF703F905B0BDE8F083E2
:103FC0003C601FE7186046E7186074E778F2FF1F4F
:103FD00024D8FF1F88EDFF1F7CE7000084D8FF1F57
:103FE00054DF000074DF0000C8ECFF1FFC95FF1FCA
:103FF000DD1B000024EEFF1F04F0FF1F60DF000048
:10400000BCA3FF1F10EEFF1F74EFFF1FACF2FF1FDA
:104010006CEDFF1F14EDFF1FD0DD000028D7FF1F40
:10402000B0DC000088E700005CD6FF1F78B3FF1FFC
:104030008CB3FF1F38B54FF4E1312B4801F032FA51
:10404000642001F0ABFD0F21284803F079F92848DE
:1040500001F09AFAFEF712F92648036813F00104FA
:104060001FD0254C254926484FF4F2720023FCF757
:10407000FFF901212046FCF725FB4FF47A7001F08F
:104080008DFD204BE3604CF25033A360FFF70AFE36
:104090000F211D4803F054F91548BDE8384001F0E0
:1040A00073BA01F0C9FB0028DBD01849144B08682B
:1040B0005C60FF2201255C619C609D741A735A73D9
:1040C0009A73DA731A745A7460B1114A116801B1A3
:1040D0008B60104913600748196000229A6101F053
:1040E000B1FBBEE70B60F0E70897FF1F64DE00003E
:1040F0000498FF1F8CA3FF1F64A3FF1F68CAFF1F44
:1041000090A3FF1F010B000074DE000074A3FF1FCB
:1041100084A3FF1FBCDC000000220021016042607C
:104120008260C26002617047002300220260436027
:104130008360C360036170472DE9F041066804465F
:104140000D464EB94068A160E16005F0A7F8012373
:1041500060602360BDE8F0818168284605F044FB7B
:1041600060B3A5606168284605F098F88046701C29
:104170000128C4F8048020601ED905F03FF90146EB
:104180000746404605F046FA294605F085F80546FB
:104190000146384605F08AF9294605F087F90546B3
:1041A000304605F02BF90146284605F033FA014662
:1041B000206905F073F82061BDE8F081E1682846C8
:1041C00005F030FB0028CDD0E560CBE703684BB1AC
:1041D00010B50446184605F011F90146606805F06F
:1041E00019FA10BD004870470000C07F03680BB982
:1041F0000848704710B50446184605F0FFF8014618
:10420000206905F007FA04F0C7FC04F043FA04F053
:10421000EFFF10BD0000C07F08B5064A064B1279BB
:104220001A7001F097FC054A054B106000221A70C5
:1042300008BD00BF48F0FF1F1F8000402CF0FF1F8B
:1042400044F0FF1F10B5044601F086F8204610BD6B
:10425000F0B4064F064E074D074C39809DF81010FC
:1042600032602B602170F0BC704700BF34F0FF1F3C
:1042700030F0FF1F40F0FF1F28F0FF1FF8B5A24BE2
:10428000A24E1C88306804EB4404E400224600215E
:1042900005F08EFE9E4B1868002800F00381224630
:1042A000002105F085FE9B4B9B4F9C4DFF221A6021
:1042B0000121022001F048FC01210E2001F044FC04
:1042C0000121072001F040FC0121082001F03CFC05
:1042D0000121062001F038FC0121142001F034FCFA
:1042E0000121152001F030FC0520012101F02CFCFA
:1042F0008B4B8C4A1B788C49DFF858C203F0F003D3
:10430000102B4FF0080E4FF000030CBF59202C204B
:1043100013603B600860C2F800E0A1F5DB210CBF30
:104320004FF0150E4FF00A0E4FF06902CCF8002046
:104330007E482A60A1F5F861C7F80CE0DFF808E2D2
:104340007B4A0CBF3D251E2505600A60DEF8002073
:10435000784DD371022191717748D1881060156131
:10436000D58B938021F4E06121F00701D360938223
:1043700093612F044FF001039360D18000F1958089
:10438000B4F5004FA1B2C0F28A80958B6B4FD6F87E
:1043900000C03B686A4EADB245F008059583002524
:1043A0000222DD719A71C3F800C0DA88D983D982FC
:1043B0001E616642DE60DE8B9D8222F4E0629D61BA
:1043C000012522F007029D809D603504DA8000F10E
:1043D0008980B4F5004F5FDB9A8B5A4D92B242F060
:1043E00008029A832B684B4A1860022098710020BB
:1043F000D8711A61DA88988022F4E06222F007020C
:10440000D86098829861D88BDA8001229A60020481
:104410005AD4B4F5004F3CDB9E8B9EF804404A4AC8
:1044200046494848B6B246F008069E839E8B04F182
:104430008044B6B204F5043446F002069E8300269A
:10444000B223267023703B7903F1804303F50433D4
:10445000A2241E701C702B7903F1804303F50433F2
:10446000A3241E701C7000F091FF2A793748384D44
:1044700053119B0003F1604302F1100403F5614303
:1044800002F01F02012101FA02F240F824501A60E2
:10449000F8BDD983D982BFE7D983D9829CE7D1837C
:1044A000D18272E732681A60FDE6B4F5007F28DA3F
:1044B000D38BA1B203F47E430B43D383D38A03F49B
:1044C0007E430B43D38260E7B4F5007FA4DADA8B36
:1044D00002F47E420A43DA83DA8A02F47E4211430E
:1044E000D98299E7B4F5007FBFF676AFDA8B02F494
:1044F0007E420A43DA83DA8A02F47E420A43DA828F
:104500006AE7A1B241E700BF34F0FF1F30F0FF1FA0
:1045100040F0FF1FC8F00F4004800B4014800B4098
:1045200028F0FF1F00800B4008800B4018800B40D4
:1045300000030100C4F00F400497FF1F50F0FF1F5D
:10454000C0F00F4048F0FF1F38F0FF1F0090FF1F22
:10455000194200000C800B40F8B52C4C2378002B3E
:10456000FCD12B4A2B4B11681868814206D02A4B8C
:104570001A8802EB4202D20001F07CF8274D01F0CC
:10458000E9FA2B68C01AB0F5967FF8D3244825497C
:10459000254A282303600B60136872B610390A6835
:1045A0009342FCD221490A689342FCD31F48026817
:1045B0001E499342FBD81E4E1E4D1F4837792E7957
:1045C000174BDFF87CE0174A002505600D600121DC
:1045D00021701A4D28244FF48021CEF800101C6061
:1045E0006921D3F800E02D7919606FF47F6EA3F58F
:1045F0002F23734414600824D2F800E011601F7068
:104600001E701D70046062B6F8BD00BF44F0FF1F4D
:1046100040F0FF1F30F0FF1F34F0FF1F2CF0FF1F92
:104620000C800B4014800B4010800B4004800B402A
:1046300038F0FF1F50F0FF1F00800B4048F0FF1FB5
:10464000A0A004402DE9F041DFF85480104D114C3A
:10465000114F124E4046002100F01AFE2A46214614
:10466000404603F097FD3846002100F011FE2A462F
:104670002146384603F08EFD3046002100F008FE4A
:104680002A4621463046BDE8F04103F083BD00BF15
:10469000FC95FF1F4542000050F0FF1F48F0FF1F30
:1046A00038F0FF1FF8B50021054600F0F7FC0028A0
:1046B00000F0D08041F23C43EB5C072B00F2CA8053
:1046C000DFE803F0C9D0D7DEE5ECF304D5F81C74BD
:1046D000C5F8380405F587643B1D224607F5827747
:1046E00005F23C4133F8026B42F8046F9F42F9D166
:1046F000D5F8207405F5C7623B1D07F5827733F8BE
:10470000026B42F8046F9F42F9D1D5F8247405F684
:1047100038023B1D07F5827733F8026B42F8046FCD
:104720009F42F9D1D5F8287405F638223B1D07F5CC
:10473000827733F8026B42F8046F9F42F9D1D5F8C3
:104740002C7405F638423B1D07F5827733F8026B6F
:1047500042F8046F9F42F9D1D5F8307405F63862FB
:104760003B1D07F5827733F8026B42F8046F9F42D6
:10477000F9D1D5F8347405F581523B1D183207F58F
:10478000827733F8026B42F8046F9F42F9D105F546
:104790009152031D183200F5827033F8026B42F813
:1047A000046F8342F9D1D5F8180480B105F5886209
:1047B00000F5006732F9043C30F9026B03FB06F3A5
:1047C000DB13874222F8043C02F10402F2D105F522
:1047D000A2500430384E03F0E3FB05F2164705F112
:1047E000160054F8041F21FB01F1B1FA81F336F8E9
:1047F0001320B1FBF2F31A445308B1FBF3F10B445D
:104800005B0820F8023FB842EBD141F23D43012260
:10481000EA54D5F81C0400F0FDFBD5F8200400F0A4
:10482000F9FBD5F8240400F0F5FBD5F8280400F0D6
:10483000F1FB41F23C430422EA5405F586610EC9BE
:10484000D5F82C04C5F81C04C5F82014C5F8242498
:10485000C5F82834F8BD41F23C430122C5F81C04D8
:10486000EA54F8BD41F23C430222C5F82004EA5460
:10487000F8BD41F23C430322C5F82404EA54F8BDD4
:1048800041F23C430422C5F82804EA54F8BD41F241
:104890003C430522C5F82C04EA54F8BD41F23C43E0
:1048A0000622C5F83004EA54F8BD41F23C43072221
:1048B000C5F83404EA54F8BD8CE7000000207047C6
:1048C00000207047F8B5144C037A242908BFC28031
:1048D0005B0001250E462046C1F30721174684F8E8
:1048E0003B3084F85E5084F85D5003F09BFCF1B2DD
:1048F000204603F097FCC7F30721204603F092FC03
:10490000F9B2204603F08EFC2946204603F02CFE27
:10491000B0FA80F04009F8BDC098FF1F70B50126BD
:1049200004460671344803F091FC052001F036F985
:10493000204644F260023021FFF7C4FF05460028FC
:1049400058D06C2226212046FFF7BCFF4FF4F972A5
:1049500028212046FFF7B6FF40F622722C21204680
:10496000FFF7B0FF44F246423C212046FFF7AAFF82
:1049700040F2371224212046FFF7A4FF44F2FF0241
:1049800030212046FFF79EFF732202212046FFF7C9
:1049900099FF4FF4C87001F001F941F61D522E2124
:1049A0002046FFF78FFF042211462046FFF78AFFBB
:1049B0004FF4987206212046FFF784FF10220A2147
:1049C0002046FFF77FFF00220E212046FFF77AFFE7
:1049D00043F63C4210212046FFF774FF47F67F72F2
:1049E00022212046FFF76EFF362224212046FFF7C2
:1049F00069FF6672284670BDC098FF1F10B5044657
:104A000019B1012911D0002010BD55222021FFF736
:104A100059FF0028F7D0E28842F00402204692B203
:104A20002421BDE81040FFF74DBF40F273122A2148
:104A3000FFF748FF0028E6D0882220212046FFF714
:104A400041FF0028DFD0E288204622F00402242122
:104A5000BDE81040FFF736BF38B50546F1B18029F3
:104A600003799ABFC1F1800444EA0424002433B9D5
:104A7000224628462221BDE83840FFF723BFC288DE
:104A8000002322F0100203712421FFF71BFF2246AE
:104A900028462221BDE83840FFF714BF01230371E7
:104AA00047F67F722221FFF70DFFEA8842F01002DD
:104AB000284692B22421BDE83840FFF703BF00BF6B
:104AC0000B4610B507490446184604F0EFFC0649AA
:104AD00004F0E4FB04F0D6FE01462046BDE8104099
:104AE000FFF7BABF00000143EE7CFF3E1B4A1C4BA0
:104AF00011681C48096970B499421279027009D290
:104B0000194A127832B3194A4FF08041116003F507
:104B1000807402E01C46A3F58073154A154912689B
:104B20000D68AAB1A5B1144E3088402810D84100B4
:104B30000A444030294402320231308033F9040BF8
:104B400022F8020F9C4233F9020C21F8020FF5D82B
:104B500070BC704703F58074DFE700BF64F2FF1F8D
:104B60005CF1FF1F1F8000405CF2FF1F08E200E0C5
:104B70006CF2FF1F60F2FF1F58F0FF1FF8B50646EA
:104B800000F0F4F90446E8B100F0F0F90546002819
:104B90003AD072B61F4B1A887F2A19D8002C31D010
:104BA0001D490A6842B162B6204600F033FA284631
:104BB000BDE8F84000F02EBA18480C601A80056075
:104BC00062B6F8BD054672B6124B1A887F2AE5D93F
:104BD000114A12491768146000220C681A800D608F
:104BE00062B63946304600F03FFA384600F012FA15
:104BF00030462146012200F037FA2046BDE8F84051
:104C000000F008BA62B6F8BD204600F003FA2C4660
:104C1000BFE700BF58F0FF1F6CF2FF1F60F2FF1FDD
:104C2000F8B5284C284E294F294D2046012100F087
:104C30002FFB00F0E3F8274B274A28484FF4806108
:104C40001960236800211A60998022791E6102F19F
:104C5000804240F20116DE809F6102F504324FF47B
:104C600080760627DE82DE839F8302268E27D96028
:104C70009E609E82117017702B68194E43F012438C
:104C800043F001032B600368164D43F010430360AB
:104C900000F0A4FA2279144B144C187053119B00A5
:104CA00003F16043174602F1100003F5614302F07F
:104CB0001F020121377001FA02F245F820401A6004
:104CC000F8BD00BF64F2FF1F5CF0FF1F00FEFFFF96
:104CD00080F0024014B00440A2F0024000F0024014
:104CE0001B8000400090FF1F5CF2FF1FED4A000098
:104CF000024A0349034803F04DBA00BFFC95FF1F69
:104D00004542000064F2FF1F2DE9F8434FF0000810
:104D1000064600F11805474641463046002F4FD061
:104D200000F0BCF9F0B12C68B4F5803F07F1040144
:104D300000F1040E07F5827C27D05EF8042B34FBCB
:104D400002F334FB12F903F30F0209F30F03C2EA73
:104D500003430A6893FA12F341F8043B8C45ECD8FC
:104D600000F058F908F10108B8F1040F05F1040545
:104D7000D2D1002F40D030463946002200F074F9DD
:104D80003846BDE8F84300F045B907F10C0100F1E1
:104D90000C0451F8083C54F8082C93FA12F341F82B
:104DA000083C54F8042C51F8043C93FA12F38C4557
:104DB00041F8043C04F1080401F10801E9D8CFE707
:104DC00000F078F907460028CCD02868B0F5803F7D
:104DD000C8D0391D07F582740B6830FB03F230FB35
:104DE00013F302F30F0203F30F03C2EA034341F884
:104DF000043B8C42F0D8B5E7BDE8F883284B29493D
:104E00001A68294842F400421A600A6842F0020215
:104E10000A601A6842F002021A600368002B3EDB47
:104E2000224B1B68002B3ADB214A4FF0864313606C
:104E30001368002BFCDBF0B51E4C1F48DFF8A8E020
:104E40001E491F4B1F4A204F204E214D47F2320C66
:104E5000C4F800C0002404600120CEF80000DFF890
:104E60008CE0C1F800E04FF480311960194B1360F9
:104E7000DFF87CE0184A3A603460286000F18E4028
:104E8000CEF80000154CB9671548164946F8503C55
:104E90004FF4C0632A61236003600B60F0BD70476C
:104EA0003C8004404080044000F0024080F002401A
:104EB00000F1024004F1024060F0024008F00240BC
:104EC0000CF0024010F0024014F00240E0F002400A
:104ED00084F002401B1F0100001F1F1F08B0044088
:104EE0000CB0044018B0044004F002400100000778
:104EF00088F00240024A0349034803F04BB900BF5F
:104F0000FC95FF1F4542000070F2FF1FC029F0B45E
:104F100028BFC02172B6124B124E134A18600023EC
:104F2000138033607360B360F36033617361012792
:104F300099B15D0903F01F0456F8252007FA04F41F
:104F4000013322438B4246F82520F2D100234380CF
:104F500001338B4200F58270F9D162B6F0BC704724
:104F600080F2FF1F88F2FF1FA2F2FF1FF0B472B69B
:104F7000234F244E3C8806F1180306EB8400984228
:104F800012D256F8241099B9021D06F11B05631CB4
:104F9000AD1A03EB950503E052F8041B41B9013348
:104FA000AB421C461046F7D162B60020F0BC7047F9
:104FB000B1FA81F34FF00042DA4021EA02010160C8
:104FC00001B9013410493C800A88013294B20C8046
:104FD00062B6801B8010C3EB401000EB8010830092
:104FE0000A480B49006803F5FB531C330125C554DF
:104FF0000D88AA42184488BF0C80F0BC704700BFDF
:10500000A2F2FF1F88F2FF1FA4F2FF1F80F2FF1F12
:105010007CF2FF1F428872B60378012B03D9013B53
:10502000037062B67047531170B40C4C0C4D54F8B9
:1050300023102E88D2434FF0004002F01F0220FAC6
:1050400002F21143074A44F82310B34238BF2B80C1
:105050001388013B138062B670BC704788F2FF1F53
:10506000A2F2FF1FA4F2FF1FC368B3B130B401E086
:10507000DB688BB1187A9042FAD158685C7A006983
:1050800050F82450002DF3D140F824100878013056
:105090000870DB68002BEDD130BC7047437A8B423F
:1050A00006D90369002253F8210043F821207047F4
:1050B0000020704738B5437A8B421AD9036953F8F8
:1050C0002140002243F821209CB12378012B0ED9E6
:1050D000FFF74CFF054628B14FF48072211D0430C4
:1050E00000F0C8FA2378013B2370284638BD2046DB
:1050F00038BD002038BD00BF037C23BB4368427A23
:105100005B7A9A421FD830B472B60468E3682BB356
:10511000DA6832B119688C4216D01346DA68002A70
:10512000F8D1D8600023C360A37A0133A372026868
:105130004168012313728A7A1A448A724268137290
:10514000037462B630BC70475D6841688D42E4D13B
:10515000198903899942F4D01346DFE7E060E1E75B
:10516000037C10B5002B32D04368427A5B7A9A42B6
:105170002DD872B60268D36843B3984202D129E0B1
:10518000984202D0DB68002BFAD14368417A1B6950
:10519000044653F8210048B1FFF73CFF72B663683C
:1051A000627A1B69002143F822102268937A013B3E
:1051B000937223689A7A02B91A726268937A013BF1
:1051C000937263689A7A1AB10023237462B610BD91
:1051D0001A72F9E7C368D360D7E700BF084B1A78A3
:1051E00062B930B407480849D02505704FF08044B3
:1051F00001220C6010461A7030BC704700207047C6
:1052000084F2FF1F5EE400E008E100E01A491B4A57
:105210001B48F8B50B681B4D046843F080730B60A6
:10522000136843F0010313602E6814B915E0646934
:105230009CB1237A002BFAD023682F681B68204684
:1052400098472B68E188DB1B1B099AB28B42A2802E
:1052500088BFE2806469002CEBD10A4B0A4A1B68C4
:1052600010880A4C9B1B1B0999B28342218001D9EB
:105270001180F8BDF8BD00BFFCED00E0001000E0BB
:1052800078F2FF1F041000E0A0F2FF1FA6F2FF1F3C
:10529000F0B572B699B902688AB103790F2B0ED8AE
:1052A000274C218841FA03F5ED070AD503F1007375
:1052B00003F59063B2EB431F03D162B6F0BD204CFF
:1052C0002188002341FA03F212F0010207D00133D2
:1052D000102BF7D162B6002203710260F0BD0125E8
:1052E0009D402943218062B6164E174D174FDFF8B7
:1052F00064E0D9B20171346844F0020434602C686F
:1053000044F002042C60A6F580268224A5F58025B1
:1053100003F100733C6003F59063223E243D0C4C86
:105320008EF800105B0131702970217003601A60E3
:105330005A609A60DA601A615A619A61DA61F0BD66
:10534000A8F2FF1F408004403C80044000800040E1
:105350001F8000401A80004003790F2B11D8094AA2
:1053600010B4137072B6084904790A880123A34067
:1053700022EA03030B8062B61022002310BC0271E4
:10538000036070471A800040A8F2FF1FF0B50E7945
:1053900092F804E006F0FC030EF0FC0403F18043F5
:1053A00004F1804403F5014304F501441B682468BB
:1053B000F5004FEACE0C1FBA05F0180325BA0CF021
:1053C000180427FA03F325FA04F403F00F0304F09A
:1053D0000F049C4215D981F804E016710B6814681B
:1053E0000C6013600E7906F0FC0404F1804404F5AF
:1053F0000144F300246803F0180523BAEB4003F0DE
:105400000F0390F804E00EF0FC0505F1804505F56A
:1054100001454FEACE042D6804F018072CBAFC4071
:1054200004F00F049C4215D206710C6881F804E068
:10543000036804600E790B6006F0FC0000F1804008
:1054400000F50140F300006803F0180403BAE340DC
:1054500003F00F03177907F0FC0404F1804404F50E
:105460000144F800246800F0180520BAE84000F074
:105470000F00984205D90F7116710B68106808600B
:105480001360F0BD0368C9B21B6818470368C9B24E
:105490001B6818470368C9B21B6818470368C9B27C
:1054A0001B681847084B4A08134410B50446B3FB61
:1054B000F1F000F085FC054B1B7803B110BD2046D0
:1054C000BDE8104002F0E2B8004495080198FF1FC3
:1054D00008B5084600F042FE012008BD08B50846A0
:1054E00000F03CFE012008BD38B508460D4604F02A
:1054F000C7FF04460146284600F03AFE204638BD64
:1055000010B508461446114600F032FE204610BD84
:1055100000F00CBF08B5084600F0F8FD003018BFD9
:10552000012008BD08B5084600F0CEFD003018BFC8
:10553000012008BD0846114600F062BD084600F093
:1055400099BD00BF084600F03FBD00BF00F0DABCC7
:1055500010B5064B144603EB5100B0FBF1F000F020
:105560002FFC2046BDE8104000F0A0BC0044950888
:1055700000F0C4BE00F08EBE00F07CBE00F05CBE49
:1055800000F066BE0020704700B5064A0368128826
:105590005B6883B001A9ADF804200222984703B0EC
:1055A0005DF804FB30E8000010B5036814465B6842
:1055B0009847204610BD00BF0EB400B582B003AAC4
:1055C00052F8041B019205F0A1F802B05DF804EB5B
:1055D00003B07047F0B507468BB0002A33D0012ADC
:1055E00008BF0A2251B3212400E0F4B2B1FBF2F566
:1055F00002FB1511C8B2092900F1300198BFC8B2E9
:105600000AA988BF3730214488BFC0B201F8240CF2
:10561000661E2946002DE8D133B1013CE4B20AAB45
:1056200023442D2203F8242C3B6801AA11195B683E
:105630003846C4F1220298470BB0F0BD30228DF8F5
:1056400025202124E8E70368C9B21B6898470BB0FE
:10565000F0BD00BF0029BABF49422D2300230A2212
:10566000FFF7B8BF08B5FEF7E5FCFEF799FB01F0C0
:105670006BFFFAE7844641EA000313F003036DD1A0
:10568000403A41D351F8043B40F8043B51F8043B05
:1056900040F8043B51F8043B40F8043B51F8043B0C
:1056A00040F8043B51F8043B40F8043B51F8043BFC
:1056B00040F8043B51F8043B40F8043B51F8043BEC
:1056C00040F8043B51F8043B40F8043B51F8043BDC
:1056D00040F8043B51F8043B40F8043B51F8043BCC
:1056E00040F8043B51F8043B40F8043B51F8043BBC
:1056F00040F8043B51F8043B40F8043B51F8043BAC
:1057000040F8043B403ABDD2303211D351F8043B4B
:1057100040F8043B51F8043B40F8043B51F8043B8B
:1057200040F8043B51F8043B40F8043B103AEDD2FA
:105730000C3205D351F8043B40F8043B043AF9D24B
:10574000043208D0D2071CBF11F8013B00F8013B1E
:1057500001D30B8803806046704700BF082A13D32B
:105760008B078DD010F003038AD0C3F10403D21A43
:10577000DB071CBF11F8013B00F8013B80D331F877
:10578000023B20F8023B7BE7043AD9D3013A11F8F7
:10579000013B00F8013BF9D20B7803704B78437062
:1057A0008B7883706046704708B5104C08E023681A
:1057B00059050DD423681A050FD42368DB0411D4CE
:1057C00023685803F3D500F039FF23685905F1D554
:1057D00000F0D2FD23681A05EFD500F009F8236820
:1057E000DB04EDD500F004F8EAE700BF34800440A4
:1057F00008B5FFF7D9FF00BF014B10221A80704790
:1058000000200540704700BF094908B50B6830B15A
:105810006A461844A2F58052904202D208601846A7
:1058200008BD04F059F80C2303604FF0FF3008BDA9
:105830001C97FF1FFEE700BF0078B0FA80F0400918
:10584000704700BF01230370704700BFEFF3138060
:1058500070B9EFF310836BB9EFF305825AB94FF4C7
:105860008070EFF311832BB1984228BF1846704720
:105870004FF0FF3070470F2A01D81846F1E7014B6F
:10588000D05CEEE7F0E300E004F058B8F0B44D1E51
:105890002E46002400E00134B0FBF2F302FB1300BB
:1058A000092800F130078ABF3730F8B2C0B206F8D5
:1058B000010F1846002BEED10A1953704CB1107825
:1058C00015F8016F28700133E01A834202F801696C
:1058D000F5DB0846F0BC7047704700BF10B40F4BB3
:1058E00053F8302092F880422CB1012369B182F83C
:1058F000803010BC704703EBC0035B681A6841B985
:1059000022F002021A6010BC704782F8003110BC0D
:10591000704742F003021A6010BC704734E8000080
:105920001C4A02EBC00301295B6811D004291BD07B
:1059300052F83000002280F8802229B1022920D0BC
:10594000032922D01A6070474FF480721A607047A2
:1059500052F830004FF4A27280F880121A601A6870
:1059600022F020021A60704752F830104FF4A272F1
:10597000012081F880021A601A6842F020021A6041
:10598000704740F203121A6070474FF481721A6038
:10599000704700BF34E80000212848D8F8B5042A31
:1059A00044D8DFE802F0484B4E0345004FF4102680
:1059B0002B4B03EBC0030D465C68216811F4E061DA
:1059C00048D0284B284A2949C3F89C2104F1404279
:1059D0002748C3F8A411A2F59221264FC3F8A001CD
:1059E0007C292548C3F8A871C3F8AC012CD9A2F5CD
:1059F00094237C2B2AD9A2F596237C2B28D9A2F5B7
:105A000098237C2B29D9A2F59A227C2A27D81B48D7
:105A100072B6236823F4702343F08072C4F38401C8
:105A20001643236040F82150266062B6F8BD7047E7
:105A30004FF43026BCE74FF40026B9E74FF4402678
:105A4000B6E74FF42026B3E70D48E1E70D48DFE75E
:105A50000D48DDE7FFF764FFB3E70C48D8E7F8BD72
:105A600034E800000090FF1FD195FF1F7995FF1FBC
:105A7000A595FF1F4D95FF1F2195FF1FF897FF1F4D
:105A80002097FF1F5897FF1FA897FF1FD897FF1F4A
:105A90001A4B03EBC00010B4426802F14043A3F577
:105AA00092217C2923D9A3F594217C290DD9A3F532
:105AB00096217C291FD9A3F598217C2919D9A3F512
:105AC0009A237C2B11D80E4C00E00E4C72B6136852
:105AD0000D4823F08773C2F3840123F4803343F02D
