:1000000000000320D1010000B55400006D54000031
:100010006D5400006D5400006D5400006D540000DC
:100020006D5400006D5400006D540000B554000084
:10003000B55400006D540000595000005D5100009F
:10004000B5540000B5540000B5540000B55400008C
:10005000B5540000B5540000B5540000B55400007C
:10006000B5540000B5540000B5540000B55400006C
:10007000B5540000B5540000B5540000B55400005C
:10008000B5540000B5540000B5540000B55400004C
:10009000B5540000B5540000B5540000B55400003C
:1000A000E5490000F1490000B5540000B5540000D6
:1000B000B5540000B5540000B5540000D55A0000F6
:1000C000B5540000ED6D0000B5540000196F00003C
:1000D000B554000011700000B5540000B554000084
:1000E000B5540000B5540000B5540000B5540000EC
:1000F000B5540000B5540000B5540000B5540000DC
:10010000B5540000B5540000B5540000B5540000CB
:10011000B5540000955D0000B5540000B5540000D2
:10012000B5540000B5540000B5540000B5540000AB
:10013000B5540000B5540000B5540000B55400009B
:10014000154D0000B554000009710000B5540000C1
:10015000B5540000B5540000B5540000B55400007B
:10016000B5540000B5540000FD490000B55400002E
:10017000B5540000B5540000B5540000B55400005B
:10018000B5540000B5540000B5540000B55400004B
:10019000B5540000B554000001720000B5540000D1
:1001A000B5540000B5540000B5540000B55400002B
:1001B000B5540000B5540000B5540000B55400001B
:1001C000B5540000B5540000B5540000B55400000B
:1001D0005C4B4CF2205210B51A804DF628121A8052
:1001E00000BF00BF05F06AF9574B4FF030621A604C
:1001F000564A9A60564ADA60564B4FF470021A60BB
:10020000554B564A1A60564B1A78110703D51A787F
:1002100042F008021A70534B5349AA221A70534AEB
:10022000534B8B4204D252F8040F43F8040BF8E707
:10023000504B514900228B4202D243F8042BFAE77B
:100240004E494F4A002352F8230041F8230001335E
:10025000742BF8D14B4B4C4A802103F8011B93427D
:10026000FBD14A4B454A1A60494B8A221A70A3F5C2
:10027000805324225A70A0221A709A799207FCD5D2
:100280009A79D406FCD4434A937903F00C03082BE3
:10029000FAD1414B60221A7002331A78802AFCD1BD
:1002A0003C4B01221A715D225A719A799006FCD555
:1002B0009979384A4906FBD5384B394919600021EC
:1002C000596020231370937903F00C030C2BFAD19F
:1002D000344B354A1A60354A354C136813F4807331
:1002E00003D123604FF4A8531360324B324A1A6093
:1002F00000225A60072243F8042C304AC3F80C2D20
:1003000062B605F065FA2368DA0705D52C4805F0D2
:10031000BDF92C4B2C4A1A602C4B1B785B0609D577
:10032000284C294B22689A4204D1254805F0AEF9A1
:100330000023236008F0FAFA05F0C6F804F0F4FF91
:10034000FEE700BF0E20054030800440823F0400DD
:100350000100002B88ED00E0002008E0030000858C
:1003600002D0074000E007404821FF1FC89C010061
:100370003015FF1F4821FF1FECA4FF1F0010FF1FB7
:100380000000000000E400E064E400E008ED00E0AC
:10039000005006400040064001E007404480044011
:1003A0000000060204800440C010070010D0034083
:1003B00014D0034014E000E01FBF02000000202022
:1003C000DA3531601CE00340A5C3945A00F00740C1
:1003D000FFFFFFFFFFFFFFFFFFFFFFFFFFFFFFFF2D
:1003E000FFFFFFFFFFFFFFFFFFFFFFFFFFFFFFFF1D
:1003F000FFFFFFFFFFFFFFFFFFFFFFFFFFFFFFFF0D
:10040000FFFFFFFFFFFFFFFFFFFFFFFFDEF9FFFF23
:1004100010B5054C237833B9044B13B10448AFF33E
:1004200000800123237010BD4821FF1F0000000041
:10043000CC9C0100084B10B51BB108490848AFF32C
:1004400000800848036803B910BD074B002BFBD0A0
:10045000BDE81040184700BF000000004C21FF1FFE
:10046000CC9C01004821FF1F00000000406970473C
:1004700000207047704700BF4069C000704700BF50
:1004800010B5044604F0F0FB204610BD2DE9F04FF6
:10049000866985B005460C46002E00F07181A36880
:1004A000EA69002B40F366812746183257F8148B0F
:1004B00004F1340094F813900DF10706394609F160
:1004C0000109B446BE465EF8043F43445B7843B13D
:1004D00094F80DA083FA5AF3DBB209FB03F3C3F3DC
:1004E000072386450CF8013FEDD1DDF80880039B1A
:1004F00088EAD81C83EAD31E0CF0AA1C0EF0AA1EB0
:1005000088EA0C0883EA0E0388EACC1C83EACE1E34
:100510004CF6CC488CEA9C3A8EEA9E39434609EA6E
:1005200003030AEA08088CEA080C8EEA030E8CEA38
:10053000883C8EEA833E4FEA0E184FEA1C130EF0F9
:10054000F03E0CF00F3C08F0F03803F00F3343EAB4
:100550000E0348EA0C0E4FEA1E494FEA1E684FEAA6
:10056000132C02F811EC02F8153C4FEA1E2A4FEA50
:10057000134E1B0E02F816CC02F817EC02F812AC60
:1005800002F8139C02F8148C02F8183C94F81290AC
:10059000D4F8008009F101090DF1070CBE465EF8A0
:1005A000043F18F8033043B194F80CA083FA5AF3CF
:1005B000DBB209FB03F3C3F3072386450CF8013FC5
:1005C000EDD1DDF80880039B88EAD81C83EAD31EAE
:1005D0000CF0AA1C0EF0AA1E88EA0C0883EA0E038F
:1005E00088EACC1C83EACE1E4CF6CC488CEA9C3AB6
:1005F0008EEA9E39434609EA03030AEA08088CEAB0
:10060000080C8EEA030E8CEA883C8EEA833E4FEAA1
:100610000E184FEA1C130EF0F03E0CF00F3C08F0E1
:10062000F03803F00F3343EA0E0348EA0C0E02F8E9
:1006300009EC4FEA132C02F80D3C4FEA1E2A4FEA50
:100640001E494FEA1E684FEA134E1B0E02F80AAC11
:1006500002F80B9C02F80C8C02F80ECC02F80FEC9E
:1006600002F8103C94F814C0D4F800E00CF1010C2E
:1006700051F8043F73449B7843B194F80E8083FA99
:1006800058F3DBB20CFB03F3C3F30723884206F8ED
:10069000013FEDD1029B039E83EAD31186EAD61E69
:1006A0000EF0AA1E01F0AA114B4086EA0E0683EA5C
:1006B000C11186EACE164CF6CC4381EA913886EA1F
:1006C000963C9E460CEA0E0E08EA0303594086EA61
:1006D0000E0681EA833186EA8E3633014FEA111E17
:1006E0000EF00F3E01F00F3106F0F03603F0F0335C
:1006F0000B434EEA06064FEA132A4FEA13494FEA24
:1007000013684FEA162C4FEA164E310E02F8013CE0
:1007100002F8056C02F802AC02F8039C02F8048CA3
:1007200002F806CC02F807EC02F8081CA36894F85B
:100730000CC094F80DE094F80E90266894F80FB071
:1007400094F810A0617C94F91580013BCCEB0B0C64
:10075000CEEB0A0EC9EB0101B044002B02F11802E6
:1007600084F80CC084F80DE0A173C4F80080A36085
:100770003FF7A0AEA86905B0BDE8F04F01F05EBE3E
:10078000D1F8048008EB4807FF00384608F0FAF873
:10079000E861384608F0F6F82862012004F0ECFE23
:1007A000EB692A6A00960746414601F0C3FCAF6137
:1007B000384601F0D5FC72E6F0B591B0002305682B
:1007C0008DF800308DF801308DF802302E683A4AED
:1007D0008DF8043096428DF805308DF8063064D1DE
:1007E000827C0391012A044604918DF81A308DF819
:1007F0001B308DF81C30CDF808D01AD08DF8193088
:100800008DF818308DF817308DF816308DF81530BA
:100810008DF8143000228DF81D2007AB0FA943F886
:10082000042F9942FBD1AB69204602A9984711B029
:10083000F0BD224A1378013303F0070313F0010FD0
:1008400014BF8021002113709A0744BF41F040017A
:10085000C9B25B0748BF41F0200110310022C9B284
:100860000DF117030DF11A074FF4807EAAB19EFB1C
:10087000F2F2D2B2501CC0B200FB01152D1218705A
:10088000EEB205B1013E03F8036C00B11A700133FA
:100890009F4208D0DA78002AE9D11A7003F8032CB5
:1008A00001339F42F6D12568B4E70A4601AB694699
:1008B000B04711B0F0BD00BFC10800006421FF1FA8
:1008C000F0B5857C1C785E789B788FB0012D8DE823
:1008D000060002928DF812408DF813608DF81430E6
:1008E0001BD000238DF811308DF810308DF80F30AB
:1008F0008DF80E308DF80D308DF80C3000228DF80B
:10090000152005AB0DA943F8042F8B42FBD10368DA
:1009100069469B6998470FB0F0BD1B4A13780133B5
:1009200003F0070313F0010F137014BF802200229D
:10093000990744BF42F04002D2B25B0748BF42F081
:1009400020021032D2B20DF10F030DF112074FF455
:10095000807EACB19EFBF4F4E4B2611CC9B201FB31
:1009600002252D121970EEB205B1013E03F8036C99
:1009700001B11C7001339F42C0D0DC78002CE9D15A
:100980001C7003F8034CF5E76421FF1FF0B5857C6C
:100990001C785E789B788FB0012D8DE8060002925E
:1009A0008DF812408DF813608DF8143020D000239C
:1009B0008DF811308DF810308DF80F308DF80E3025
:1009C0008DF80D308DF80C30032100238DF81510B3
:1009D00002EB4202194605AC0131082944F8043FF4
:1009E0001344F9D1036869469B6998470FB0F0BD7D
:1009F0001B490B78013303F0070313F0010F0B7051
:100A000014BF802100219D0744BF41F04001C9B2BD
:100A10005B0748BF41F020011031C9B20DF10F034F
:100A20000DF1120E4FF4807CACB19CFBF4F4E4B2F7
:100A3000651CEDB205FB011636121D70F7B206B14A
:100A4000013F03F8037C05B11C7001337345BBD033
:100A5000DC78002CE9D11C7003F8034CF5E700BFEB
:100A60006421FF1F2DE9F04F8BB00027069051F84D
:100A70002730DBB20137FF2BBFB2F8D10B680797E5
:100A80004FEA1368C3F3072BC3F307494FF0FF3353
:100A9000C64600240593884658F8045F0698C5F3B7
:100AA00007274FEA241CC5F30746ECB2F9B2C5F399
:100AB00007650391E9B204915FFA8CF102910799FD
:100AC0000F2908AA4FEA14135FFA86FA0CD8059981
:100AD0008C4507DC0F2905D00131C9B28B42029148
:100AE00038BF0B4659B2059109A9009102998DF8BA
:100AF00020B08DF821908DF822E08DF824708DF8CB
:100B000025608DF8265001F09FFEFF2CDDF810E0E7
:100B1000DDF80CB0D146BFD106980BB0BDE8F08F20
:100B200038B54FF4FA6004F001FE4FF47A7004F027
:100B3000FDFD294802F0EEF8D8B9284C03460C21F7
:100B40002748236005F0D0FF264804F025FB264DFA
:100B500026480C2103F058FF284602F025FA2368A6
:100B600093B1012B20D0224B4FF400429A61DA61FD
:100B700038BD1A4C1F4801230C21236005F0B4FF37
:100B8000184804F009FBE2E755222021284602F02C
:100B9000DFF90028E7D0EA8842F0040292B2284642
:100BA000242102F0D5F9DEE740F273122A2128460B
:100BB00002F0CEF90028D6D088222021284602F063
:100BC000C7F90028CFD0EA88284622F00402242161
:100BD00002F0BEF9C7E700BF5C32FF1FF830FF1F0D
:100BE00004950000E416FF1F6C9AFF1F0002FF1F10
:100BF0001098FF1FF49400002DE9F84F104C114F8E
:100C0000114EDFF848B0DFF848A0DFF8489004F54F
:100C1000A0780025204601F0CBFF143402230C21DC
:100C2000CBF8003044454FF0080347F8045F46F81E
:100C3000045FCAF80030C9F80010EBD1BDE8F88FA6
:100C4000A098FF1F249AFF1FB430FF1FAC97FF1F0F
:100C5000789AFF1F1832FF1F70B51F4B84B0002415
:100C600053F8042F092A04F1010129DCCCB2102C1D
:100C7000F6D11A4D1A4E2B680093009B3168194A21
:100C80005B1A934211D92B680193019B3360FFF7E4
:100C9000B3FF0B2C09D82B680293134A134B02990C
:100CA000116000221A7004B070BDFFF7A5FF2B6819
:100CB0000393039A0D4B326001221A7004B070BD89
:100CC000064D074E2B680093009B3168054A5B1A5E
:100CD0009342DED9D7E700BFD431FF1F9CA0FF1F8E
:100CE0003833FF1FE0930400FC97FF1FE099FF1FBC
:100CF0002DE9F84FE64BE74A2DED028B03F140005A
:100D000053F8041F42F8041F9842F9D1DFF8C49346
:100D1000DFEDE18AB9F81830DFF8B48307EE903AD6
:100D2000DE4BF8EE677AD3E9006767EEA87A4C46A7
:100D300017EE900A07F068FA32463B4607F0B8FA19
:100D40000022D74B07F0B4FA07F062FDB9F81A3069
:100D5000C8F8000007EE903AF8EE677A08EE100A3D
:100D600067EEA87A09F1360517EE900A07F04CFAFB
:100D700032463B4607F09CFA0022C94B07F098FA2E
:100D800007F046FDB9F81E20B9F81C30C8F8040079
:100D9000134407EE903AF8EEE77A67EEA87A17EE7A
:100DA000900A07F031FA32463B4607F081FA0022FA
:100DB000BB4B07F07DFA07F02BFDB9F82010B9F80E
:100DC0002230B9F82420C8F808000B44134407EE79
:100DD000903AF8EEE77A67EEA87A17EE900A07F0F5
:100DE00013FA32463B4607F063FA0022AC4B07F099
:100DF0005FFA07F00DFDB9F828E0B9F82630B9F828
:100E00002A1034F82C2FC8F80C0073440B441344F8
:100E100007EE903AF8EEE77A67EEA87A17EE900AB6
:100E200007F0F2F932463B4607F042FA9C4B0022AB
:100E300007F03EFA07F0ECFC0023C8F8100034F885
:100E4000022FA5421344FAD107EE903AFBEEC97A7D
:100E5000944C17EE900A07F0D7F932463B4607F05C
:100E600027FA00228E4B07F023FA07F0D1FCC8F8CE
:100E70001400002035F8023FAC421844FAD107EEC6
:100E8000900AFBEEC97A884D17EE900A07F0BCF97C
:100E900032463B4607F00CFA0022814B07F008FA75
:100EA00007F0B6FCC8F81800002034F8023FA5424D
:100EB0001844FAD107EE900AFBEEC97A7B4C17EE84
:100EC000900A07F0A1F932463B4607F0F1F90022FB
:100ED000734B07F0EDF907F09BFCC8F81C000020ED
:100EE00035F8023FAC421844FAD107EE900AFBEE07
:100EF000C97A6F4D17EE900A07F086F932463B46E5
:100F000007F0D6F90022664B07F0D2F907F080FC13
:100F1000C8F82000002034F8023FA5421844FAD156
:100F200007EE900AFBEEC97A624C17EE900A07F0C2
:100F30006BF932463B4607F0BBF90022584B07F0ED
:100F4000B7F907F065FCC8F82400002035F8023F27
:100F5000AC421844FAD107EE900AFBEEC97A564D1E
:100F600017EE900A07F050F932463B4607F0A0F919
:100F700000224B4B07F09CF907F04AFCC8F8280008
:100F8000002034F8023FA5421844FAD107EE900A37
:100F9000FBEEC97A494C17EE900A07F035F9324654
:100FA0003B4607F085F900223D4B07F081F907F039
:100FB0002FFCC8F82C00002035F8023FAC42184442
:100FC000FAD107EE900AFBEEC97A3D4D17EE900A72
:100FD00007F01AF932463B4607F06AF90022304B17
:100FE00007F066F907F014FCC8F83000002034F868
:100FF000023FA5421844FAD107EE900AFBEEC97AE7
:10100000304C17EE900A07F0FFF832463B4607F0E7
:101010004FF90022224B07F04BF907F0F9FBC8F813
:101020003400002035F8023FAC421844FAD107EEF4
:10103000900AFBEEC97A17EE900A07F0E5F83246FF
:101040003B4607F035F90022154B07F031F907F060
:10105000DFFB1D4AC8F83800002034F8023FA242E6
:101060001844FAD107EE900AFBEEC97A174CDFF864
:101070006890174DDFF864B0DFF864A017EE900AAF
:1010800007F0C2F832463B4607F012F9044B29E05C
:10109000D431FF1F4033FF1F000080384015FF1F71
:1010A00000408F40CC33FF1FE033FF1FFC33FF1F96
:1010B0002434FF1F5A34FF1FA634FF1F1035FF1FB3
:1010C000A235FF1F6E36FF1F9E37FF1FA098FF1F20
:1010D000D831FF1F8833FF1FB832FF1F0C98FF1F46
:1010E0001431FF1F264E274F002207F0E1F807F0CA
:1010F0008FFB0023C8F83C003360984601E095ED73
:10110000008A2046B8EEC80A01F05AFD204601F0D8
:101110009DFD10EE100A07F077F8E9E8020120467D
:1011200001F0A4FD10EE100A07F06EF855F8042B3C
:101130003368134407EE903AE7E80201B8EEE70A95
:101140001148336001F03CFD0F4801F07FFDBDEE1A
:10115000C00A0D488BED000A01F088FD08F1010876
:10116000BDEEC00AB8F1100F04F114048AED000AB4
:10117000C5D1BDEC028BBDE8F84FFFF76DBD00BFD8
:101180000498FF1F4031FF1F8C98FF1FF0B53049B6
:101190000B5C022B85B02ED02E4B53F82020002A5A
:1011A0000DDD2D4A2D4C12682D490392039A54F8F7
:1011B000204051F82010121B323191420BD30328EA
:1011C0000EDD284B1B680A2B274BCCBF01220022C7
:1011D0001A7005B0F0BD0022032843F82020F0DC8F
:1011E000204953F820200B689A42ECDD1F4C0A601E
:1011F00013462070E7E7184C184D23680093009BB6
:1012000055F820609B1BC72B05D8124B012453F8BF
:1012100020200C54C3E723680193154F019B57F816
:1012200020202468DFF838E00294991B521A094BF9
:10123000029C4EF820101D323A2A53F8202047F81D
:1012400020109CBF013243F8202045F82040A6E73B
:101250007C9AFF1FBC97FF1F9CA0FF1FE899FF1FF0
:101260006C97FF1F8898FF1F689AFF1FB897FF1F92
:101270001C32FF1FFFFFFFFF2DE9F843284B53F8F7
:1012800020908046484606F0ADFF264A4FEAC80344
:101290001A440D462449D2E900670B440446D3E9B9
:1012A00000011DA3D3E9002307F002F832463B46B4
:1012B00006F04CFE02460B462046294607F088FA07
:1012C00068B1B9F1640F0ADD184B13F80820022A3F
:1012D0001AD052B9022203F80820BDE8F883DFF8DB
:1012E0004C9019F80830012B01D0BDE8F883324644
:1012F0003B462046294607F057FA0028F5D0002340
:1013000009F80830BDE8F883012203F80820BDE899
:10131000F88300BFAFF30080000000606666024003
:10132000D831FF1FB832FF1F4031FF1F7C9AFF1FCB
:1013300010B40E4B0E4A53F820100E4C52F82030C9
:10134000245C0529C4BF023342F82030022C04BFBC
:10135000013342F82030B3F5967F04DD0129DCBF6C
:10136000023B42F820305DF8044B7047BC97FF1FEA
:10137000B830FF1F7C9AFF1F2DE9F04F91B0FFF7A7
:10138000B7FCA54BA54A029319460023DFF8CC927F
:10139000DFF8CCB213609A46884622E0DBF8000002
:1013A00006F020FF2246CDE900012B4630463946A3
:1013B00006F0CAFD00229A4B06F07AFF02460B4661
:1013C000DDE9000106F0C2FD07F022FACBF80000CB
:1013D0000AF1010A80F30800BAF1100F4BF8040B70
:1013E0001CD05046FFF748FF5046FFF7CFFE50464F
:1013F000FFF79EFF59F8040F06F0F4FEF8E80245E7
:1014000022462B4606460F4607F0E2F90028C5D1D2
:10141000DBF800000538CBF80000D9E7814A824BA1
:101420001768824A1B68D2F80090814A814DD2F831
:101430000080814A0B9312680592804A09934FF00D
:10144000000ACDF818A0CDF81CA0CDF820A0CDF84A
:1014500028A0CDF80CA05446CDF810A0D2F800B0CA
:101460000095BA46029F6C4B724903EBC80E04F11B
:1014700009030293009B1A68099B51F823309A4292
:1014800003DD01230B9409940A930099694B694D7C
:101490004A6953F82A30486A55F82910029D9A4241
:1014A00004F10503C8BF9A46089BC8BF01238842C0
:1014B000C8BFA946D7E90001079D0893C8BF012509
:1014C000DEE90023079507F083F9059D524A069E41
:1014D000002802EBC50318BF0126D3E90023D7E992
:1014E0000A0118BFA046069607F072F94A4A00287A
:1014F00004F1050602EBCB0308BF2E46D3E9002317
:10150000D7E912010596049E18BF0126049607F03C
:101510005FF9009B029D002803F1040304F101041C
:10152000009318BFAB46039B18BF0123042C039301
:1015300007F1080797D15746DDF810A0002B47D1D7
:101540000A9B13B1384B0B9A1A60089B0BB1354BB1
:101550001F60079B13B1354BC3F80090069B13B176
:10156000334BC3F80080BAF1000F02D0324B059A1A
:101570001A60334B0999334C5B5C022B04D0324B1D
:1015800053F82130082B02DD2368053323602F4FE9
:101590003B68DB0720D52E4E2E4D33680F9395E820
:1015A00006000F9B5B1A9A4224D923682A490A2B0A
:1015B000A8BF0A236FF009000A688342B8BF034638
:1015C0001A4482F3080223600A6011B0BDE8F08F6C
:1015D0001A4BC3F800B0B3E7384603F08FFF1C4E38
:1015E0001C4D70B933680F9395E806000F9B5B1A8A
:1015F0009342DAD333680E9323680E9A2A60013B34
:10160000D4E733680D930D9B2B60962338466B60AF
:1016100003F07AFFE6E700BFB832FF1F8898FF1F8C
:101620000000E03F789AFF1FAC97FF1F1832FF1FA2
:10163000E499FF1FB830FF1F8433FF1FB097FF1FCF
:101640007C9AFF1F3C31FF1FBC97FF1FB432FF1F66
:101650009CA0FF1F3C33FF1F0898FF1FD431FF1FC2
:101660004898FF1F2DE9F04F064BDFF824B0064FD6
:1016700087B01A460393054B9046002601211D466C
:101680001CE000BF9821FF1F0448FF1F4495000085
:10169000D831FF1F9F4B120283FB0234D217C2EBDB
:1016A0002422962A00F3D481DC3640F674139E423D
:1016B00008F1040800F0AA8055F8041F5BF8212007
:1016C000002AF1DBB2F5167FE4DDFF24924B8DF8A2
:1016D000124083FB0639F317C3EB6909A9F114091A
:1016E000D8F80030019305A904A85FFA89F94FF0F2
:1016F000FF0A8DF810908DF811A001F013F9019BED
:101700009DF8140003EB4303F918FA5C82FA50F2D7
:10171000FA549DF815204B7883FA52F34B708A786F
:101720009DF8163082FA53F2D8F864378A7004A80C
:1017300005A901938DF810908DF811A08DF8124035
:1017400001F0F0F8019B9DF8140003EB4303F91836
:10175000FA5C82FA50F2FA549DF815204B7883FA1D
:1017600052F34B708A789DF8163082FA53F2D8F80B
:1017700090378A7004A805A901938DF810908DF810
:1017800011A08DF8124001F0CDF8019B9DF81400D6
:1017900003EB4303F918FA5C82FA50F2FA549DF80D
:1017A00015204B7883FA52F34B708A789DF81630E7
:1017B00082FA53F2D8F8F43E8A7004A805A901937E
:1017C0008DF810908DF811A08DF8124001F0AAF854
:1017D000019B9DF8140003EB4303F918FA5C82FAAD
:1017E00050F2FA549DF815304A7882FA53F24A7052
:1017F0008B789DF8162083FA52F38B70DC3640F616
:1018000074139E4208F104087FF456AF434B444AD8
:101810001B68B3F57A7FA8BF4FF47A7323EAE373AA
:1018200003EB830103EBC10382FB0312DB17C3EB62
:1018300022233C4A1268C3F12B03934280F20281B7
:10184000DFF8ECB0384BABF158020192019E0BF17E
:101850002C020292924606F12C0906F2BC7806F59B
:10186000F26C0BF5F26E0BF2BC7700255AF8044BC4
:101870005BF8041B56F8040B04EB440401EB410134
:101880001A5D5A541C44194462784A70A47859F875
:10189000042B8C7000EB400102EB4202585C985420
:1018A00019441A4448785CF8044B507058F8040BFB
:1018B0008978917004EB440400EB40001A5D1A54DF
:1018C0001C441844627857F8041B42705EF8042BDD
:1018D000A478847001EB410102EB4202585C9854F9
:1018E00019441A44487850700135897891700B2D4D
:1018F000BCD1019ADDF808B02C3A01920B4A5A4546
:10190000A4D1151FDDF80CE0002405F12C0705F526
:10191000F2660FE037800B6DE9A28B2E0498FF1F53
:101920009F7478419021FF1F0448FF1FFC28FF1F70
:101930006025FF1F55F8049F57F8040F5EF8041B3D
:1019400056F8042F09EB490903EB090813F809C0FD
:101950000CEBCC0C0CEBCC0C4FEA2C2C03F809C094
:1019600098F8019098F802C009EBC9090CEBCC0C6F
:1019700009EBC9090CEBCC0C00EB40004FEA2C2C16
:101980004FEA292988F8019088F802C013F800C0AE
:101990000CEBCC0C0CEBCC0C4FEA2C2C03F800C05D
:1019A000184401EB410190F8018090F802C008EB67
:1019B000C8080CEBCC0C08EBC8080CEBCC0C4FEABD
:1019C0002C2C4FEA282880F8018080F802C0585C4F
:1019D00000EBC00000EBC00000125854194402EBA9
:1019E000420291F801C088780CEBCC0C00EBC000EF
:1019F0000CEBCC0C00EBC00000124FEA2C2C81F851
:101A000001C08870995C01EBC10101EBC1010912B1
:101A100099541A4401345078917800EBC00001EBDE
:101A2000C10100EBC00001EBC101001209120B2C37
:101A3000507091707FF47EAF064B01221A6007B0A0
:101A4000BDE8F08F034B01321A6007B0BDE8F08F9C
:101A5000D4B23BE69021FF1F70B55A4C2378612B1E
:101A600021D0622B47D0662B56D06D2B00F08180A1
:101A70006F2B00F09A80732B2DD0742B69D0782BAC
:101A800000F08F80792B4ED07A2B0BD14E4B6078A3
:101A90001870A178E278597018469A7006F036FFEF
:101AA0004A4B186070BD484B6078A178E278187096
:101AB000184659709A7006F029FF454A454B014671
:101AC0001160454803221A6003F0B6FB424803F058
:101AD00063FB2378CCE73C4B61783E4AA5781970CC
:101AE000E4785D70184604219C70116006F00EFFCA
:101AF0003A4B187070BD344B364A61781970A6782D
:101B0000E5785E70184604219D70116006F0FEFEB7
:101B1000334A23781070ABE72E4B324A19681160B4
:101B200000221A6070BD284B6078E278A1781870A6
:101B300018469A70597006F0E9FE2B4B2B4C186032
:101B400006F050FB00222A4B06F0DCFCC4E9000141
:101B500070BD1D4B61781F4AA5781970E4785D70DF
:101B6000184604219C70116006F0D0FE214B1870BD
:101B700070BD154B6078A178E278187018465970DE
:101B80009A7006F0C3FE1C4B124A186002231946D5
:101B90001148136003F050FB0F4803F0FDFA23785F
:101BA00066E70C4B01221A6070BD0E4C0A48216892
:101BB00003F042FB084803F0EFFA064B22681A6074
:101BC00070BD00BF3031FF1FFC30FF1F4815FF1FE5
:101BD000B497FF1F3415FF1FE416FF1FDC47FF1FDC
:101BE0004C15FF1F9421FF1F1831FF1F4015FF1FC9
:101BF000000059403815FF1FC031FF1F38B5084C91
:101C0000251D14F8010B04F0F3FFAC42F9D105488F
:101C100003F0C2FAFFF720FF034B00221A7038BD11
:101C20003031FF1FE416FF1F699AFF1FF8B5124EEF
:101C3000124D134F03F00AFF00B9F8BD3478002CA1
:101C4000FBD103F013FF2B78C0B23BB13E280D4B04
:101C500009D01A78511CB8541970EBE73C28E9D127
:101C600001232B70E6E7074B2C7019781C700122BA
:101C70007C543270DEE700BF699AFF1F0098FF1F97
:101C80003031FF1F9832FF1F0E4B10B50E4C1B68F2
:101C90002370FFF7CBFF0D4B1B780BB1FFF7AEFFA7
:101CA000FFF76AFBFFF7DEFC00227821064800F010
:101CB000A7FD2178044800F0CDFC0520BDE81040C8
:101CC00003F034BD4815FF1FBC9AFF1F699AFF1F20
:101CD0002DE9F047DFF8B0E02A4FDEF80060BC469F
:101CE000BA464FF0000909F00105721C4FEA890855
:101CF0005146002309E044F808002C33B3F5F26F95
:101D000002F10102A1F12C0107D00CEB0304501EDB
:101D1000002DF0D0C1F86407EFE709F10109B9F12E
:101D20000B0F06F12C060AF1040ADCD14FF0000C6F
:101D30000CF00105721CA7F5F26439463B4608E039
:101D4000C3F81C0F2C3BA34202F1010201F12C014C
:101D50000BD0501E002DF3D02C3BA342C1F8B80786
:101D600002F1010201F12C01F3D10CF1010CBCF1E3
:101D70000B0F06F12C06A7F10407D9D1CEF80060AD
:101D8000BDE8F0879821FF1FF447FF1F38B50F21EA
:101D9000304804F0A9FE304803F0FEF92F4800F067
:101DA00091FF2F4800F08EFF4FF4FA7003F0BEFC55
:101DB000FEF7B6FE40F6354003F0C0FD642003F0A8
:101DC000B5FC2848036813F001041FD0264C2749AE
:101DD00027484FF4F272002300F0D6FB0121204681
:101DE00000F0FAFC4FF47A7003F0A0FC214BE360A2
:101DF0004CF25033A360FFF76BFF0F211E4804F035
:101E000073FE1548BDE8384003F0C6B903F076FB11
:101E10000028DBD01949164B08685C60FF220125B9
:101E20005C619C609D741A735A739A73DA731A74A6
:101E30005A7460B1124A116801B18B601149136084
:101E40000848196000229A6103F05EFBBEE70B6050
:101E5000F0E700BF24950000E416FF1FF847FF1FBE
:101E60005C32FF1F6821FF1FBC9AFF1F0448FF1F41
:101E70006C21FF1FF52A000034950000CC9AFF1F4B
:101E8000DC9AFF1FD89400002DE9F0430F2185B0A4
:101E90007E487F4F7F4CDFF8508200F007FF102113
:101EA0007D4800F003FF3A68C4F8008000236372A5
:101EB00023612372E3600AB9E2E01A465369002BFA
:101EC000FBD154610026754D754B72486661A68042
:101ED000E680A672236001F005FA042005F12802CD
:101EE000334631462E72EE60C5F8008068722A6172
:101EF0002E4600E0326942F823106A7A67480133BF
:101F00009A42F7DC3A68624B0AB9BBE01A46536959
:101F1000002BFBD15561634EDFF8D0C1C6F80080BD
:101F200000214FF480304FF0010E06F5A25286F8E2
:101F300009E00B4632616961A980E980A9723172BA
:101F4000F160B646C5F800C0A861E8612862686221
:101F500001E0DEF8102042F82310727A5148013374
:101F60009A42F6DC3A684A4B0AB98DE01A46536940
:101F7000002BFBD1566141F23C4241F23D43002728
:101F8000DFF86C8148494948B754F7543A46012371
:101F90003160C6F818044FF480617761B780F7802C
:101FA000B7724348DFF84C9105F0BCFD404688E825
:101FB000300088F8087088F80970C8F80C7088F844
:101FC000107002F01DFE3B4A3B49404606F098FC6B
:101FD000DFF82481C9F80C700123484689F80830DD
:101FE00089F8093089E8300089F8107002F008FE9D
:101FF000304A3149314C484606F082FC404688E878
:10200000600088F8087088F80970C8F80C7088F8C3
:10201000107002F0F5FD274A2749404606F070FC93
:10202000274B284A1A6028480A221A7200F0B8FD85
:1020300004F5A0752046143400F0B2FDA542F9D194
:10204000224800F0ADFD224B224803F14001026816
:102050000392039A43F8042B8B421E4AF7D113686C
:102060000193019D136802931B4C1C4B029A1C495F
:102070001C4825601A60FEF7F5FC05B0BDE8F0834A
:102080003C601FE7186046E7186074E7F847FF1FD9
:10209000F09FFF1F9C32FF1F5C32FF1F1098FF1F35
:1020A000BC9D00008833FF1F94950000B49500008C
:1020B000CC47FF1F3015FF1F81040000A098FF1FB1
:1020C0006C9AFF1FA09500001C31FF1F8C98FF1F0A
:1020D000E899FF1F9CA0FF1FFC97FF1F3833FF1FCD
:1020E000709500006832FF1FCC940000C89D00006E
:1020F000E047FF1FC431FF1F0031FF1F08B5064A2C
:10210000064B12791A7003F0EDFA054A054B106080
:1021100000221A7008BD00BFAC9AFF1F1F8000404C
:10212000909AFF1FA89AFF1F10B5044602F09AFE6E
:10213000204610BDF0B4064F064E074D074C3980BF
:102140009DF8101032602B602170F0BC704700BF0A
:10215000989AFF1F949AFF1FA49AFF1F8C9AFF1F43
:10216000F8B5A24BA24E1C88306804EB4404E4008E
:102170002246002106F0DCFE9E4B1868002800F085
:1021800003812246002106F0D3FE9B4B9B4F9C4DC2
:10219000FF221A600121022003F09EFA01210E2085
:1021A00003F09AFA0121072003F096FA0121082092
:1021B00003F092FA0121062003F08EFA0121142087
:1021C00003F08AFA0121152003F086FA0520012187
:1021D00003F082FA8B4B8C4A1B788C49DFF858C28B
:1021E00003F0F003102B4FF0080E4FF000030CBF6C
:1021F00095204A2013603B600860C2F800E0A1F51A
:10220000DD210CBF4FF0230E4FF0110E4FF069028D
:10221000CCF800207E482A60A1F5FC61C7F80CE0EC
:10222000DFF808E27B4A0CBF6725332505600A60AA
:10223000DEF80020784DD371022191717748D18862
:1022400010601561D58B938021F4E06121F00701C6
:10225000D360938293612F044FF001039360D18088
:1022600000F19580B4F5004FA1B2C0F28A80958B41
:102270006B4FD6F800C03B686A4EADB245F008051A
:10228000958300250222DD719A71C3F800C0DA88B7
:10229000D983D9821E616642DE60DE8B9D8222F484
:1022A000E0629D61012522F007029D809D6035045A
:1022B000DA8000F18980B4F5004F5FDB9A8B5A4DCC
:1022C00092B242F008029A832B684B4A18600220AF
:1022D00098710020D8711A61DA88988022F4E0623F
:1022E00022F00702D86098829861D88BDA800122A8
:1022F0009A6002045AD4B4F5004F3CDB9E8B9EF8E2
:1023000004404A4A46494848B6B246F008069E8309
:102310009E8B04F18044B6B204F5043446F0020604
:102320009E830026B123267023703B7903F18043FE
:1023300003F504339E241E701C702B7903F1804337
:1023400003F504339F241E701C7002F0A7FD2A7948
:102350003748384D53119B0003F1604302F11004DC
:1023600003F5614302F01F02012101FA02F240F875
:1023700024501A60F8BDD983D982BFE7D983D982A6
:102380009CE7D183D18272E732681A60FDE6B4F52A
:10239000007F28DAD38BA1B203F47E430B43D383AF
:1023A000D38A03F47E430B43D38260E7B4F5007F06
:1023B000A4DADA8B02F47E420A43DA83DA8A02F480
:1023C0007E421143D98299E7B4F5007FBFF676AF1C
:1023D000DA8B02F47E420A43DA83DA8A02F47E421E
:1023E0000A43DA826AE7A1B241E700BF989AFF1F69
:1023F000949AFF1FA49AFF1FC8F00F4004800B405F
:1024000014800B408C9AFF1F00800B4008800B400B
:1024100018800B4000030100C4F00F404D15FF1F52
:10242000B49AFF1FC0F00F40AC9AFF1F9C9AFF1F89
:102430000010FF1FFD2000000C800B40F8B52C4C55
:102440002378002BFCD12B4A2B4B11681868814252
:1024500006D02A4B1A8802EB4202D20002F06CFF2F
:10246000274D03F03FF92B68C01AB0F5967FF8D3DB
:1024700024482549254A282303600B60136872B657
:1024800010390A689342FCD221490A689342FCD36E
:102490001F4802681E499342FBD81E4E1E4D1F481E
:1024A00037792E79174BDFF87CE0174A0025056055
:1024B0000D60012121701A4D28244FF48061CEF85F
:1024C00000101C606921D3F800E02D7919606FF4C9
:1024D0007F6EA3F52F23734414600824D2F800E024
:1024E00011601F701E701D70046062B6F8BD00BFE1
:1024F000A89AFF1FA49AFF1F949AFF1F989AFF1F84
:10250000909AFF1F0C800B4014800B4018800B40EA
:1025100004800B409C9AFF1FB49AFF1F00800B4061
:10252000AC9AFF1FA09004402DE9F041DFF85480E1
:10253000104D114C114F124E4046002102F02CFC60
:102540002A462146404606F0DBF93846002102F0D3
:1025500023FC2A462146384606F0D2F930460021AF
:1025600002F01AFC2A4621463046BDE8F04106F04A
:10257000C7B900BF3015FF1F29210000B49AFF1F03
:10258000AC9AFF1F9C9AFF1FF8B51E1E03680446F5
:10259000CCBF02EB420500250F469B68D8BF16460C
:1025A00098477A19236862605B690A4A66619342B8
:1025B00001D12046F8BD204698470028F9D0064AA8
:1025C000064B516893FBF0F0884238BF08465060D4
:1025D0002046F8BD71040000BC9AFF1F40420F0066
:1025E000084B10B51C685CB163680021184623B124
:1025F000626902EB420206F09BFCA468002CF3D156
:1026000010BD00BFCC9AFF1F70B40F4C2268531C42
:102610008A4283B0236013DB0C4D0D4A2968019177
:1026200001992D6800951668009D15604FF47A7227
:102630000025891B02FB03F32560B3FBF1F3438004
:1026400003B070BC704700BFD09AFF1F9CA0FF1F53
:10265000D89AFF1F2DE9F04F43682D4C83B00646F2
:102660008946002B4BD103F03DF8F36820601BB185
:102670004846B16898478146264B1C680025002CC7
:1026800036D07388A77C61686269632B236898BF22
:10269000A574D3F804808DF804508DF805508DF89A
:1026A0000650B9F1000F1CD004F10B030DF1040E1C
:1026B00004F10E0C13F801BFBBF1000F0DD093F81D
:1026C00003A00AF101000BFB0000BAF1000F04D0D7
:1026D00009FB00F0000C8EF8000063450EF1010EBE
:1026E000E8D1204601ABC047A774A468002CC8D12C
:1026F00030461921FFF788FF03B0BDE8F08F02F0E4
:10270000F1FF22687368801A9842AAD3ABE700BF32
:10271000D49AFF1FCC9AFF1F2DE9F04F43682C4C31
:1027200083B006468A469146002B49D102F0DAFF73
:10273000F36820601BB14846B16898478146254B35
:102740001C680025002C34D07388A77C6269632B39
:10275000236898BFA574D3F800808DF804508DF8D5
:1027600005508DF80650B9F1000F1AD004F10B0393
:1027700001A804F10E0E13F801BFBBF1000F0CD03D
:1027800093F803C00CF101010BFB0111BCF1000F28
:1027900003D009FB01F1090C0170734500F1010040
:1027A000E9D1204601AB5146C047A774A468002C6C
:1027B000CAD130461921FFF727FF03B0BDE8F08FDB
:1027C00002F090FF22687368801A9842ACD3ADE79C
:1027D000D49AFF1FCC9AFF1F10B5044682B051B1A6
:1027E00000231A4601A98DF804308DF805308DF8C4
:1027F0000630FFF791FF2046FFF7F2FE02B010BD52
:102800004AB151B14268084B93FBF1F1914238BF94
:1028100011464160704709B941607047024B93FB14
:10282000F1F14160704700BF40420F000020704747
:10283000044B0022FF204FF0FF31187099605A803E
:10284000DA607047BC9AFF1F2DE9F04F8B42099E5A
:1028500052D396F800E01578777896F8028054788D
:1028600092F802C0C1EB030BC5EB0E0EC4EB070AD6
:10287000CCEB08061FFA8BF24FEACE1E4FEACA1ABB
:10288000F601B2B30FFA82FB9EFBFBFE9AFBFBFA4A
:102890004FEA4E0E4FEA4A0A96FBFBFB99424FEA7B
:1028A0004B0B1FFA8EFE1FFA8AFA1FFA8BFB4FEAB8
:1028B00005254FEA04244FEA0C2218D801EB410702
:1028C0000131C61989B24FEA25294FEA24284FEA77
:1028D000222C754454445A448B4200F80790ADB200
:1028E00086F80180A4B286F802C092B2E6D2BDE8B2
:1028F000F08F4FF0010BC7E78946357892F800E07A
:102900007478577896F802C092F8028015701946CC
:1029100086F800E04B465470777082F802C086F863
:1029200002809FE7F0B4047846788278E00000F0F7
:10293000F80000EB800303EB031303442506C3F305
:1029400007235FD404F0400505F0FF0704F02004DE
:10295000002D46D104F0FF00002C6CD05533DDB2C1
:10296000AB243B46FF2E1CD0002E79D01CB106FBB9
:102970000444C4F307241DB106FB0555C5F3072520
:102980001BB106FB0333C3F30723F043C0B200FBC4
:102990000000C0F30720044405440344E4B2EDB250
:1029A000DBB2FF2A18D012FB02F0003218BF01225E
:1029B00002EB102212F0FF0256D01CB102FB0444BD
:1029C000C4F307241DB102FB0555C5F307251BB150
:1029D00002FB0333C3F307230C704D708B70F0BC04
:1029E000704704F0FF075CBB00EBC00400EB440041
:1029F00000EBC0000412563BC4F1AB04DDB2E4B2FC
:102A00003B46AFE704F0400707F0FF05E7B904F0E5
:102A1000200707F0FF04002F36D100EBC00300EBC6
:102A2000430000EBC000C0F30720C0F1AB055530F8
:102A3000EDB2C3B296E7DC43E4B21D46034691E72C
:102A40000024DD43EDB28DE704F0200404F0FF051F
:102A500094B903F15504E4B2C3F1AB03DBB281E7EF
:102A6000FF231D461C469CE71546144613460C7072
:102A70004D708B70F0BC7047A3F15604E4B2002592
:102A8000C3F15503DBB26DE7D8431C46C3B269E717
:102A9000F0B561B301F1FF3E1FFA8EFE0EEB4E0E54
:102AA00000220EF1060E8644C31C1546144613F888
:102AB000037C13F8020C13F8016C033373453C4498
:102AC00005443244F3D104EB840402EB8202C5EBEB
:102AD000C500C4F31713C2EB0212C5EBC004120AFF
:102AE00003EB142401EB810110190844F0BD0C46DE
:102AF0000A46F7E72DE9F043254B1C6885B00746E9
:102B000088469CB1DFF894907D2507E0606981B22A
:102B10003046FFF7BDFFA468054444B194E848007F
:102B20001B694B45F2D020469847F0E77D2505FB11
:102B300007F52D0A174B45451B7810D223B3164ACB
:102B4000012152F833208DF80C109DF80C101378E9
:102B5000384623EA0103137005B0BDE8F08308FB93
:102B600007F7B7FBF5F0C7B273B10B4A012152F872
:102B700033208DF80C109DF80C10137838460B4359
:102B8000137005B0BDE8F083384605B0BDE8F083AA
:102B9000CC9AFF1FE09AFF1F449F00006D040000C5
:102BA00000220021016042608260C26002617047C1
:102BB00000230022026043608360C36003617047AA
:102BC000026862B9D0ED017A80ED020A77EE807A70
:102BD000012380ED030AC0ED017A03607047D0ED58
:102BE000027AB4EEE70AF1EE10FA2BD4D0ED037AB4
:102BF000B4EEE70AF1EE10FAC8BF80ED030A90EDDB
:102C0000016A531C30EE066A012B80ED016A0360F5
:102C100017D907EE903AF8EE677A07EE102AC6EE5B
:102C2000276AB8EE477A36EEC00A90ED046A67EE7E
:102C3000807A67EE807AC7EE876A76EE267AC0EDF4
:102C4000047A704780ED020AD9E700BF036843B1F8
:102C500007EE903A90ED017AF8EE677A87EE270A50
:102C600070479FED010A70470000C07F08B50368F8
:102C700013B99FED0D0A08BD07EE903A90ED047A66
:102C8000F8EE677AC7EE276A16EE900A05F0BCFAEE
:102C900041EC100B05F022F851EC100B05F0E0FDB3
:102CA00000EE100A08BD00BF0000C07F30B46425EC
:102CB000012400224580047101704271826030BCA1
:102CC000704700BF0078022102F006BD30B5104DFC
:102CD00082682B6883B00093009B9A4203D90379E2
:102CE000184603B030BD0446007802F0E7FC2379B3
:102CF0009842F5D02A6801926188019A83F0010315
:102D00000A44184601212371A260617103B030BDED
:102D10009CA0FF1F10B50446FFF7D8FF20B96379C8
:102D200003B16071184610BD0023184610BD00BFE6
:102D3000F8B50021054601F035FF002800F0D080ED
:102D400041F23C43EB5C072B00F2CA80DFE803F062
:102D5000C9D0D7DEE5ECF304D5F81C74C5F8380407
:102D600005F587643B1D224607F5827705F23C4155
:102D700033F8026B42F8046F9F42F9D1D5F8207402
:102D800005F5C7623B1D07F5827733F8026B42F801
:102D9000046F9F42F9D1D5F8247405F638023B1D23
:102DA00007F5827733F8026B42F8046F9F42F9D13E
:102DB000D5F8287405F638223B1D07F5827733F8DD
:102DC000026B42F8046F9F42F9D1D5F82C7405F6D6
:102DD00038423B1D07F5827733F8026B42F8046FE7
:102DE0009F42F9D1D5F8307405F638623B1D07F5DE
:102DF000827733F8026B42F8046F9F42F9D1D5F81D
:102E0000347405F581523B1D183207F5827733F88B
:102E1000026B42F8046F9F42F9D105F59152031DF0
:102E2000183200F5827033F8026B42F8046F834267
:102E3000F9D1D5F8180480B105F5886200F500676E
:102E400032F9043C30F9026B03FB06F3DB138742D3
:102E500022F8043C02F10402F2D105F5A25004303C
:102E6000384E04F041FE05F2164705F1160054F8FD
:102E7000041F21FB01F1B1FA81F336F81320B1FBF5
:102E8000F2F31A445308B1FBF3F10B445B0820F84A
:102E9000023FB842EBD141F23D430122EA54D5F85A
:102EA0001C0401F03BFED5F8200401F037FED5F8F4
:102EB000240401F033FED5F8280401F02FFE41F27E
:102EC0003C430422EA5405F586610EC9D5F82C046A
:102ED000C5F81C04C5F82014C5F82424C5F8283406
:102EE000F8BD41F23C430122C5F81C04EA54F8BD88
:102EF00041F23C430222C5F82004EA54F8BD41F2F5
:102F00003C430322C5F82404EA54F8BD41F23C4393
:102F10000422C5F82804EA54F8BD41F23C430522D6
:102F2000C5F82C04EA54F8BD41F23C430622C5F82A
:102F30003004EA54F8BD41F23C430722C5F834049A
:102F4000EA54F8BDCC9D0000002070470020704777
:102F5000F8B5144C037A242908BFC2805B00012510
:102F60000E462046C1F30721174684F83B3084F80B
:102F70005E5084F85D5001F03FFBF1B2204601F055
:102F80003BFBC7F30721204601F036FBF9B2204690
:102F900001F032FB2946204601F09AFCB0FA80F09D
:102FA0004009F8BD0016FF1F70B5012604460671E2
:102FB000344801F035FB052002F0B8FB204644F20E
:102FC00060023021FFF7C4FF0546002858D06C226C
:102FD00026212046FFF7BCFF4FF4F9722821204636
:102FE000FFF7B6FF40F622722C212046FFF7B0FF14
:102FF00044F246423C212046FFF7AAFF40F2371236
:1030000024212046FFF7A4FF44F2FF02302120468E
:10301000FFF79EFF732202212046FFF799FF4FF42E
:10302000C87002F083FB41F61D522E212046FFF7A7
:103030008FFF042211462046FFF78AFF4FF4987253
:1030400006212046FFF784FF10220A212046FFF7C1
:103050007FFF00220E212046FFF77AFF43F63C4215
:1030600010212046FFF774FF47F67F722221204689
:10307000FFF76EFF362224212046FFF769FF6672B4
:10308000284670BD0016FF1F10B5044619B101296E
:1030900011D0002010BD55222021FFF759FF002834
:1030A000F7D0E28842F00402204692B22421BDE823
:1030B0001040FFF74DBF40F273122A21FFF748FF7F
:1030C0000028E6D0882220212046FFF741FF002873
:1030D000DFD0E288204622F004022421BDE810401F
:1030E000FFF736BF38B50546F1B1802903799ABF9D
:1030F000C1F1800444EA0424002433B9224628465E
:103100002221BDE83840FFF723BFC288002322F008
:10311000100203712421FFF71BFF224628462221BB
:10312000BDE83840FFF714BF0123037147F67F72F3
:103130002221FFF70DFFEA8842F01002284692B2E2
:103140002421BDE83840FFF703BF00BF9FED057A9B
:10315000DFED057AE0EE077AFCEEE77A17EE901ADB
:10316000FFF7C0BF00000143EE7CFF3E024A034967
:10317000034805F0C5BB00BF3015FF1F2921000023
:10318000E49AFF1F38B5074D074C08482A462146E8
:1031900005F0B6FB2A4621460548BDE8384005F053
:1031A000AFBB00BF3015FF1F29210000EC9AFF1FA5
:1031B000F49AFF1F1A4A1B4B11681B48096970B427
:1031C00099421279027008D2184A12782AB3184A22
:1031D0000121116003F5807402E01C46A3F58073A1
:1031E000144A154912680D68AAB1A5B1134E30886A
:1031F000402810D841000A444030294402320231AC
:10320000308033F9040B22F8020F9C4233F9020C90
:1032100021F8020FF5D870BC704703F58074DFE722
:10322000089DFF1F009CFF1F1F800040009DFF1F87
:1032300008E200E0109DFF1F049DFF1FFC9AFF1F86
:10324000F8B5064601F016FC0446E8B101F012FCA0
:10325000054600283AD072B61F4B1A887F2A19D823
:10326000002C31D01D490A6842B162B6204601F0F7
:1032700055FC2846BDE8F84001F050BC18480C60E9
:103280001A80056062B6F8BD054672B6124B1A8800
:103290007F2AE5D9114A12491768146000220C6888
:1032A0001A800D6062B63946304601F061FC38463E
:1032B00001F034FC30462146012201F059FC204641
:1032C000BDE8F84001F02ABC62B6F8BD204601F026
:1032D00025FC2C46BFE700BFFC9AFF1F109DFF1F77
:1032E000049DFF1FF8B5284C284E294F294D204634
:1032F000012101F051FD00F02BF9274B274A284806
:103300004FF480611960236800211A609980227946
:103310001E6102F1804240F20116DE809F6102F5DB
:1033200004324FF480760627DE82DE839F830226F6
:103330008C27D9609E609E82117017702B68194E81
:1033400043F0124343F001032B600368164D43F032
:103350001043036001F0C6FC2279144B144C187022
:1033600053119B0003F16043174602F1100003F56F
:10337000614302F01F020121377001FA02F245F8A1
:1033800020401A60F8BD00BF089DFF1F009BFF1F73
:1033900000FEFFFF80F0024014B00440A2F00240A3
:1033A00000F002401B8000400010FF1F009DFF1F27
:1033B000B5310000024A0349034805F0A1BA00BF35
:1033C0003015FF1F29210000089DFF1F024A0349F5
:1033D000034805F095BA00BF3015FF1F29210000F2
:1033E000149DFF1F024A0349034805F089BA00BF34
:1033F0003015FF1F292100001C9DFF1F024A0349B1
:10340000034805F07DBA00BF3015FF1F29210000D9
:10341000249DFF1F2DE9F8434FF00008064600F1F8
:103420001805474641463046002F4FD001F0BAFB01
:10343000F0B12C68B4F5803F07F1040100F1040EEF
:1034400007F5827C27D05EF8042B34FB02F334FBB3
:1034500012F903F30F0209F30F03C2EA03430A68E8
:1034600093FA12F341F8043B8C45ECD801F056FB7B
:1034700008F10108B8F1040F05F10405D2D1002FBD
:1034800040D030463946002201F072FB3846BDE894
:10349000F84301F043BB07F10C0100F10C0451F8B3
:1034A000083C54F8082C93FA12F341F8083C54F8FD
:1034B000042C51F8043C93FA12F38C4541F8043C77
:1034C00004F1080401F10801E9D8CFE701F076FB27
:1034D00007460028CCD02868B0F5803FC8D0391DF9
:1034E00007F582740B6830FB03F230FB13F302F331
:1034F0000F0203F30F03C2EA034341F8043B8C427B
:10350000F0D8B5E7BDE8F883024A0349034805F05F
:10351000F7B900BF3015FF1F292100002C9DFF1FA8
:10352000024A0349034805F0EBB900BF3015FF1FFD
:1035300029210000349DFF1F024A0349034805F07A
:10354000DFB900BF3015FF1F292100003C9DFF1F80
:10355000284B29491A68294842F400421A600A682F
:1035600042F002020A601A6842F002021A6003681E
:10357000002B3EDB224B1B68002B3ADB214A4FF02D
:10358000804313601368002BFCDBF0B51E4C1F4812
:10359000DFF8A8E01E491F4B1F4A204F204E214D47
:1035A0004FF2FE0CC4F800C0002404600120CEF8E5
:1035B0000000DFF88CE0C1F800E04FF480311960C2
:1035C000194B1360DFF87CE0184A3A6034602860D9
:1035D00000F18E40CEF80000154CB9671548164929
:1035E00046F8503C4FF4C0632A61236003600B60CF
:1035F000F0BD70473C8004404080044000F0024031
:1036000080F0024000F1024004F1024060F002400C
:1036100008F002400CF0024010F0024014F00240AA
:10362000E0F0024084F002401B1F0100001F1F1F3A
:1036300008B004400CB0044018B0044004F002404C
:103640000100000788F00240024A0349034805F0E0
:1036500057B900BF3015FF1F29210000449DFF1FEF
:10366000024A0349034805F04BB900BF3015FF1F5C
:10367000292100004C9DFF1F024A0349034805F021
:103680003FB900BF3015FF1F29210000549DFF1FC7
:10369000024A0349034805F033B900BF3015FF1F44
:1036A000292100005C9DFF1F024A0349034805F0E1
:1036B00027B900BF3015FF1F29210000649DFF1F9F
:1036C000024A0349034805F01BB900BF3015FF1F2C
:1036D000292100006C9DFF1F10B4047F4160022C63
:1036E000C26003D05DF8044B01F054BC83685DF800
:1036F000044B1847F0B4464B464A986B5C6B017913
:103700001170454922790A701A6B00790870002AF5
:1037100046D05968C9688A423ED82168CC8B2404B7
:1037200002F1FF3065D4C0F30E00C883C88B80B2AD
:10373000C882996B0968C88B000452D4C2F30E008A
:10374000C883C88B002480B212F1FF32C88218BF30
:1037500001221C63596B2E4809680D6800F12C0486
:10376000A54236D00068C46814F0804F0C680D681C
:1037700015BF248824780235013544F000440D60DB
:103780004463996B254B09791970214912B14A6B31
:1037900012791A70F0BC7047521A1A630122D9E7E5
:1037A000D86B196805681E4C0A63CC62CC682D681A
:1037B0001C4E24F080440327B542CC6083F82D7062
:1037C0001FD1037F4260022BC2601ED0F0BC01F00B
:1037D000E1BB016890F82C00CC6840F000404863E1
:1037E000CFE7CC8BC2F3080004F47E442043C883A7
:1037F000A7E7CC8BC0F3080004F47E442043C883C1
:1038000094E72B461146F0BC18478368F0BC184774
:103810005015FF1F1F8000401C8000401B8000408F
:1038200000000FFFD936000000207047704700BF2E
:10383000064B074ADA620221002259609A7083F827
:10384000242083F8302083F832207047749DFF1FB6
:10385000AC9E00002049214A0B6843F080030B60B6
:1038600011461368DB07FCD40B689B07F9D41C4B8B
:1038700030B44FF08072184D186000E0A2B1296892
:10388000184B154C0B40013A002BF7D062B1012BBD
:103890000AD1236813F0800F23680FD043F001137F
:1038A0002360032030BC70470B4A136843F4702335
:1038B00043F001031360012030BC704713F48030E3
:1038C000236804D043F0011323600520F4E743F09C
:1038D00001032360F0E700BF30100B4024100B40C1
:1038E0000C100B4001000E0070B50D4D0D480E4E32
:1038F00000232B60FFF7AEFF40F2E7340346326847
:10390000520701D507480BB1184670BD2B60FFF771
:10391000A1FF013C0346F2D1002808BF052070BD7D
:1039200008100B400000DB0C24100B40F8B5384B9E
:103930001A780AB10320F8BD5B78064603B949023C
:10394000344D354C354B36484FF6FF774FF48132C6
:103950002F6021601A60FFF77DFF0028EBD1314B0B
:1039600031491B681C3406F1400206F510702B68C3
:10397000284F43F0200613F4E00F2E603ED1236859
:103980001E05FCD50B6842F8403C0B6842F83C3CF5
:103990000B6842F8383C0B6842F8343C0B6842F83C
:1039A000303C0B6842F82C3C0B6842F8283C0B6812
:1039B00042F8243C0B6842F8203C0B6842F81C3C5F
:1039C0000B6842F8183C0B6842F8143C0B6842F84C
:1039D000103C0B6842F80C3C0B6842F8083C0B6842
:1039E00042F8043C40328242C1D1002009490B68B0
:1039F000084A9B07FBD50D4B1360F8BD43F4E00369
:103A000043F020033B60FFF76FFF0120EEE700BFAC
:103A1000C89DFF1F30100B4008100B4004100B40D6
:103A200010003A1110100B4020100B402200000132
:103A3000F8B52B4B1A780AB10320F8BD5B78044621
:103A400003B94902274D28482A68284B2A604FF4B9
:103A50008132016026481A60FFF7FCFE0028ECD195
:103A6000244B254E1B68294604F500770B681D4A38
:103A7000D806FBD52B6813F4E00F1AD104F14002ED
:103A800054F8043B3360A242FAD10B68DFF854E0EB
:103A900043F010030B600B6813F4E00013D197425E
:103AA000E4D110490B680F4A9B07FBD5134B1360F9
:103AB000F8BD136843F4E00343F010031360FFF70D
:103AC00013FF0120EDE7DEF8003043F4E00343F09C
:103AD0001003CEF80030FFF707FF0120E1E700BF39
:103AE000C89DFF1F30100B4008100B4004100B4006
:103AF00000003A1810100B4020100B40120000017B
:103B000010B50121007801F0D3FD114A1378C3B13B
:103B10001049CB7A00241846147093B1DA0703D504
:103B20000D4AC869106018469C0703D50B4B0A6AFA
:103B3000C87A1A60420705D4030702D5084B8A6A7F
:103B40001A6010BD074B4A6AC87A1A60F4E700BFD2
:103B5000DC9DFF1F5015FF1F00E100E004E100E0C5
:103B60000CE100E008E100E0234B1A781AB100787C
:103B7000002101F09DBD70B4204A2149D47A096822
:103B800001251D70002C26D072B6D47AE607234694
:103B900006D51C4DD3682E683340D3612B60234675
:103BA000A50706D5184D14692E68D37A34401462DF
:103BB0002C605C0706D5154D54692E68D37A3440C5
:103BC00054622C601B0705D5114C936925682B4066
:103BD0009362236062B61368DA688A4207D00D4C9C
:103BE0001C600D4AD96041F080441C611A60007865
:103BF000002170BC01F05CBDDC9DFF1F5015FF1F54
:103C0000D89DFF1F80E100E084E100E088E100E052
:103C10008CE100E001403F0000003F80F0B412481A
:103C2000124A036882B016460093009F4FF0004589
:103C3000FF24136843F480631360D5625463D36A2E
:103C4000002BFCDAB36BDBB2FF2B09D003680193C6
:103C5000019BDB1B8B42ECD3002002B0F0BC704711
:103C6000012002B0F0BC70479CA0FF1F00C00240C2
:103C7000F8B50D464FF4967116460446FFF7CEFF91
:103C8000284B1A684FF0004042F4806245F0400132
:103C90001A60D8621A465963D36A002BFCDA2149AC
:103CA00018204FF000470A6826FA00F342F48062B9
:103CB000DBB20A60CF624B63CB6A002BFCDA0838B8
:103CC00010F1080FEFD155B3082D0CBF8721FF214C
:103CD000144B1A684FF0004042F480621A60D862B8
:103CE0001A465963D36A002BFCDA0E4A002716469F
:103CF0004FF00045FF21136843F480631360D562E1
:103D00005163D36A002BFCDAB36BD8B21B06607028
:103D100000D4F8BD0137B7F5807FECD1F8BD95210F
:103D2000D6E700BF00C00240F0B41549154A0B6841
:103D300082B016460093009F4FF00045FF241368A1
:103D400043F480631360D5625463D36A002BFCDABA
:103D5000B36BDBB2FF2B43700AD10B680193019B5D
:103D6000DB1BB3F5967FEAD9002002B0F0BC7047A8
:103D7000A3F1FE00B0FA80F0400902B0F0BC704739
:103D80009CA0FF1F00C00240F8B58378032B0E46AD
:103D9000044618BF4E021546FFF7E6FE32461121D3
:103DA0002046FFF765FF18B92046FFF7BDFF20B991
:103DB0002046FFF7A5FE0020F8BD204B2049214AF0
:103DC0001A608E4659631A4659631E46596305F5B3
:103DD000FD70A91C05F5FE77D36A13F0F00FFBD038
:103DE000C6F834E0B36B01F8013C1B1201F8023C49
:103DF00002318F42F0D105F50075A8420DD20F4A6D
:103E00001646D36A13F0F00FFBD0B36B191200F80B
:103E1000021BA84200F8013CF3D3084B0949084AA9
:103E2000196019465A63CB6A044A13F0F00FFAD0AE
:103E30002046936BFFF764FE0120F8BD00C00240EE
:103E4000FFFF009000041F80F0B4314E33684FF044
:103E5000004743F4806333603D46F7623446716344
:103E60003346511C02F20127E26A002AFCDA1A6882
:103E700011F8016C42F480621A60DD625E63E26AEE
:103E8000002AFCDA1A6811F8026B42F480628F4251
:103E90001A60DD625E63E7D11D49CA6A1C4B002AC5
:103EA000FBDA1A684FF0004542F48062FF241A6082
:103EB0001946DD625C63CB6A154A002BFBDA136896
:103EC0004FF0004543F48063FF2413601146D56230
:103ED0005463CB6A0E4A002BFBDA13684FF000459F
:103EE00043F48063FF2413601146D5625463CB6AA8
:103EF000074A002BFBDA936BDBB203F01F0243701F
:103F0000A2F10500B0FA80F04009F0BC704700BF94
:103F100000C0024070B5044671B18378032B0D4692
:103F200018BF4D021646FFF71FFE2A4618212046ED
:103F3000FFF79EFE054620B12046FFF7E1FD002079
:103F400070BD3246FE212046FFF77EFF0028F3D0E9
:103F50004FF416712046FFF761FE0028ECD02A4688
:103F60000D212046FFF784FE0028E5D10B4B1A688F
:103F70004FF0004542F48062FF201A601946DD626E
:103F80005863CB6A054A002BFBDA936B13F0FF0FE3
:103F9000D2D12046FFF7B4FD012070BD00C0024021
:103FA000014B024A1A607047D89DFF1F032000385A
:103FB00038B590F90530002B03DBBDE8384000F040
:103FC00079B904460121006900F0B4F9F8B1257D02
:103FD000104B13EB45151AD0A3790F4A012B9CBF48
:103FE000A369EB61E36912686B831B0CAB8232B18E
:103FF00005F1160105F1180090472B8B6B82637950
:1040000003F07F036371BDE8384000F053B900202E
:1040100038BD00BFEC9DFF1FE09DFF1F10B500F1F4
:10402000080204460121006A00F02CFA50B1E3694D
:104030003BB96379A268E26163F07F036371012099
:1040400010BD012010BD00BFF8B5837913B182699E
:104050008A4201D20020F8BD022B0F4605461AD035
:1040600007B32B6AE9681C7C4A1E04F109037C1E15
:10407000DA40DC40A24211D9EB69AB6005F10806D9
:1040800006E0A968286A00F0C5F9013C0028E1D0E3
:104090003246002CF5D1EF600120F8BD0029EBD0AD
:1040A000A41AEBE7AF60EF600120F8BD2DE9F04FF7
:1040B0008B46817985B001290746019205D00123FD
:1040C0003B71002005B0BDE8F08F42799107F6D52D
:1040D000530708D5FC68B9698C4200F0B480FFF73B
:1040E000B3FF0028EBD0019BFC68002B4AD0DFF81F
:1040F000A491DFF8A4A1DDF80480386A0679013EB6
:1041000006EA542616F0FF06C4F3080443D1002C37
:1041100041D1B968002973D1FA69002A00F083807F
:10412000BA60C4F50075ADB245453AD9057C416920
:10413000023AAA400E4416441FFA88F51CB9F868E2
:10414000BA6990424FD23046012100F0F3F80028BE
:10415000B5D04C4404EB050E74450DD00BF1FF3186
:10416000621E0EF1FF3611F8010F02F8010F9642A0
:10417000F9D1C4EB0E04A344FC68B8EB05082C4449
:10418000FC60BAD1BB69A34262D27A79BC6142F0C9
:1041900080027A7165E0C4F50075ADB24545BA6834
:1041A000C4D8017C4069023A8A400644B5F5007FD4
:1041B0001644C3D1DAF80020964204BF4FF0FF3214
:1041C000CAF800202F4A10680278FE2A314633D000
:1041D0005A46FFF79FFE00283FF471AF0BF5007BB6
:1041E0004FF40075C8E700F065F800283FF467AFAA
:1041F0002549CAF800600A7842F001020A70A8E76F
:1042000003AA00F007F900283FF45CAF386A1F4B9F
:1042100090F82050039A4FF6F871102D18BF1946E8
:104220008A42FFF47DAF3846FFF7F8FE00283FF4DE
:1042300046AF386ABA6874E75846FFF7F9FBB0FA38
:1042400080F04009C7E7019B002B7FF450AF08E0E6
:104250000F4B7A791B6823B1019B13B142F08002A6
:104260007A71120709D5BB79002B3FF428AF384685
:10427000FFF79EFE00283FF422AF019805B0BDE88D
:10428000F08F00BFE89DFF1FEC9FFF1FF8FFFF0F9F
:10429000E09DFF1FEC9DFF1F9015FF1F00B583B031
:1042A00002AB012203F8011D1946FFF7FFFE03B020
:1042B0005DF804FB70B51A4C23780BB9012070BD72
:1042C000184D194B286819680378FE2B17D0174A28
:1042D000FFF720FE88B1164E316819B9002323700C
:1042E000012070BD28680378FE2B0FD00F4AFFF71E
:1042F00011FE10B100233360F0E7002070BD0B48C1
:10430000FFF796FBB0FA80F04009E3E70748FFF7B4
:104310008FFBB0FA80F040090028EBD1EDE700BF39
:10432000EC9FFF1FE89DFF1F9015FF1FEC9DFF1FD7
:10433000E49DFF1F70B5124D2B6883420E4611D0CD
:104340000446FFF7B7FF08B9002070BD0D4B186891
:104350000378FE2B0CD00C4A2146FFF715FD0028F0
:10436000F2D02C60094B197831431970012070BDCF
:1043700021460548FFF7DAFAB0FA80F04009EEE787
:104380009015FF1FE89DFF1FEC9DFF1FEC9FFF1F77
:10439000F8B590F82030C469102B1A4B05460E462C
:1043A00017461B6816D004EBD1149C4216D106F0B8
:1043B0007F06154A42F826701449287E0A7801289B
:1043C00042F001020A7018D9A968114A0B4413601F
:1043D0000120F8BD04EB11249C4208D000212046A6
:1043E000FFF7A8FF50B195F82030102B07D1F6B297
:1043F000054A234622F81670DEE70120F8BD234661
:10440000D5E700BF9015FF1FEC9DFF1FEC9FFF1F1E
:10441000E49DFF1FC36801338B4218D370B590F839
:104420002030102B154B044616460D46C0691B68FC
:104430000FD000EBD11098420FD105F07F01104B47
:1044400053F8213023F070433360012070BD002009
:10445000704700EB1120984207D00021FFF76AFF58
:1044600050B194F82030102BE7D1E9B2044B33F867
:1044700011303360012070BD002070BD9015FF1F0A
:10448000EC9DFF1F2DE9F04F176883B06FB3013724
:104490004FF0000AC36803F1010813B38B460646C8
:1044A00091463C46002505E01C461F46F368013551
:1044B000AB4216D9A04538BF0224214601AA304696
:1044C00038BF2746FFF7A6FF631CD91B48B1019AE6
:1044D000002AE9D18B4510D01C46F3680135AB4268
:1044E000E8D8002003B0BDE8F08FA1F1010ABAFAC4
:1044F0008AFA07684FEA5A1ACCE7012CF1D9F36817
:1045000001339C42EDD86FF0704221463046FFF7F0
:104510003FFF0028E5D0A74214D2013C012CE0D98E
:10452000F36801339C42DCD8621C21463046FFF719
:104530002FFF0028D5D0A74204F1FF3402D0012C70
:10454000EED1CEE7D9F8001059B10129C9D9F368E5
:1045500001339942C5D83A463046FFF719FF002883
:10456000BFD0C9F80070BAF1000F01D00137376031
:104570000120B7E790F8392090F83800101A7047FA
:1045800090F8383090F839209A4205D95A1C0344E3
:1045900080F83820187E70474FF0FF30704700BF1A
:1045A00090F8383090F839209A4286BF1B18187E50
:1045B0004FF0FF30704700BF704700BF38B5054669
:1045C000B0F85E0090B195F85D301446C3F1210259
:1045D00094420CD805F13B001844224600F0ACFE92
:1045E00095F85D30234485F85D30204638BD0120C4
:1045F00014462871EEE700BFB0F85E306BB190F85A
:104600005D30202B07D8C218013380F85D300120BF
:1046100082F83B107047012303710020704700BFF0
:104620000023426980F8383080F8393080F85C30F7
:1046300080F85D3080F85E3080F85F3006CA30B4B4
:104640000D68046943662A4383660A60A370426961
:1046500090F861301649146813441D7A5B7B01EBB6
:10466000C5051B026D6803F4E06343F064032B602F
:1046700090F8623013449D7CDB7D01EBC5011B0289
:10468000496803F4E06343F064030B6021685368F6
:10469000194205D003692C225A70036904229A71C9
:1046A000036920225A71036980229A7030BC7047D6
:1046B000449F000038B50269D478E4B2E1060546AB
:1046C00024D51023D37063061FD504F0040404F02E
:1046D000FF03002C5AD042496A6E00230B7085F804
:1046E0005D30002A66D0904795F85D30002B61D090
:1046F0002B69D0229A702B6995F83B201A712B698F
:10470000012285F85C200222DA7038BD04F04003F3
:1047100003F0FF00002BD8D19379DBB203F06001E6
:1047200060294ED0937803F0100303F0FF01B3B17A
:1047300014F0010437D195F85C3095F85D1099427A
:104740004BD9591C2B4485F85C1093F83B301371FE
:104750002B69D0229A702B690222DA70D5E785F88E
:104760006010937943F0200393712B6995F8391009
:104770001A791F29D2B2C6D8194800780028C2D0A9
:104780006818013185F839100276BCE72A6985F886
:104790003930C02393702B69114A197901211170A6
:1047A0000222DA70B1E7C02393702B691A790222D2
:1047B000DA70AAE70122002385F85D2085F83B30F6
:1047C00096E703F0DF039371AB6E23B185F83800F1
:1047D00095F8390098472A69A4E71471B8E700BF33
:1047E000ED9FFF1F2DE9F047374FDFF8E0903B6862
:1047F000026982B006460093DDF8008000214FF484
:104800009675D3789B065BD53B680193019BC8EBFB
:1048100003030F2BF5D949B1102BF2D00020907073
:10482000336980229A7002B0BDE8F087726996F809
:10483000613013440521187A00F04EFF726996F832
:1048400061301344012193F812A0504600F044FF58
:1048500009240021504600F02BFF2B46013BFDD1DF
:104860000121504600F024FF2B46013BFDD1013CC5
:10487000EFD1706996F8611001444FF416720C7A0A
:104880004B7B09EBC4011B02496803F4E06343F06E
:1048900064030B6096F862300344997CDB7D09EB7E
:1048A000C1011B02496803F4E06343F064030B6039
:1048B000013AFDD13269D3789B064FF00101A3D4B0
:1048C000012002B0BDE8F0879CA0FF1F449F0000BC
:1048D000F0B503691222DA700269937803F02003BD
:1048E00085B004460D46002B5ED0B42393703C493E
:1048F00022690B680093009E05E00B680193019B01
:104900009B1B042B42D8D37803F0200303F0FF0055
:10491000002BF2D094F85D30002B31D04FF0000E18
:104920004FF0020C04EB0E0393F83B3013710B684D
:104930000393039F206907E09B060DD50B68029344
:10494000029BDB1B052B28D8C378DBB203F00202E5
:1049500002F0FF06002AEFD080F803C02669F37842
:10496000DBB2DF0632462DD49F062BD5DB0731D4D0
:104970000EF1010E94F85D305FFA8EFE7345D1D8CA
:1049800000201DBB002384F85E3004E09070236992
:1049900080229A70042005B0F0BD867023698022C1
:1049A00004209A7005B0F0BD03F0FF06FFF71AFF70
:1049B00010B9042005B0F0BD236984F85F60B0220F
:1049C0009A7094E78023B3700420DAE72669802385
:1049D000B370D7E7BEF1000F0CBF02200320F6E74B
:1049E0009CA0FF1F0148FFF765BE00BF0016FF1F18
:1049F0000148FFF75FBE00BF6C16FF1F0148FFF7BD
:104A000059BE00BF9415FF1FB1F5607FF0B428BFF9
:104A10004FF4607172B6134A134C144B10600022AD
:104A2000228003F1700443F8042FA342FBD1B1B1FB
:104A30000F4E002301275D0903F01F0456F82520BF
:104A400007FA04F4013322438B4246F82520F2D1C1
:104A50000023438001338B4200F58270F9D162B6A6
:104A6000F0BC7047F89FFF1F72A0FF1FFC9FFF1F45
:104A700000A0FF1FF0B472B6234F244E3C8806F10D
:104A8000700306EB8400984212D256F8241099B9AC
:104A9000021D06F17305631CAD1A03EB950503E0D7
:104AA00052F8041B41B90133AB421C461046F7D102
:104AB00062B60020F0BC7047B1FA81F34FF00042BB
:104AC000DA4021EA0201016001B9013410493C8059
:104AD0000A88013294B20C8062B6801B8010C3EB4E
:104AE000401000EB801083000A480B49006803F572
:104AF000FB531C330125C5540D88AA42184488BFB6
:104B00000C80F0BC704700BF72A0FF1F00A0FF1F09
:104B100074A0FF1FF89FFF1FF49FFF1F428872B60B
:104B20000378012B03D9013B037062B67047531120
:104B300070B40C4C0C4D54F823102E88D2434FF017
:104B4000004002F01F0220FA02F21143074A44F823
:104B50002310B34238BF2B801388013B138062B609
:104B600070BC704700A0FF1F72A0FF1F74A0FF1F42
:104B7000C368B3B130B401E0DB688BB1187A9042FE
:104B8000FAD158685C7A006950F82450002DF3D1AE
:104B900040F82410087801300870DB68002BEDD154
:104BA00030BC7047437A8B4206D90369002253F820
:104BB000210043F8212070470020704738B5437A20
:104BC0008B421AD9036953F82140002243F821206F
:104BD0009CB12378012B0ED9FFF74CFF054628B175
:104BE0004FF48072211D043000F0A6FB2378013BB6
:104BF0002370284638BD204638BD002038BD00BF90
:104C0000037C23BB4368427A5B7A9A421FD830B454
:104C100072B60468E3682BB3DA6832B119688C4263
:104C200016D01346DA68002AF8D1D8600023C36092
:104C3000A37A0133A37202684168012313728A7A4E
:104C40001A448A7242681372037462B630BC7047A9
:104C50005D6841688D42E4D1198903899942F4D095
:104C60001346DFE7E060E1E7037C10B5002B32D0AC
:104C70004368427A5B7A9A422DD872B60268D3684A
:104C800043B3984202D129E0984202D0DB68002B5E
:104C9000FAD14368417A1B69044653F8210048B1B0
:104CA000FFF73CFF72B66368627A1B69002143F824
:104CB00022102268937A013B937223689A7A02B990
:104CC0001A726268937A013B937263689A7A1AB196
:104CD0000023237462B610BD1A72F9E7C368D3606B
:104CE000D7E700BF084B1A785AB90848084910B4EA
:104CF000D0240470012210460A601A705DF8044B3B
:104D000070470020704700BFFC9FFF1F40E400E099
:104D100008E100E01A491B4A1B48F8B50B681B4D17
:104D2000046843F080730B60136843F00103136061
:104D30002E6814B915E064699CB1237A002BFAD06F
:104D400023682F681B68204698472B68E188DB1B87
:104D50001B099AB28B42A28088BFE2806469002C52
:104D6000EBD10A4B0A4A1B6810880A4C9B1B1B0993
:104D700099B28342218001D91180F8BDF8BD00BFEE
:104D8000FCED00E0001000E0F09FFF1F041000E0C9
:104D900070A0FF1F76A0FF1FF0B572B699B9026828
:104DA0008AB103790F2B0ED8284C218841FA03F5DC
:104DB000ED070AD503F1007303F59063B2EB431FCF
:104DC00003D162B6F0BD214C2188002341FA03F2E1
:104DD00012F0010207D00133102BF7D162B6002286
:104DE00003710260F0BD01259D402943218062B618
:104DF000174E184D184FDFF868E0D9B201713468CA
:104E000044F0020434602C6844F002042C60A6F5DF
:104E1000802640F28244A5F5802503F100733C60B2
:104E200003F59063223E243D0C4C8EF800105B018C
:104E300031702970217003601A605A609A60DA60DC
:104E40001A615A619A61DA61F0BD00BF78A0FF1F54
:104E5000408004403C800440008000401F800040AF
:104E60001A80004003790F2B12D80A4A10B413702D
:104E700072B6094904790A880123A34022EA030390
:104E80000B8062B6102200235DF8044B02710360B0
:104E9000704700BF1A80004078A0FF1FF0B50E7960
:104EA00092F804E006F0FC030EF0FC0403F18043EA
:104EB00004F1804403F5014304F501441B682468B0
:104EC000F5004FEACE0C1FBA05F0180325BA0CF016
:104ED000180427FA03F325FA04F403F00F0304F08F
:104EE0000F049C4215D981F804E016710B68146810
:104EF0000C6013600E7906F0FC0404F1804404F5A4
:104F00000144F300246803F0180523BAEB4003F0D2
:104F10000F0390F804E00EF0FC0505F1804505F55F
:104F200001454FEACE042D6804F018072CBAFC4066
:104F300004F00F049C4215D206710C6881F804E05D
:104F4000036804600E790B6006F0FC0000F18040FD
:104F500000F50140F300006803F0180403BAE340D1
:104F600003F00F03177907F0FC0404F1804404F503
:104F70000144F800246800F0180520BAE84000F069
:104F80000F00984205D90F7116710B681068086000
:104F90001360F0BD10B4EFF3108272B6437F33B9E3
:104FA000017F012908D0032910D00123437702B9DA
:104FB00062B65DF8044B7047114C2168A1B11149EC
:104FC00043610B68836108605861EEE70E4C21680D
:104FD00081B10E4943610B688361086058610C4BD5
:104FE0004FF080511960E0E7064B4161816120601C
:104FF0001860DAE7054B4161816120601860EEE7D7
:105000008CA0FF1F88A0FF1F7CA0FF1F80A0FF1F98
:1050100004ED00E070B5EFF3108272B60C4C20681E
:1050200080B10C4E00254369236073B19D6102B9C4
:1050300062B6457783689847EFF3108272B62068AE
:105040000028F0D102B962B670BD3360EFE700BF4F
:105050007CA0FF1F80A0FF1FFFF7DCBF184A30B401
:105060001468002C27D0036821688B420ED2CB1A1B
:1050700000218460C1602360E0601060022303753A
:1050800030BC704711688B42144608D3A2685B1A83
:105090000360002AF6D18260C460A060EEE7D268A7
:1050A000C2608460E060C568CB1A0222A8602360F9
:1050B000027530BC70478460C4601060DEE700BFDA
:1050C00084A0FF1FF8B5224E34682CB32368002B50
:1050D0003AD1204F1D4604E03468ECB12368002B20
:1050E00032D1A36803B1DD602069336003682575A0
:1050F0001B68BB4221D1037F4560022BC46020D0D6
:10510000FFF748FF6368002BE6D023602046FFF7D7
:10511000A5FF3468002CE1D1EFF3108372B60E4A7C
:1051200000211068116003B962B628B18468FFF7E6
:1051300095FF20460028F9D1F8BD22460021984766
:10514000E0E783689847DDE7013B2360E4E700BFC1
:1051500084A0FF1FD936000094A0FF1F024A1368E5
:1051600001331360FFF7AEBF9CA0FF1FF8B50E46DA
:1051700071B17AB10746144600253B6816F8011B49
:105180001B6838469847013C0544F6D12846F8BDCF
:105190000846F8BD1046F8BD00B5064A03681288F7
:1051A0005B6883B001A9ADF804200222984703B0E0
:1051B0005DF804FB409F0000F0B507468BB0002A65
:1051C00033D0012A08BF0A2251B3212400E0F4B2EF
:1051D000B1FBF2F502FB1511C8B2092900F130014B
:1051E00098BFC8B20AA988BF3730214488BFC0B26F
:1051F00001F8240C661E2946002DE8D133B1013C8C
:10520000E4B20AAB23442D2203F8242C3B6801AA04
:1052100011195B683846C4F1220298470BB0F0BD03
:1052200030228DF825202124E8E70368C9B21B68E5
:1052300098470BB0F0BD00BF0029BABF49422D23EB
:1052400000230A22FFF7B8BF30B42948294A2A4B65
:105250002A4D6024E121047011701B78284C082B22
:1052600030D00A2B2748284937D00C2B0CBF3522C9
:105270005D2212232A60236002600B60234B2449C5
:105280001B78244ABBB101230B601360224B2349D6
:105290001B78234A012B26D9042B0FD9082B1ED9A2
:1052A000102B94BF862387230B6013601D4B0122B4
:1052B0001A7030BC70470B601360E7E784230B6003
:1052C0001360F3E700F58E200F49083021221323E5
:1052D0002A60236002600B60D0E73922F7E785235C
:1052E0000B601360E2E780230B601360DEE700BF12
:1052F0000040074001400740D816FF1F08B0034098
:105300000CB0034008B00B400CB00B4099A0FF1F3D
:1053100020B0034020B00B40D916FF1F24B003403B
:1053200024B00B4098A0FF1F08B5FCF72FFDFCF739
:10533000ABFC01F0DDFCFAE7844641EA000313F020
:1053400003036DD1403A41D351F8043B40F8043B8C
:1053500051F8043B40F8043B51F8043B40F8043B4F
:1053600051F8043B40F8043B51F8043B40F8043B3F
:1053700051F8043B40F8043B51F8043B40F8043B2F
:1053800051F8043B40F8043B51F8043B40F8043B1F
:1053900051F8043B40F8043B51F8043B40F8043B0F
:1053A00051F8043B40F8043B51F8043B40F8043BFF
:1053B00051F8043B40F8043B51F8043B40F8043BEF
:1053C00051F8043B40F8043B403ABDD2303211D38F
:1053D00051F8043B40F8043B51F8043B40F8043BCF
:1053E00051F8043B40F8043B51F8043B40F8043BBF
:1053F000103AEDD20C3205D351F8043B40F8043B8F
:10540000043AF9D2043208D0D2071CBF11F8013B8C
:1054100000F8013B01D30B8803806046704700BF52
:10542000082A13D38B078DD010F003038AD0C3F161
:105430000403D21ADB071CBF11F8013B00F8013B43
:1054400080D331F8023B20F8023B7BE7043AD9D302
:10545000013A11F8013B00F8013BF9D20B780370D7
:105460004B7843708B7883706046704708B5104C5A
:1054700008E0236859050DD423681A050FD4236862
:10548000DB0411D423685803F3D500F083FC2368B0
:105490005905F1D500F01EFB23681A05EFD501F080
:1054A000A5FC2368DB04EDD501F036FDEAE700BF7B
:1054B0003480044008B5FFF7D9FF00BF014B10222C
:1054C0001A80704700200540704700BF094908B5A1
:1054D0000B6830B16A461844A2F50052904202D2DD
:1054E0000860184608BD03F01BFA0C2303604FF058
:1054F000FF3008BDDC16FF1FFEE700BF0078B0FAE2
:1055000080F04009704700BF01230370704700BF5F
:10551000084A1378802B01D0002070470649074BBA
:1055200007480860002119701378802BFCD00120F7
:10553000704700BF03E007404480044001E007409B
:1055400000002822094A1378012B01D0002070475F
:1055500003F1804303F5FC23602119701378802B3D
:10556000FCD1034B034A1A600120704703E0074057
:10557000448004400000060203F004BAF0B44D1E5B
:105580002E46002400E00134B0FBF2F302FB1300CE
:10559000092800F130078ABF3730F8B2C0B206F8E8
:1055A000010F1846002BEED10A1953704CB1107838
:1055B00015F8016F28700133E01A834202F801697F
:1055C000F5DB0846F0BC704710B4114B53F830209F
:1055D00092F8804234B1012379B182F880305DF8CD
:1055E000044B704703EBC0035B681A6851B922F0A3
:1055F00002021A605DF8044B704782F800315DF8D2
:10560000044B704742F003021A605DF8044B704788
:10561000449F00001C4A02EBC00301295B6811D0C3
:1056200004291BD052F83000002280F8802229B1D2
:10563000022920D0032922D01A6070474FF48072CB
:105640001A60704752F830004FF4A27280F880124E
:105650001A601A6822F020021A60704752F830105F
:105660004FF4A272012081F880021A601A6842F099
:1056700020021A60704740F203121A6070474FF41C
:1056800081721A60704700BF449F000030B4054B20
:10569000054D064C002210211A602A602060196016
:1056A00030BC704714D0034004D0034000D0034006
:1056B0003F2801D8FFF788BF704700BF3F2806D8B2
:1056C000044B53F8303093F80002C0B2704700200A
:1056D000704700BF449F00003F2801D8FFF79ABFE2
:1056E000704700BF72B60D490D4B0E4A1B68086823
:1056F000126862B6520102D5322B88BF0130C3F561
:105700002F33094903F21F334FF47A729B08A1FB30
:10571000031302FB00F000EB930070479CA0FF1FF7
:1057200018E000E004ED00E0176CC1162DE9F84325
:10573000054672B6224F234B234A1B683C68126809
:1057400062B6520102D5322B88BF0134B5B3C3F51E
:105750002F3303F21F331D4EDFF86890DFF86880A7
:105760009B084FF47A72A6FB031302FB04F404EBCC
:10577000930472B6D9F800103A68D8F800E062B61F
:10578000C1F52F3303F21F339B08A6FB03031EF062
:10579000806FC4EB93034FF47A7002D0322988BF34
:1057A000013200FB0233B3F57A7F04D3013D05D00B
:1057B00004F57A74DDE701F09BFADAE7BDE8F883D7
:1057C0009CA0FF1F18E000E004ED00E0176CC1167C
:1057D000F8B54E4B4E48DFF85CC14E4C4E49DFF8F1
:1057E00058E14E4E4E4D4F4F4FF000621A604FF051
:1057F00080521A604FF000521A604FF080421A60D7
:105800004FF000421A600022026028234EF6FF701B
:10581000CCF80000CEF8003023600EF5012E0B60AE
:1058200033602B6006F500263B6005F50025A3627A
:1058300007F500278B6204F5012401F5012106F626
:10584000E87605F6E87507F57F6710310EF1100E62
:10585000203433602B60CEF800303B600B60236057
:10586000314CBB618B6109212160A7F5002704F54C
:105870008054203F08343A602060BB60E36047F802
:10588000041C04F5FD2407F5FE27043704F2FC741C
:1058900022603860A360FB6044F8041C083404F6FE
:1058A000FC74C7F8FC2F2060A4F5E124A4F2DC749A
:1058B00033602B60C7F8F81F21681C4841F4007161
:1058C000216001681A4C0EF57F4E0EF1E80E07F5C7
:1058D000883706F5803605F5803541F000710160A6
:1058E000CEF8002047F6FF710822396033602B6044
:1058F0002260FFF7A9FC1920FFF718FF00F0B2FFA4
:1059000040F21310BDE8F840FFF710BF04E100E0DB
:1059100004800340148003401C8003402480034023
:105920002C80034034800340008003400480044006
:1059300000900C40088003400C800340324A3349F9
:105940001368F0B543F4806313600A78304F314E2A
:10595000314D324C32490023152A3B7033702B7085
:1059600023700B7045D01B2A3ED082B32D4B1B7881
:10597000052B34D01A2B41D0012B1BD01F281FD848
:10598000002002460125284B284C1A7028495D70DA
:1059900004224FF0020E88273C26402598729A7008
:1059A0004FF0004083F813E05A751F74DE702570C5
:1059B0000860F0BD1F4B4FF451721F281A60DFD9E9
:1059C000C0F34432C0F3471500F01F00DBE71A4B69
:1059D00040F213321A60134B1B78052BCAD1174BB8
:1059E0004FF451721A60C9E7154B40F213321A6036
:1059F000BCE7144B40F213321A60B7E7124B4FF476
:105A000051721A60BAE700BF34800440E8A0FF1F5B
:105A1000A4A0FF1FA5A0FF1F34A1FF1F2DA1FF1FE2
:105A20002CA1FF1FE016FF1F00A006401FE400E0AE
:105A300000E100E044A0044040A004401CC0044039
:105A40003C90044018C0044038900440054A064B7E
:105A500010781B78C0B2DBB2984238BF4030C01A11
:105A6000704700BFA4A0FF1FA5A0FF1F30B4154BB7
:105A7000154C1A782378D2B2DBB29A421ED0013389
:105A80003F2B0ED91149124B087819680023C0B278
:105A9000237021B1D31A1A2B01DC00230B7030BC08
:105AA00070470A480A49C05C0968DDB2C0B2257077
:105AB0000029F4D09A4238BF4032EBE74FF0FF3074
:105AC000EDE700BFA4A0FF1FA5A0FF1FECA0FF1FD4
:105AD000A0A0FF1FF0B4384B1A7912F0300F2CD071
